{
	"contracts/ProductRegistration.sol": {
		"ProductRegistration": {
			"abi": [
				{
					"anonymous": false,
					"inputs": [
						{
							"indexed": true,
							"internalType": "uint256",
							"name": "productId",
							"type": "uint256"
						},
						{
							"indexed": true,
							"internalType": "address",
							"name": "farmer",
							"type": "address"
						},
						{
							"indexed": false,
							"internalType": "string",
							"name": "name",
							"type": "string"
						},
						{
							"indexed": false,
							"internalType": "uint256",
							"name": "quantity",
							"type": "uint256"
						}
					],
					"name": "ProductRegistered",
					"type": "event"
				},
				{
					"anonymous": false,
					"inputs": [
						{
							"indexed": true,
							"internalType": "uint256",
							"name": "productId",
							"type": "uint256"
						},
						{
							"indexed": false,
							"internalType": "uint256",
							"name": "newQuantity",
							"type": "uint256"
						}
					],
					"name": "ProductUpdated",
					"type": "event"
				},
				{
					"inputs": [
						{
							"internalType": "address",
							"name": "",
							"type": "address"
						},
						{
							"internalType": "uint256",
							"name": "",
							"type": "uint256"
						}
					],
					"name": "farmerProducts",
					"outputs": [
						{
							"internalType": "uint256",
							"name": "",
							"type": "uint256"
						}
					],
					"stateMutability": "view",
					"type": "function"
				},
				{
					"inputs": [
						{
							"internalType": "address",
							"name": "_farmer",
							"type": "address"
						}
					],
					"name": "getFarmerProducts",
					"outputs": [
						{
							"internalType": "uint256[]",
							"name": "",
							"type": "uint256[]"
						}
					],
					"stateMutability": "view",
					"type": "function"
				},
				{
					"inputs": [
						{
							"internalType": "uint256",
							"name": "_productId",
							"type": "uint256"
						}
					],
					"name": "getProductDetails",
					"outputs": [
						{
							"components": [
								{
									"internalType": "uint256",
									"name": "productId",
									"type": "uint256"
								},
								{
									"internalType": "address",
									"name": "farmer",
									"type": "address"
								},
								{
									"internalType": "string",
									"name": "name",
									"type": "string"
								},
								{
									"internalType": "uint256",
									"name": "quantity",
									"type": "uint256"
								},
								{
									"internalType": "uint256",
									"name": "price",
									"type": "uint256"
								},
								{
									"internalType": "string",
									"name": "qualityCertifications",
									"type": "string"
								},
								{
									"internalType": "string",
									"name": "batchInformation",
									"type": "string"
								},
								{
									"internalType": "uint256",
									"name": "registrationTimestamp",
									"type": "uint256"
								}
							],
							"internalType": "struct ProductRegistration.Product",
							"name": "",
							"type": "tuple"
						}
					],
					"stateMutability": "view",
					"type": "function"
				},
				{
					"inputs": [
						{
							"internalType": "uint256",
							"name": "",
							"type": "uint256"
						}
					],
					"name": "products",
					"outputs": [
						{
							"internalType": "uint256",
							"name": "productId",
							"type": "uint256"
						},
						{
							"internalType": "address",
							"name": "farmer",
							"type": "address"
						},
						{
							"internalType": "string",
							"name": "name",
							"type": "string"
						},
						{
							"internalType": "uint256",
							"name": "quantity",
							"type": "uint256"
						},
						{
							"internalType": "uint256",
							"name": "price",
							"type": "uint256"
						},
						{
							"internalType": "string",
							"name": "qualityCertifications",
							"type": "string"
						},
						{
							"internalType": "string",
							"name": "batchInformation",
							"type": "string"
						},
						{
							"internalType": "uint256",
							"name": "registrationTimestamp",
							"type": "uint256"
						}
					],
					"stateMutability": "view",
					"type": "function"
				},
				{
					"inputs": [
						{
							"internalType": "string",
							"name": "_name",
							"type": "string"
						},
						{
							"internalType": "uint256",
							"name": "_quantity",
							"type": "uint256"
						},
						{
							"internalType": "uint256",
							"name": "_price",
							"type": "uint256"
						},
						{
							"internalType": "string",
							"name": "_qualityCertifications",
							"type": "string"
						},
						{
							"internalType": "string",
							"name": "_batchInformation",
							"type": "string"
						}
					],
					"name": "registerProduct",
					"outputs": [
						{
							"internalType": "uint256",
							"name": "",
							"type": "uint256"
						}
					],
					"stateMutability": "nonpayable",
					"type": "function"
				},
				{
					"inputs": [
						{
							"internalType": "uint256",
							"name": "_productId",
							"type": "uint256"
						},
						{
							"internalType": "uint256",
							"name": "_newQuantity",
							"type": "uint256"
						}
					],
					"name": "updateProduct",
					"outputs": [],
					"stateMutability": "nonpayable",
					"type": "function"
				}
			],
			"devdoc": {
				"kind": "dev",
				"methods": {
					"getFarmerProducts(address)": {
						"details": "Retrieves all product IDs registered by a specific farmer",
						"params": {
							"_farmer": "Address of the farmer"
						},
						"returns": {
							"_0": "Array of product IDs"
						}
					},
					"getProductDetails(uint256)": {
						"details": "Retrieves details of a specific product",
						"params": {
							"_productId": "Unique identifier of the product"
						},
						"returns": {
							"_0": "Product details"
						}
					},
					"registerProduct(string,uint256,uint256,string,string)": {
						"details": "Registers a new dairy product on the blockchain",
						"params": {
							"_batchInformation": "Batch-specific information",
							"_name": "Name of the product",
							"_price": "Price of the product",
							"_qualityCertifications": "Quality certifications for the product",
							"_quantity": "Initial quantity of the product"
						},
						"returns": {
							"_0": "productId Unique identifier for the registered product"
						}
					},
					"updateProduct(uint256,uint256)": {
						"details": "Updates the quantity of an existing product",
						"params": {
							"_newQuantity": "Updated quantity of the product",
							"_productId": "Unique identifier of the product"
						}
					}
				},
				"version": 1
			},
			"evm": {
				"assembly": "    /* \"contracts/ProductRegistration.sol\":57:4116  contract ProductRegistration {... */\n  mstore(0x40, 0x80)\n  callvalue\n  dup1\n  iszero\n  tag_1\n  jumpi\n  0x00\n  dup1\n  revert\ntag_1:\n  pop\n  dataSize(sub_0)\n  dup1\n  dataOffset(sub_0)\n  0x00\n  codecopy\n  0x00\n  return\nstop\n\nsub_0: assembly {\n        /* \"contracts/ProductRegistration.sol\":57:4116  contract ProductRegistration {... */\n      mstore(0x40, 0x80)\n      callvalue\n      dup1\n      iszero\n      tag_1\n      jumpi\n      0x00\n      dup1\n      revert\n    tag_1:\n      pop\n      jumpi(tag_2, lt(calldatasize, 0x04))\n      shr(0xe0, calldataload(0x00))\n      dup1\n      0x0a5cf042\n      eq\n      tag_3\n      jumpi\n      dup1\n      0x31f45cab\n      eq\n      tag_4\n      jumpi\n      dup1\n      0x6813b53b\n      eq\n      tag_5\n      jumpi\n      dup1\n      0x788ef6d8\n      eq\n      tag_6\n      jumpi\n      dup1\n      0x7acc0b20\n      eq\n      tag_7\n      jumpi\n      dup1\n      0xfece8772\n      eq\n      tag_8\n      jumpi\n    tag_2:\n      0x00\n      dup1\n      revert\n        /* \"contracts/ProductRegistration.sol\":3952:4114  function getFarmerProducts(address _farmer) ... */\n    tag_3:\n      tag_9\n      0x04\n      dup1\n      calldatasize\n      sub\n      dup2\n      add\n      swap1\n      tag_10\n      swap2\n      swap1\n      tag_11\n      jump\t// in\n    tag_10:\n      tag_12\n      jump\t// in\n    tag_9:\n      mload(0x40)\n      tag_13\n      swap2\n      swap1\n      tag_14\n      jump\t// in\n    tag_13:\n      mload(0x40)\n      dup1\n      swap2\n      sub\n      swap1\n      return\n        /* \"contracts/ProductRegistration.sol\":3033:3342  function updateProduct(... */\n    tag_4:\n      tag_15\n      0x04\n      dup1\n      calldatasize\n      sub\n      dup2\n      add\n      swap1\n      tag_16\n      swap2\n      swap1\n      tag_17\n      jump\t// in\n    tag_16:\n      tag_18\n      jump\t// in\n    tag_15:\n      stop\n        /* \"contracts/ProductRegistration.sol\":3505:3780  function getProductDetails(uint256 _productId) ... */\n    tag_5:\n      tag_19\n      0x04\n      dup1\n      calldatasize\n      sub\n      dup2\n      add\n      swap1\n      tag_20\n      swap2\n      swap1\n      tag_21\n      jump\t// in\n    tag_20:\n      tag_22\n      jump\t// in\n    tag_19:\n      mload(0x40)\n      tag_23\n      swap2\n      swap1\n      tag_24\n      jump\t// in\n    tag_23:\n      mload(0x40)\n      dup1\n      swap2\n      sub\n      swap1\n      return\n        /* \"contracts/ProductRegistration.sol\":1701:2838  function registerProduct(... */\n    tag_6:\n      tag_25\n      0x04\n      dup1\n      calldatasize\n      sub\n      dup2\n      add\n      swap1\n      tag_26\n      swap2\n      swap1\n      tag_27\n      jump\t// in\n    tag_26:\n      tag_28\n      jump\t// in\n    tag_25:\n      mload(0x40)\n      tag_29\n      swap2\n      swap1\n      tag_30\n      jump\t// in\n    tag_29:\n      mload(0x40)\n      dup1\n      swap2\n      sub\n      swap1\n      return\n        /* \"contracts/ProductRegistration.sol\":442:485  mapping(uint256 => Product) public products */\n    tag_7:\n      tag_31\n      0x04\n      dup1\n      calldatasize\n      sub\n      dup2\n      add\n      swap1\n      tag_32\n      swap2\n      swap1\n      tag_21\n      jump\t// in\n    tag_32:\n      tag_33\n      jump\t// in\n    tag_31:\n      mload(0x40)\n      tag_34\n      swap9\n      swap8\n      swap7\n      swap6\n      swap5\n      swap4\n      swap3\n      swap2\n      swap1\n      tag_35\n      jump\t// in\n    tag_34:\n      mload(0x40)\n      dup1\n      swap2\n      sub\n      swap1\n      return\n        /* \"contracts/ProductRegistration.sol\":550:601  mapping(address => uint256[]) public farmerProducts */\n    tag_8:\n      tag_36\n      0x04\n      dup1\n      calldatasize\n      sub\n      dup2\n      add\n      swap1\n      tag_37\n      swap2\n      swap1\n      tag_38\n      jump\t// in\n    tag_37:\n      tag_39\n      jump\t// in\n    tag_36:\n      mload(0x40)\n      tag_40\n      swap2\n      swap1\n      tag_30\n      jump\t// in\n    tag_40:\n      mload(0x40)\n      dup1\n      swap2\n      sub\n      swap1\n      return\n        /* \"contracts/ProductRegistration.sol\":3952:4114  function getFarmerProducts(address _farmer) ... */\n    tag_12:\n        /* \"contracts/ProductRegistration.sol\":4044:4060  uint256[] memory */\n      0x60\n        /* \"contracts/ProductRegistration.sol\":4084:4098  farmerProducts */\n      0x01\n        /* \"contracts/ProductRegistration.sol\":4084:4107  farmerProducts[_farmer] */\n      0x00\n        /* \"contracts/ProductRegistration.sol\":4099:4106  _farmer */\n      dup4\n        /* \"contracts/ProductRegistration.sol\":4084:4107  farmerProducts[_farmer] */\n      0xffffffffffffffffffffffffffffffffffffffff\n      and\n      0xffffffffffffffffffffffffffffffffffffffff\n      and\n      dup2\n      mstore\n      0x20\n      add\n      swap1\n      dup2\n      mstore\n      0x20\n      add\n      0x00\n      keccak256\n        /* \"contracts/ProductRegistration.sol\":4077:4107  return farmerProducts[_farmer] */\n      dup1\n      sload\n      dup1\n      0x20\n      mul\n      0x20\n      add\n      mload(0x40)\n      swap1\n      dup2\n      add\n      0x40\n      mstore\n      dup1\n      swap3\n      swap2\n      swap1\n      dup2\n      dup2\n      mstore\n      0x20\n      add\n      dup3\n      dup1\n      sload\n      dup1\n      iszero\n      tag_42\n      jumpi\n      0x20\n      mul\n      dup3\n      add\n      swap2\n      swap1\n      0x00\n      mstore\n      keccak256(0x00, 0x20)\n      swap1\n    tag_43:\n      dup2\n      sload\n      dup2\n      mstore\n      0x20\n      add\n      swap1\n      0x01\n      add\n      swap1\n      dup1\n      dup4\n      gt\n      tag_43\n      jumpi\n    tag_42:\n      pop\n      pop\n      pop\n      pop\n      pop\n      swap1\n      pop\n        /* \"contracts/ProductRegistration.sol\":3952:4114  function getFarmerProducts(address _farmer) ... */\n      swap2\n      swap1\n      pop\n      jump\t// out\n        /* \"contracts/ProductRegistration.sol\":3033:3342  function updateProduct(... */\n    tag_18:\n        /* \"contracts/ProductRegistration.sol\":3145:3155  _productId */\n      dup2\n        /* \"contracts/ProductRegistration.sol\":1176:1186  msg.sender */\n      caller\n        /* \"contracts/ProductRegistration.sol\":1145:1186  products[_productId].farmer == msg.sender */\n      0xffffffffffffffffffffffffffffffffffffffff\n      and\n        /* \"contracts/ProductRegistration.sol\":1145:1153  products */\n      0x00\n        /* \"contracts/ProductRegistration.sol\":1145:1165  products[_productId] */\n      dup1\n        /* \"contracts/ProductRegistration.sol\":1154:1164  _productId */\n      dup4\n        /* \"contracts/ProductRegistration.sol\":1145:1165  products[_productId] */\n      dup2\n      mstore\n      0x20\n      add\n      swap1\n      dup2\n      mstore\n      0x20\n      add\n      0x00\n      keccak256\n        /* \"contracts/ProductRegistration.sol\":1145:1172  products[_productId].farmer */\n      0x01\n      add\n      0x00\n      swap1\n      sload\n      swap1\n      0x0100\n      exp\n      swap1\n      div\n      0xffffffffffffffffffffffffffffffffffffffff\n      and\n        /* \"contracts/ProductRegistration.sol\":1145:1186  products[_productId].farmer == msg.sender */\n      0xffffffffffffffffffffffffffffffffffffffff\n      and\n      eq\n        /* \"contracts/ProductRegistration.sol\":1124:1258  require(... */\n      tag_45\n      jumpi\n      mload(0x40)\n      0x08c379a000000000000000000000000000000000000000000000000000000000\n      dup2\n      mstore\n      0x04\n      add\n      tag_46\n      swap1\n      tag_47\n      jump\t// in\n    tag_46:\n      mload(0x40)\n      dup1\n      swap2\n      sub\n      swap1\n      revert\n    tag_45:\n        /* \"contracts/ProductRegistration.sol\":3238:3250  _newQuantity */\n      dup2\n        /* \"contracts/ProductRegistration.sol\":3206:3214  products */\n      0x00\n        /* \"contracts/ProductRegistration.sol\":3206:3226  products[_productId] */\n      dup1\n        /* \"contracts/ProductRegistration.sol\":3215:3225  _productId */\n      dup6\n        /* \"contracts/ProductRegistration.sol\":3206:3226  products[_productId] */\n      dup2\n      mstore\n      0x20\n      add\n      swap1\n      dup2\n      mstore\n      0x20\n      add\n      0x00\n      keccak256\n        /* \"contracts/ProductRegistration.sol\":3206:3235  products[_productId].quantity */\n      0x03\n      add\n        /* \"contracts/ProductRegistration.sol\":3206:3250  products[_productId].quantity = _newQuantity */\n      dup2\n      swap1\n      sstore\n      pop\n        /* \"contracts/ProductRegistration.sol\":3310:3320  _productId */\n      dup3\n        /* \"contracts/ProductRegistration.sol\":3295:3335  ProductUpdated(_productId, _newQuantity) */\n      0x1a58b4c176a67828ebe2456bc637af85e69b115be11597e049b0669d13bea999\n        /* \"contracts/ProductRegistration.sol\":3322:3334  _newQuantity */\n      dup4\n        /* \"contracts/ProductRegistration.sol\":3295:3335  ProductUpdated(_productId, _newQuantity) */\n      mload(0x40)\n      tag_49\n      swap2\n      swap1\n      tag_30\n      jump\t// in\n    tag_49:\n      mload(0x40)\n      dup1\n      swap2\n      sub\n      swap1\n      log2\n        /* \"contracts/ProductRegistration.sol\":3033:3342  function updateProduct(... */\n      pop\n      pop\n      pop\n      jump\t// out\n        /* \"contracts/ProductRegistration.sol\":3505:3780  function getProductDetails(uint256 _productId) ... */\n    tag_22:\n        /* \"contracts/ProductRegistration.sol\":3600:3614  Product memory */\n      tag_50\n      tag_51\n      jump\t// in\n    tag_50:\n        /* \"contracts/ProductRegistration.sol\":3686:3687  0 */\n      0x00\n        /* \"contracts/ProductRegistration.sol\":3652:3660  products */\n      dup1\n        /* \"contracts/ProductRegistration.sol\":3652:3672  products[_productId] */\n      0x00\n        /* \"contracts/ProductRegistration.sol\":3661:3671  _productId */\n      dup5\n        /* \"contracts/ProductRegistration.sol\":3652:3672  products[_productId] */\n      dup2\n      mstore\n      0x20\n      add\n      swap1\n      dup2\n      mstore\n      0x20\n      add\n      0x00\n      keccak256\n        /* \"contracts/ProductRegistration.sol\":3652:3682  products[_productId].productId */\n      0x00\n      add\n      sload\n        /* \"contracts/ProductRegistration.sol\":3652:3687  products[_productId].productId != 0 */\n      sub\n        /* \"contracts/ProductRegistration.sol\":3631:3736  require(... */\n      tag_53\n      jumpi\n      mload(0x40)\n      0x08c379a000000000000000000000000000000000000000000000000000000000\n      dup2\n      mstore\n      0x04\n      add\n      tag_54\n      swap1\n      tag_55\n      jump\t// in\n    tag_54:\n      mload(0x40)\n      dup1\n      swap2\n      sub\n      swap1\n      revert\n    tag_53:\n        /* \"contracts/ProductRegistration.sol\":3753:3761  products */\n      0x00\n        /* \"contracts/ProductRegistration.sol\":3753:3773  products[_productId] */\n      dup1\n        /* \"contracts/ProductRegistration.sol\":3762:3772  _productId */\n      dup4\n        /* \"contracts/ProductRegistration.sol\":3753:3773  products[_productId] */\n      dup2\n      mstore\n      0x20\n      add\n      swap1\n      dup2\n      mstore\n      0x20\n      add\n      0x00\n      keccak256\n        /* \"contracts/ProductRegistration.sol\":3746:3773  return products[_productId] */\n      mload(0x40)\n      dup1\n      0x0100\n      add\n      0x40\n      mstore\n      swap1\n      dup2\n      0x00\n      dup3\n      add\n      sload\n      dup2\n      mstore\n      0x20\n      add\n      0x01\n      dup3\n      add\n      0x00\n      swap1\n      sload\n      swap1\n      0x0100\n      exp\n      swap1\n      div\n      0xffffffffffffffffffffffffffffffffffffffff\n      and\n      0xffffffffffffffffffffffffffffffffffffffff\n      and\n      0xffffffffffffffffffffffffffffffffffffffff\n      and\n      dup2\n      mstore\n      0x20\n      add\n      0x02\n      dup3\n      add\n      dup1\n      sload\n      tag_56\n      swap1\n      tag_57\n      jump\t// in\n    tag_56:\n      dup1\n      0x1f\n      add\n      0x20\n      dup1\n      swap2\n      div\n      mul\n      0x20\n      add\n      mload(0x40)\n      swap1\n      dup2\n      add\n      0x40\n      mstore\n      dup1\n      swap3\n      swap2\n      swap1\n      dup2\n      dup2\n      mstore\n      0x20\n      add\n      dup3\n      dup1\n      sload\n      tag_58\n      swap1\n      tag_57\n      jump\t// in\n    tag_58:\n      dup1\n      iszero\n      tag_59\n      jumpi\n      dup1\n      0x1f\n      lt\n      tag_60\n      jumpi\n      0x0100\n      dup1\n      dup4\n      sload\n      div\n      mul\n      dup4\n      mstore\n      swap2\n      0x20\n      add\n      swap2\n      jump(tag_59)\n    tag_60:\n      dup3\n      add\n      swap2\n      swap1\n      0x00\n      mstore\n      keccak256(0x00, 0x20)\n      swap1\n    tag_61:\n      dup2\n      sload\n      dup2\n      mstore\n      swap1\n      0x01\n      add\n      swap1\n      0x20\n      add\n      dup1\n      dup4\n      gt\n      tag_61\n      jumpi\n      dup3\n      swap1\n      sub\n      0x1f\n      and\n      dup3\n      add\n      swap2\n    tag_59:\n      pop\n      pop\n      pop\n      pop\n      pop\n      dup2\n      mstore\n      0x20\n      add\n      0x03\n      dup3\n      add\n      sload\n      dup2\n      mstore\n      0x20\n      add\n      0x04\n      dup3\n      add\n      sload\n      dup2\n      mstore\n      0x20\n      add\n      0x05\n      dup3\n      add\n      dup1\n      sload\n      tag_62\n      swap1\n      tag_57\n      jump\t// in\n    tag_62:\n      dup1\n      0x1f\n      add\n      0x20\n      dup1\n      swap2\n      div\n      mul\n      0x20\n      add\n      mload(0x40)\n      swap1\n      dup2\n      add\n      0x40\n      mstore\n      dup1\n      swap3\n      swap2\n      swap1\n      dup2\n      dup2\n      mstore\n      0x20\n      add\n      dup3\n      dup1\n      sload\n      tag_63\n      swap1\n      tag_57\n      jump\t// in\n    tag_63:\n      dup1\n      iszero\n      tag_64\n      jumpi\n      dup1\n      0x1f\n      lt\n      tag_65\n      jumpi\n      0x0100\n      dup1\n      dup4\n      sload\n      div\n      mul\n      dup4\n      mstore\n      swap2\n      0x20\n      add\n      swap2\n      jump(tag_64)\n    tag_65:\n      dup3\n      add\n      swap2\n      swap1\n      0x00\n      mstore\n      keccak256(0x00, 0x20)\n      swap1\n    tag_66:\n      dup2\n      sload\n      dup2\n      mstore\n      swap1\n      0x01\n      add\n      swap1\n      0x20\n      add\n      dup1\n      dup4\n      gt\n      tag_66\n      jumpi\n      dup3\n      swap1\n      sub\n      0x1f\n      and\n      dup3\n      add\n      swap2\n    tag_64:\n      pop\n      pop\n      pop\n      pop\n      pop\n      dup2\n      mstore\n      0x20\n      add\n      0x06\n      dup3\n      add\n      dup1\n      sload\n      tag_67\n      swap1\n      tag_57\n      jump\t// in\n    tag_67:\n      dup1\n      0x1f\n      add\n      0x20\n      dup1\n      swap2\n      div\n      mul\n      0x20\n      add\n      mload(0x40)\n      swap1\n      dup2\n      add\n      0x40\n      mstore\n      dup1\n      swap3\n      swap2\n      swap1\n      dup2\n      dup2\n      mstore\n      0x20\n      add\n      dup3\n      dup1\n      sload\n      tag_68\n      swap1\n      tag_57\n      jump\t// in\n    tag_68:\n      dup1\n      iszero\n      tag_69\n      jumpi\n      dup1\n      0x1f\n      lt\n      tag_70\n      jumpi\n      0x0100\n      dup1\n      dup4\n      sload\n      div\n      mul\n      dup4\n      mstore\n      swap2\n      0x20\n      add\n      swap2\n      jump(tag_69)\n    tag_70:\n      dup3\n      add\n      swap2\n      swap1\n      0x00\n      mstore\n      keccak256(0x00, 0x20)\n      swap1\n    tag_71:\n      dup2\n      sload\n      dup2\n      mstore\n      swap1\n      0x01\n      add\n      swap1\n      0x20\n      add\n      dup1\n      dup4\n      gt\n      tag_71\n      jumpi\n      dup3\n      swap1\n      sub\n      0x1f\n      and\n      dup3\n      add\n      swap2\n    tag_69:\n      pop\n      pop\n      pop\n      pop\n      pop\n      dup2\n      mstore\n      0x20\n      add\n      0x07\n      dup3\n      add\n      sload\n      dup2\n      mstore\n      pop\n      pop\n      swap1\n      pop\n        /* \"contracts/ProductRegistration.sol\":3505:3780  function getProductDetails(uint256 _productId) ... */\n      swap2\n      swap1\n      pop\n      jump\t// out\n        /* \"contracts/ProductRegistration.sol\":1701:2838  function registerProduct(... */\n    tag_28:\n        /* \"contracts/ProductRegistration.sol\":1915:1922  uint256 */\n      0x00\n        /* \"contracts/ProductRegistration.sol\":1987:2004  uint256 productId */\n      dup1\n        /* \"contracts/ProductRegistration.sol\":2055:2070  block.timestamp */\n      timestamp\n        /* \"contracts/ProductRegistration.sol\":2085:2095  msg.sender */\n      caller\n        /* \"contracts/ProductRegistration.sol\":2110:2126  productIdCounter */\n      0x02\n      0x00\n        /* \"contracts/ProductRegistration.sol\":2110:2128  productIdCounter++ */\n      dup2\n      sload\n      dup1\n      swap3\n      swap2\n      swap1\n      tag_73\n      swap1\n      tag_74\n      jump\t// in\n    tag_73:\n      swap2\n      swap1\n      pop\n      sstore\n        /* \"contracts/ProductRegistration.sol\":2025:2138  abi.encodePacked(... */\n      add(0x20, mload(0x40))\n      tag_75\n      swap4\n      swap3\n      swap2\n      swap1\n      tag_76\n      jump\t// in\n    tag_75:\n      mload(0x40)\n      0x20\n      dup2\n      dup4\n      sub\n      sub\n      dup2\n      mstore\n      swap1\n      0x40\n      mstore\n        /* \"contracts/ProductRegistration.sol\":2015:2139  keccak256(abi.encodePacked(... */\n      dup1\n      mload\n      swap1\n      0x20\n      add\n      keccak256\n        /* \"contracts/ProductRegistration.sol\":2007:2140  uint256(keccak256(abi.encodePacked(... */\n      0x00\n      shr\n        /* \"contracts/ProductRegistration.sol\":1987:2140  uint256 productId = uint256(keccak256(abi.encodePacked(... */\n      swap1\n      pop\n        /* \"contracts/ProductRegistration.sol\":2181:2206  Product memory newProduct */\n      0x00\n        /* \"contracts/ProductRegistration.sol\":2209:2539  Product({... */\n      mload(0x40)\n      dup1\n      0x0100\n      add\n      0x40\n      mstore\n      dup1\n        /* \"contracts/ProductRegistration.sol\":2242:2251  productId */\n      dup4\n        /* \"contracts/ProductRegistration.sol\":2209:2539  Product({... */\n      dup2\n      mstore\n      0x20\n      add\n        /* \"contracts/ProductRegistration.sol\":2273:2283  msg.sender */\n      caller\n        /* \"contracts/ProductRegistration.sol\":2209:2539  Product({... */\n      0xffffffffffffffffffffffffffffffffffffffff\n      and\n      dup2\n      mstore\n      0x20\n      add\n        /* \"contracts/ProductRegistration.sol\":2303:2308  _name */\n      dup10\n        /* \"contracts/ProductRegistration.sol\":2209:2539  Product({... */\n      dup2\n      mstore\n      0x20\n      add\n        /* \"contracts/ProductRegistration.sol\":2332:2341  _quantity */\n      dup9\n        /* \"contracts/ProductRegistration.sol\":2209:2539  Product({... */\n      dup2\n      mstore\n      0x20\n      add\n        /* \"contracts/ProductRegistration.sol\":2362:2368  _price */\n      dup8\n        /* \"contracts/ProductRegistration.sol\":2209:2539  Product({... */\n      dup2\n      mstore\n      0x20\n      add\n        /* \"contracts/ProductRegistration.sol\":2405:2427  _qualityCertifications */\n      dup7\n        /* \"contracts/ProductRegistration.sol\":2209:2539  Product({... */\n      dup2\n      mstore\n      0x20\n      add\n        /* \"contracts/ProductRegistration.sol\":2459:2476  _batchInformation */\n      dup6\n        /* \"contracts/ProductRegistration.sol\":2209:2539  Product({... */\n      dup2\n      mstore\n      0x20\n      add\n        /* \"contracts/ProductRegistration.sol\":2513:2528  block.timestamp */\n      timestamp\n        /* \"contracts/ProductRegistration.sol\":2209:2539  Product({... */\n      dup2\n      mstore\n      pop\n        /* \"contracts/ProductRegistration.sol\":2181:2539  Product memory newProduct = Product({... */\n      swap1\n      pop\n        /* \"contracts/ProductRegistration.sol\":2601:2611  newProduct */\n      dup1\n        /* \"contracts/ProductRegistration.sol\":2579:2587  products */\n      0x00\n        /* \"contracts/ProductRegistration.sol\":2579:2598  products[productId] */\n      dup1\n        /* \"contracts/ProductRegistration.sol\":2588:2597  productId */\n      dup5\n        /* \"contracts/ProductRegistration.sol\":2579:2598  products[productId] */\n      dup2\n      mstore\n      0x20\n      add\n      swap1\n      dup2\n      mstore\n      0x20\n      add\n      0x00\n      keccak256\n        /* \"contracts/ProductRegistration.sol\":2579:2611  products[productId] = newProduct */\n      0x00\n      dup3\n      add\n      mload\n      dup2\n      0x00\n      add\n      sstore\n      0x20\n      dup3\n      add\n      mload\n      dup2\n      0x01\n      add\n      exp(0x0100, 0x00)\n      dup2\n      sload\n      dup2\n      0xffffffffffffffffffffffffffffffffffffffff\n      mul\n      not\n      and\n      swap1\n      dup4\n      0xffffffffffffffffffffffffffffffffffffffff\n      and\n      mul\n      or\n      swap1\n      sstore\n      pop\n      0x40\n      dup3\n      add\n      mload\n      dup2\n      0x02\n      add\n      swap1\n      dup2\n      tag_77\n      swap2\n      swap1\n      tag_78\n      jump\t// in\n    tag_77:\n      pop\n      0x60\n      dup3\n      add\n      mload\n      dup2\n      0x03\n      add\n      sstore\n      0x80\n      dup3\n      add\n      mload\n      dup2\n      0x04\n      add\n      sstore\n      0xa0\n      dup3\n      add\n      mload\n      dup2\n      0x05\n      add\n      swap1\n      dup2\n      tag_79\n      swap2\n      swap1\n      tag_78\n      jump\t// in\n    tag_79:\n      pop\n      0xc0\n      dup3\n      add\n      mload\n      dup2\n      0x06\n      add\n      swap1\n      dup2\n      tag_80\n      swap2\n      swap1\n      tag_78\n      jump\t// in\n    tag_80:\n      pop\n      0xe0\n      dup3\n      add\n      mload\n      dup2\n      0x07\n      add\n      sstore\n      swap1\n      pop\n      pop\n        /* \"contracts/ProductRegistration.sol\":2666:2680  farmerProducts */\n      0x01\n        /* \"contracts/ProductRegistration.sol\":2666:2692  farmerProducts[msg.sender] */\n      0x00\n        /* \"contracts/ProductRegistration.sol\":2681:2691  msg.sender */\n      caller\n        /* \"contracts/ProductRegistration.sol\":2666:2692  farmerProducts[msg.sender] */\n      0xffffffffffffffffffffffffffffffffffffffff\n      and\n      0xffffffffffffffffffffffffffffffffffffffff\n      and\n      dup2\n      mstore\n      0x20\n      add\n      swap1\n      dup2\n      mstore\n      0x20\n      add\n      0x00\n      keccak256\n        /* \"contracts/ProductRegistration.sol\":2698:2707  productId */\n      dup3\n        /* \"contracts/ProductRegistration.sol\":2666:2708  farmerProducts[msg.sender].push(productId) */\n      swap1\n      dup1\n      0x01\n      dup2\n      sload\n      add\n      dup1\n      dup3\n      sstore\n      dup1\n      swap2\n      pop\n      pop\n      0x01\n      swap1\n      sub\n      swap1\n      0x00\n      mstore\n      keccak256(0x00, 0x20)\n      add\n      0x00\n      swap1\n      swap2\n      swap1\n      swap2\n      swap1\n      swap2\n      pop\n      sstore\n        /* \"contracts/ProductRegistration.sol\":2775:2785  msg.sender */\n      caller\n        /* \"contracts/ProductRegistration.sol\":2746:2804  ProductRegistered(productId, msg.sender, _name, _quantity) */\n      0xffffffffffffffffffffffffffffffffffffffff\n      and\n        /* \"contracts/ProductRegistration.sol\":2764:2773  productId */\n      dup3\n        /* \"contracts/ProductRegistration.sol\":2746:2804  ProductRegistered(productId, msg.sender, _name, _quantity) */\n      0x388ad0b48ceb5a4d1897ac418431eaad75ed9e997d4fe2e92eebc9d1262bf37c\n        /* \"contracts/ProductRegistration.sol\":2787:2792  _name */\n      dup11\n        /* \"contracts/ProductRegistration.sol\":2794:2803  _quantity */\n      dup11\n        /* \"contracts/ProductRegistration.sol\":2746:2804  ProductRegistered(productId, msg.sender, _name, _quantity) */\n      mload(0x40)\n      tag_82\n      swap3\n      swap2\n      swap1\n      tag_83\n      jump\t// in\n    tag_82:\n      mload(0x40)\n      dup1\n      swap2\n      sub\n      swap1\n      log3\n        /* \"contracts/ProductRegistration.sol\":2822:2831  productId */\n      dup2\n        /* \"contracts/ProductRegistration.sol\":2815:2831  return productId */\n      swap3\n      pop\n      pop\n      pop\n        /* \"contracts/ProductRegistration.sol\":1701:2838  function registerProduct(... */\n      swap6\n      swap5\n      pop\n      pop\n      pop\n      pop\n      pop\n      jump\t// out\n        /* \"contracts/ProductRegistration.sol\":442:485  mapping(uint256 => Product) public products */\n    tag_33:\n      mstore(0x20, 0x00)\n      dup1\n      0x00\n      mstore\n      keccak256(0x00, 0x40)\n      0x00\n      swap2\n      pop\n      swap1\n      pop\n      dup1\n      0x00\n      add\n      sload\n      swap1\n      dup1\n      0x01\n      add\n      0x00\n      swap1\n      sload\n      swap1\n      0x0100\n      exp\n      swap1\n      div\n      0xffffffffffffffffffffffffffffffffffffffff\n      and\n      swap1\n      dup1\n      0x02\n      add\n      dup1\n      sload\n      tag_84\n      swap1\n      tag_57\n      jump\t// in\n    tag_84:\n      dup1\n      0x1f\n      add\n      0x20\n      dup1\n      swap2\n      div\n      mul\n      0x20\n      add\n      mload(0x40)\n      swap1\n      dup2\n      add\n      0x40\n      mstore\n      dup1\n      swap3\n      swap2\n      swap1\n      dup2\n      dup2\n      mstore\n      0x20\n      add\n      dup3\n      dup1\n      sload\n      tag_85\n      swap1\n      tag_57\n      jump\t// in\n    tag_85:\n      dup1\n      iszero\n      tag_86\n      jumpi\n      dup1\n      0x1f\n      lt\n      tag_87\n      jumpi\n      0x0100\n      dup1\n      dup4\n      sload\n      div\n      mul\n      dup4\n      mstore\n      swap2\n      0x20\n      add\n      swap2\n      jump(tag_86)\n    tag_87:\n      dup3\n      add\n      swap2\n      swap1\n      0x00\n      mstore\n      keccak256(0x00, 0x20)\n      swap1\n    tag_88:\n      dup2\n      sload\n      dup2\n      mstore\n      swap1\n      0x01\n      add\n      swap1\n      0x20\n      add\n      dup1\n      dup4\n      gt\n      tag_88\n      jumpi\n      dup3\n      swap1\n      sub\n      0x1f\n      and\n      dup3\n      add\n      swap2\n    tag_86:\n      pop\n      pop\n      pop\n      pop\n      pop\n      swap1\n      dup1\n      0x03\n      add\n      sload\n      swap1\n      dup1\n      0x04\n      add\n      sload\n      swap1\n      dup1\n      0x05\n      add\n      dup1\n      sload\n      tag_89\n      swap1\n      tag_57\n      jump\t// in\n    tag_89:\n      dup1\n      0x1f\n      add\n      0x20\n      dup1\n      swap2\n      div\n      mul\n      0x20\n      add\n      mload(0x40)\n      swap1\n      dup2\n      add\n      0x40\n      mstore\n      dup1\n      swap3\n      swap2\n      swap1\n      dup2\n      dup2\n      mstore\n      0x20\n      add\n      dup3\n      dup1\n      sload\n      tag_90\n      swap1\n      tag_57\n      jump\t// in\n    tag_90:\n      dup1\n      iszero\n      tag_91\n      jumpi\n      dup1\n      0x1f\n      lt\n      tag_92\n      jumpi\n      0x0100\n      dup1\n      dup4\n      sload\n      div\n      mul\n      dup4\n      mstore\n      swap2\n      0x20\n      add\n      swap2\n      jump(tag_91)\n    tag_92:\n      dup3\n      add\n      swap2\n      swap1\n      0x00\n      mstore\n      keccak256(0x00, 0x20)\n      swap1\n    tag_93:\n      dup2\n      sload\n      dup2\n      mstore\n      swap1\n      0x01\n      add\n      swap1\n      0x20\n      add\n      dup1\n      dup4\n      gt\n      tag_93\n      jumpi\n      dup3\n      swap1\n      sub\n      0x1f\n      and\n      dup3\n      add\n      swap2\n    tag_91:\n      pop\n      pop\n      pop\n      pop\n      pop\n      swap1\n      dup1\n      0x06\n      add\n      dup1\n      sload\n      tag_94\n      swap1\n      tag_57\n      jump\t// in\n    tag_94:\n      dup1\n      0x1f\n      add\n      0x20\n      dup1\n      swap2\n      div\n      mul\n      0x20\n      add\n      mload(0x40)\n      swap1\n      dup2\n      add\n      0x40\n      mstore\n      dup1\n      swap3\n      swap2\n      swap1\n      dup2\n      dup2\n      mstore\n      0x20\n      add\n      dup3\n      dup1\n      sload\n      tag_95\n      swap1\n      tag_57\n      jump\t// in\n    tag_95:\n      dup1\n      iszero\n      tag_96\n      jumpi\n      dup1\n      0x1f\n      lt\n      tag_97\n      jumpi\n      0x0100\n      dup1\n      dup4\n      sload\n      div\n      mul\n      dup4\n      mstore\n      swap2\n      0x20\n      add\n      swap2\n      jump(tag_96)\n    tag_97:\n      dup3\n      add\n      swap2\n      swap1\n      0x00\n      mstore\n      keccak256(0x00, 0x20)\n      swap1\n    tag_98:\n      dup2\n      sload\n      dup2\n      mstore\n      swap1\n      0x01\n      add\n      swap1\n      0x20\n      add\n      dup1\n      dup4\n      gt\n      tag_98\n      jumpi\n      dup3\n      swap1\n      sub\n      0x1f\n      and\n      dup3\n      add\n      swap2\n    tag_96:\n      pop\n      pop\n      pop\n      pop\n      pop\n      swap1\n      dup1\n      0x07\n      add\n      sload\n      swap1\n      pop\n      dup9\n      jump\t// out\n        /* \"contracts/ProductRegistration.sol\":550:601  mapping(address => uint256[]) public farmerProducts */\n    tag_39:\n      mstore(0x20, 0x01)\n      dup2\n      0x00\n      mstore\n      keccak256(0x00, 0x40)\n      dup2\n      dup2\n      sload\n      dup2\n      lt\n      tag_99\n      jumpi\n      0x00\n      dup1\n      revert\n    tag_99:\n      swap1\n      0x00\n      mstore\n      keccak256(0x00, 0x20)\n      add\n      0x00\n      swap2\n      pop\n      swap2\n      pop\n      pop\n      sload\n      dup2\n      jump\t// out\n    tag_51:\n      mload(0x40)\n      dup1\n      0x0100\n      add\n      0x40\n      mstore\n      dup1\n      0x00\n      dup2\n      mstore\n      0x20\n      add\n      and(0xffffffffffffffffffffffffffffffffffffffff, 0x00)\n      dup2\n      mstore\n      0x20\n      add\n      0x60\n      dup2\n      mstore\n      0x20\n      add\n      0x00\n      dup2\n      mstore\n      0x20\n      add\n      0x00\n      dup2\n      mstore\n      0x20\n      add\n      0x60\n      dup2\n      mstore\n      0x20\n      add\n      0x60\n      dup2\n      mstore\n      0x20\n      add\n      0x00\n      dup2\n      mstore\n      pop\n      swap1\n      jump\t// out\n        /* \"#utility.yul\":7:82   */\n    tag_101:\n        /* \"#utility.yul\":40:46   */\n      0x00\n        /* \"#utility.yul\":73:75   */\n      0x40\n        /* \"#utility.yul\":67:76   */\n      mload\n        /* \"#utility.yul\":57:76   */\n      swap1\n      pop\n        /* \"#utility.yul\":7:82   */\n      swap1\n      jump\t// out\n        /* \"#utility.yul\":88:205   */\n    tag_102:\n        /* \"#utility.yul\":197:198   */\n      0x00\n        /* \"#utility.yul\":194:195   */\n      dup1\n        /* \"#utility.yul\":187:199   */\n      revert\n        /* \"#utility.yul\":211:328   */\n    tag_103:\n        /* \"#utility.yul\":320:321   */\n      0x00\n        /* \"#utility.yul\":317:318   */\n      dup1\n        /* \"#utility.yul\":310:322   */\n      revert\n        /* \"#utility.yul\":334:460   */\n    tag_104:\n        /* \"#utility.yul\":371:378   */\n      0x00\n        /* \"#utility.yul\":411:453   */\n      0xffffffffffffffffffffffffffffffffffffffff\n        /* \"#utility.yul\":404:409   */\n      dup3\n        /* \"#utility.yul\":400:454   */\n      and\n        /* \"#utility.yul\":389:454   */\n      swap1\n      pop\n        /* \"#utility.yul\":334:460   */\n      swap2\n      swap1\n      pop\n      jump\t// out\n        /* \"#utility.yul\":466:562   */\n    tag_105:\n        /* \"#utility.yul\":503:510   */\n      0x00\n        /* \"#utility.yul\":532:556   */\n      tag_171\n        /* \"#utility.yul\":550:555   */\n      dup3\n        /* \"#utility.yul\":532:556   */\n      tag_104\n      jump\t// in\n    tag_171:\n        /* \"#utility.yul\":521:556   */\n      swap1\n      pop\n        /* \"#utility.yul\":466:562   */\n      swap2\n      swap1\n      pop\n      jump\t// out\n        /* \"#utility.yul\":568:690   */\n    tag_106:\n        /* \"#utility.yul\":641:665   */\n      tag_173\n        /* \"#utility.yul\":659:664   */\n      dup2\n        /* \"#utility.yul\":641:665   */\n      tag_105\n      jump\t// in\n    tag_173:\n        /* \"#utility.yul\":634:639   */\n      dup2\n        /* \"#utility.yul\":631:666   */\n      eq\n        /* \"#utility.yul\":621:684   */\n      tag_174\n      jumpi\n        /* \"#utility.yul\":680:681   */\n      0x00\n        /* \"#utility.yul\":677:678   */\n      dup1\n        /* \"#utility.yul\":670:682   */\n      revert\n        /* \"#utility.yul\":621:684   */\n    tag_174:\n        /* \"#utility.yul\":568:690   */\n      pop\n      jump\t// out\n        /* \"#utility.yul\":696:835   */\n    tag_107:\n        /* \"#utility.yul\":742:747   */\n      0x00\n        /* \"#utility.yul\":780:786   */\n      dup2\n        /* \"#utility.yul\":767:787   */\n      calldataload\n        /* \"#utility.yul\":758:787   */\n      swap1\n      pop\n        /* \"#utility.yul\":796:829   */\n      tag_176\n        /* \"#utility.yul\":823:828   */\n      dup2\n        /* \"#utility.yul\":796:829   */\n      tag_106\n      jump\t// in\n    tag_176:\n        /* \"#utility.yul\":696:835   */\n      swap3\n      swap2\n      pop\n      pop\n      jump\t// out\n        /* \"#utility.yul\":841:1170   */\n    tag_11:\n        /* \"#utility.yul\":900:906   */\n      0x00\n        /* \"#utility.yul\":949:951   */\n      0x20\n        /* \"#utility.yul\":937:946   */\n      dup3\n        /* \"#utility.yul\":928:935   */\n      dup5\n        /* \"#utility.yul\":924:947   */\n      sub\n        /* \"#utility.yul\":920:952   */\n      slt\n        /* \"#utility.yul\":917:1036   */\n      iszero\n      tag_178\n      jumpi\n        /* \"#utility.yul\":955:1034   */\n      tag_179\n      tag_102\n      jump\t// in\n    tag_179:\n        /* \"#utility.yul\":917:1036   */\n    tag_178:\n        /* \"#utility.yul\":1075:1076   */\n      0x00\n        /* \"#utility.yul\":1100:1153   */\n      tag_180\n        /* \"#utility.yul\":1145:1152   */\n      dup5\n        /* \"#utility.yul\":1136:1142   */\n      dup3\n        /* \"#utility.yul\":1125:1134   */\n      dup6\n        /* \"#utility.yul\":1121:1143   */\n      add\n        /* \"#utility.yul\":1100:1153   */\n      tag_107\n      jump\t// in\n    tag_180:\n        /* \"#utility.yul\":1090:1153   */\n      swap2\n      pop\n        /* \"#utility.yul\":1046:1163   */\n      pop\n        /* \"#utility.yul\":841:1170   */\n      swap3\n      swap2\n      pop\n      pop\n      jump\t// out\n        /* \"#utility.yul\":1176:1290   */\n    tag_108:\n        /* \"#utility.yul\":1243:1249   */\n      0x00\n        /* \"#utility.yul\":1277:1282   */\n      dup2\n        /* \"#utility.yul\":1271:1283   */\n      mload\n        /* \"#utility.yul\":1261:1283   */\n      swap1\n      pop\n        /* \"#utility.yul\":1176:1290   */\n      swap2\n      swap1\n      pop\n      jump\t// out\n        /* \"#utility.yul\":1296:1480   */\n    tag_109:\n        /* \"#utility.yul\":1395:1406   */\n      0x00\n        /* \"#utility.yul\":1429:1435   */\n      dup3\n        /* \"#utility.yul\":1424:1427   */\n      dup3\n        /* \"#utility.yul\":1417:1436   */\n      mstore\n        /* \"#utility.yul\":1469:1473   */\n      0x20\n        /* \"#utility.yul\":1464:1467   */\n      dup3\n        /* \"#utility.yul\":1460:1474   */\n      add\n        /* \"#utility.yul\":1445:1474   */\n      swap1\n      pop\n        /* \"#utility.yul\":1296:1480   */\n      swap3\n      swap2\n      pop\n      pop\n      jump\t// out\n        /* \"#utility.yul\":1486:1618   */\n    tag_110:\n        /* \"#utility.yul\":1553:1557   */\n      0x00\n        /* \"#utility.yul\":1576:1579   */\n      dup2\n        /* \"#utility.yul\":1568:1579   */\n      swap1\n      pop\n        /* \"#utility.yul\":1606:1610   */\n      0x20\n        /* \"#utility.yul\":1601:1604   */\n      dup3\n        /* \"#utility.yul\":1597:1611   */\n      add\n        /* \"#utility.yul\":1589:1611   */\n      swap1\n      pop\n        /* \"#utility.yul\":1486:1618   */\n      swap2\n      swap1\n      pop\n      jump\t// out\n        /* \"#utility.yul\":1624:1701   */\n    tag_111:\n        /* \"#utility.yul\":1661:1668   */\n      0x00\n        /* \"#utility.yul\":1690:1695   */\n      dup2\n        /* \"#utility.yul\":1679:1695   */\n      swap1\n      pop\n        /* \"#utility.yul\":1624:1701   */\n      swap2\n      swap1\n      pop\n      jump\t// out\n        /* \"#utility.yul\":1707:1815   */\n    tag_112:\n        /* \"#utility.yul\":1784:1808   */\n      tag_186\n        /* \"#utility.yul\":1802:1807   */\n      dup2\n        /* \"#utility.yul\":1784:1808   */\n      tag_111\n      jump\t// in\n    tag_186:\n        /* \"#utility.yul\":1779:1782   */\n      dup3\n        /* \"#utility.yul\":1772:1809   */\n      mstore\n        /* \"#utility.yul\":1707:1815   */\n      pop\n      pop\n      jump\t// out\n        /* \"#utility.yul\":1821:2000   */\n    tag_113:\n        /* \"#utility.yul\":1890:1900   */\n      0x00\n        /* \"#utility.yul\":1911:1957   */\n      tag_188\n        /* \"#utility.yul\":1953:1956   */\n      dup4\n        /* \"#utility.yul\":1945:1951   */\n      dup4\n        /* \"#utility.yul\":1911:1957   */\n      tag_112\n      jump\t// in\n    tag_188:\n        /* \"#utility.yul\":1989:1993   */\n      0x20\n        /* \"#utility.yul\":1984:1987   */\n      dup4\n        /* \"#utility.yul\":1980:1994   */\n      add\n        /* \"#utility.yul\":1966:1994   */\n      swap1\n      pop\n        /* \"#utility.yul\":1821:2000   */\n      swap3\n      swap2\n      pop\n      pop\n      jump\t// out\n        /* \"#utility.yul\":2006:2119   */\n    tag_114:\n        /* \"#utility.yul\":2076:2080   */\n      0x00\n        /* \"#utility.yul\":2108:2112   */\n      0x20\n        /* \"#utility.yul\":2103:2106   */\n      dup3\n        /* \"#utility.yul\":2099:2113   */\n      add\n        /* \"#utility.yul\":2091:2113   */\n      swap1\n      pop\n        /* \"#utility.yul\":2006:2119   */\n      swap2\n      swap1\n      pop\n      jump\t// out\n        /* \"#utility.yul\":2155:2887   */\n    tag_115:\n        /* \"#utility.yul\":2274:2277   */\n      0x00\n        /* \"#utility.yul\":2303:2357   */\n      tag_191\n        /* \"#utility.yul\":2351:2356   */\n      dup3\n        /* \"#utility.yul\":2303:2357   */\n      tag_108\n      jump\t// in\n    tag_191:\n        /* \"#utility.yul\":2373:2459   */\n      tag_192\n        /* \"#utility.yul\":2452:2458   */\n      dup2\n        /* \"#utility.yul\":2447:2450   */\n      dup6\n        /* \"#utility.yul\":2373:2459   */\n      tag_109\n      jump\t// in\n    tag_192:\n        /* \"#utility.yul\":2366:2459   */\n      swap4\n      pop\n        /* \"#utility.yul\":2483:2539   */\n      tag_193\n        /* \"#utility.yul\":2533:2538   */\n      dup4\n        /* \"#utility.yul\":2483:2539   */\n      tag_110\n      jump\t// in\n    tag_193:\n        /* \"#utility.yul\":2562:2569   */\n      dup1\n        /* \"#utility.yul\":2593:2594   */\n      0x00\n        /* \"#utility.yul\":2578:2862   */\n    tag_194:\n        /* \"#utility.yul\":2603:2609   */\n      dup4\n        /* \"#utility.yul\":2600:2601   */\n      dup2\n        /* \"#utility.yul\":2597:2610   */\n      lt\n        /* \"#utility.yul\":2578:2862   */\n      iszero\n      tag_196\n      jumpi\n        /* \"#utility.yul\":2679:2685   */\n      dup2\n        /* \"#utility.yul\":2673:2686   */\n      mload\n        /* \"#utility.yul\":2706:2769   */\n      tag_197\n        /* \"#utility.yul\":2765:2768   */\n      dup9\n        /* \"#utility.yul\":2750:2763   */\n      dup3\n        /* \"#utility.yul\":2706:2769   */\n      tag_113\n      jump\t// in\n    tag_197:\n        /* \"#utility.yul\":2699:2769   */\n      swap8\n      pop\n        /* \"#utility.yul\":2792:2852   */\n      tag_198\n        /* \"#utility.yul\":2845:2851   */\n      dup4\n        /* \"#utility.yul\":2792:2852   */\n      tag_114\n      jump\t// in\n    tag_198:\n        /* \"#utility.yul\":2782:2852   */\n      swap3\n      pop\n        /* \"#utility.yul\":2638:2862   */\n      pop\n        /* \"#utility.yul\":2625:2626   */\n      0x01\n        /* \"#utility.yul\":2622:2623   */\n      dup2\n        /* \"#utility.yul\":2618:2627   */\n      add\n        /* \"#utility.yul\":2613:2627   */\n      swap1\n      pop\n        /* \"#utility.yul\":2578:2862   */\n      jump(tag_194)\n    tag_196:\n        /* \"#utility.yul\":2582:2596   */\n      pop\n        /* \"#utility.yul\":2878:2881   */\n      dup6\n        /* \"#utility.yul\":2871:2881   */\n      swap4\n      pop\n        /* \"#utility.yul\":2279:2887   */\n      pop\n      pop\n      pop\n        /* \"#utility.yul\":2155:2887   */\n      swap3\n      swap2\n      pop\n      pop\n      jump\t// out\n        /* \"#utility.yul\":2893:3266   */\n    tag_14:\n        /* \"#utility.yul\":3036:3040   */\n      0x00\n        /* \"#utility.yul\":3074:3076   */\n      0x20\n        /* \"#utility.yul\":3063:3072   */\n      dup3\n        /* \"#utility.yul\":3059:3077   */\n      add\n        /* \"#utility.yul\":3051:3077   */\n      swap1\n      pop\n        /* \"#utility.yul\":3123:3132   */\n      dup2\n        /* \"#utility.yul\":3117:3121   */\n      dup2\n        /* \"#utility.yul\":3113:3133   */\n      sub\n        /* \"#utility.yul\":3109:3110   */\n      0x00\n        /* \"#utility.yul\":3098:3107   */\n      dup4\n        /* \"#utility.yul\":3094:3111   */\n      add\n        /* \"#utility.yul\":3087:3134   */\n      mstore\n        /* \"#utility.yul\":3151:3259   */\n      tag_200\n        /* \"#utility.yul\":3254:3258   */\n      dup2\n        /* \"#utility.yul\":3245:3251   */\n      dup5\n        /* \"#utility.yul\":3151:3259   */\n      tag_115\n      jump\t// in\n    tag_200:\n        /* \"#utility.yul\":3143:3259   */\n      swap1\n      pop\n        /* \"#utility.yul\":2893:3266   */\n      swap3\n      swap2\n      pop\n      pop\n      jump\t// out\n        /* \"#utility.yul\":3272:3394   */\n    tag_116:\n        /* \"#utility.yul\":3345:3369   */\n      tag_202\n        /* \"#utility.yul\":3363:3368   */\n      dup2\n        /* \"#utility.yul\":3345:3369   */\n      tag_111\n      jump\t// in\n    tag_202:\n        /* \"#utility.yul\":3338:3343   */\n      dup2\n        /* \"#utility.yul\":3335:3370   */\n      eq\n        /* \"#utility.yul\":3325:3388   */\n      tag_203\n      jumpi\n        /* \"#utility.yul\":3384:3385   */\n      0x00\n        /* \"#utility.yul\":3381:3382   */\n      dup1\n        /* \"#utility.yul\":3374:3386   */\n      revert\n        /* \"#utility.yul\":3325:3388   */\n    tag_203:\n        /* \"#utility.yul\":3272:3394   */\n      pop\n      jump\t// out\n        /* \"#utility.yul\":3400:3539   */\n    tag_117:\n        /* \"#utility.yul\":3446:3451   */\n      0x00\n        /* \"#utility.yul\":3484:3490   */\n      dup2\n        /* \"#utility.yul\":3471:3491   */\n      calldataload\n        /* \"#utility.yul\":3462:3491   */\n      swap1\n      pop\n        /* \"#utility.yul\":3500:3533   */\n      tag_205\n        /* \"#utility.yul\":3527:3532   */\n      dup2\n        /* \"#utility.yul\":3500:3533   */\n      tag_116\n      jump\t// in\n    tag_205:\n        /* \"#utility.yul\":3400:3539   */\n      swap3\n      swap2\n      pop\n      pop\n      jump\t// out\n        /* \"#utility.yul\":3545:4019   */\n    tag_17:\n        /* \"#utility.yul\":3613:3619   */\n      0x00\n        /* \"#utility.yul\":3621:3627   */\n      dup1\n        /* \"#utility.yul\":3670:3672   */\n      0x40\n        /* \"#utility.yul\":3658:3667   */\n      dup4\n        /* \"#utility.yul\":3649:3656   */\n      dup6\n        /* \"#utility.yul\":3645:3668   */\n      sub\n        /* \"#utility.yul\":3641:3673   */\n      slt\n        /* \"#utility.yul\":3638:3757   */\n      iszero\n      tag_207\n      jumpi\n        /* \"#utility.yul\":3676:3755   */\n      tag_208\n      tag_102\n      jump\t// in\n    tag_208:\n        /* \"#utility.yul\":3638:3757   */\n    tag_207:\n        /* \"#utility.yul\":3796:3797   */\n      0x00\n        /* \"#utility.yul\":3821:3874   */\n      tag_209\n        /* \"#utility.yul\":3866:3873   */\n      dup6\n        /* \"#utility.yul\":3857:3863   */\n      dup3\n        /* \"#utility.yul\":3846:3855   */\n      dup7\n        /* \"#utility.yul\":3842:3864   */\n      add\n        /* \"#utility.yul\":3821:3874   */\n      tag_117\n      jump\t// in\n    tag_209:\n        /* \"#utility.yul\":3811:3874   */\n      swap3\n      pop\n        /* \"#utility.yul\":3767:3884   */\n      pop\n        /* \"#utility.yul\":3923:3925   */\n      0x20\n        /* \"#utility.yul\":3949:4002   */\n      tag_210\n        /* \"#utility.yul\":3994:4001   */\n      dup6\n        /* \"#utility.yul\":3985:3991   */\n      dup3\n        /* \"#utility.yul\":3974:3983   */\n      dup7\n        /* \"#utility.yul\":3970:3992   */\n      add\n        /* \"#utility.yul\":3949:4002   */\n      tag_117\n      jump\t// in\n    tag_210:\n        /* \"#utility.yul\":3939:4002   */\n      swap2\n      pop\n        /* \"#utility.yul\":3894:4012   */\n      pop\n        /* \"#utility.yul\":3545:4019   */\n      swap3\n      pop\n      swap3\n      swap1\n      pop\n      jump\t// out\n        /* \"#utility.yul\":4025:4354   */\n    tag_21:\n        /* \"#utility.yul\":4084:4090   */\n      0x00\n        /* \"#utility.yul\":4133:4135   */\n      0x20\n        /* \"#utility.yul\":4121:4130   */\n      dup3\n        /* \"#utility.yul\":4112:4119   */\n      dup5\n        /* \"#utility.yul\":4108:4131   */\n      sub\n        /* \"#utility.yul\":4104:4136   */\n      slt\n        /* \"#utility.yul\":4101:4220   */\n      iszero\n      tag_212\n      jumpi\n        /* \"#utility.yul\":4139:4218   */\n      tag_213\n      tag_102\n      jump\t// in\n    tag_213:\n        /* \"#utility.yul\":4101:4220   */\n    tag_212:\n        /* \"#utility.yul\":4259:4260   */\n      0x00\n        /* \"#utility.yul\":4284:4337   */\n      tag_214\n        /* \"#utility.yul\":4329:4336   */\n      dup5\n        /* \"#utility.yul\":4320:4326   */\n      dup3\n        /* \"#utility.yul\":4309:4318   */\n      dup6\n        /* \"#utility.yul\":4305:4327   */\n      add\n        /* \"#utility.yul\":4284:4337   */\n      tag_117\n      jump\t// in\n    tag_214:\n        /* \"#utility.yul\":4274:4337   */\n      swap2\n      pop\n        /* \"#utility.yul\":4230:4347   */\n      pop\n        /* \"#utility.yul\":4025:4354   */\n      swap3\n      swap2\n      pop\n      pop\n      jump\t// out\n        /* \"#utility.yul\":4360:4468   */\n    tag_118:\n        /* \"#utility.yul\":4437:4461   */\n      tag_216\n        /* \"#utility.yul\":4455:4460   */\n      dup2\n        /* \"#utility.yul\":4437:4461   */\n      tag_105\n      jump\t// in\n    tag_216:\n        /* \"#utility.yul\":4432:4435   */\n      dup3\n        /* \"#utility.yul\":4425:4462   */\n      mstore\n        /* \"#utility.yul\":4360:4468   */\n      pop\n      pop\n      jump\t// out\n        /* \"#utility.yul\":4474:4573   */\n    tag_119:\n        /* \"#utility.yul\":4526:4532   */\n      0x00\n        /* \"#utility.yul\":4560:4565   */\n      dup2\n        /* \"#utility.yul\":4554:4566   */\n      mload\n        /* \"#utility.yul\":4544:4566   */\n      swap1\n      pop\n        /* \"#utility.yul\":4474:4573   */\n      swap2\n      swap1\n      pop\n      jump\t// out\n        /* \"#utility.yul\":4579:4738   */\n    tag_120:\n        /* \"#utility.yul\":4653:4664   */\n      0x00\n        /* \"#utility.yul\":4687:4693   */\n      dup3\n        /* \"#utility.yul\":4682:4685   */\n      dup3\n        /* \"#utility.yul\":4675:4694   */\n      mstore\n        /* \"#utility.yul\":4727:4731   */\n      0x20\n        /* \"#utility.yul\":4722:4725   */\n      dup3\n        /* \"#utility.yul\":4718:4732   */\n      add\n        /* \"#utility.yul\":4703:4732   */\n      swap1\n      pop\n        /* \"#utility.yul\":4579:4738   */\n      swap3\n      swap2\n      pop\n      pop\n      jump\t// out\n        /* \"#utility.yul\":4744:4883   */\n    tag_121:\n        /* \"#utility.yul\":4833:4839   */\n      dup3\n        /* \"#utility.yul\":4828:4831   */\n      dup2\n        /* \"#utility.yul\":4823:4826   */\n      dup4\n        /* \"#utility.yul\":4817:4840   */\n      mcopy\n        /* \"#utility.yul\":4874:4875   */\n      0x00\n        /* \"#utility.yul\":4865:4871   */\n      dup4\n        /* \"#utility.yul\":4860:4863   */\n      dup4\n        /* \"#utility.yul\":4856:4872   */\n      add\n        /* \"#utility.yul\":4849:4876   */\n      mstore\n        /* \"#utility.yul\":4744:4883   */\n      pop\n      pop\n      pop\n      jump\t// out\n        /* \"#utility.yul\":4889:4991   */\n    tag_122:\n        /* \"#utility.yul\":4930:4936   */\n      0x00\n        /* \"#utility.yul\":4981:4983   */\n      0x1f\n        /* \"#utility.yul\":4977:4984   */\n      not\n        /* \"#utility.yul\":4972:4974   */\n      0x1f\n        /* \"#utility.yul\":4965:4970   */\n      dup4\n        /* \"#utility.yul\":4961:4975   */\n      add\n        /* \"#utility.yul\":4957:4985   */\n      and\n        /* \"#utility.yul\":4947:4985   */\n      swap1\n      pop\n        /* \"#utility.yul\":4889:4991   */\n      swap2\n      swap1\n      pop\n      jump\t// out\n        /* \"#utility.yul\":4997:5354   */\n    tag_123:\n        /* \"#utility.yul\":5075:5078   */\n      0x00\n        /* \"#utility.yul\":5103:5142   */\n      tag_222\n        /* \"#utility.yul\":5136:5141   */\n      dup3\n        /* \"#utility.yul\":5103:5142   */\n      tag_119\n      jump\t// in\n    tag_222:\n        /* \"#utility.yul\":5158:5219   */\n      tag_223\n        /* \"#utility.yul\":5212:5218   */\n      dup2\n        /* \"#utility.yul\":5207:5210   */\n      dup6\n        /* \"#utility.yul\":5158:5219   */\n      tag_120\n      jump\t// in\n    tag_223:\n        /* \"#utility.yul\":5151:5219   */\n      swap4\n      pop\n        /* \"#utility.yul\":5228:5293   */\n      tag_224\n        /* \"#utility.yul\":5286:5292   */\n      dup2\n        /* \"#utility.yul\":5281:5284   */\n      dup6\n        /* \"#utility.yul\":5274:5278   */\n      0x20\n        /* \"#utility.yul\":5267:5272   */\n      dup7\n        /* \"#utility.yul\":5263:5279   */\n      add\n        /* \"#utility.yul\":5228:5293   */\n      tag_121\n      jump\t// in\n    tag_224:\n        /* \"#utility.yul\":5318:5347   */\n      tag_225\n        /* \"#utility.yul\":5340:5346   */\n      dup2\n        /* \"#utility.yul\":5318:5347   */\n      tag_122\n      jump\t// in\n    tag_225:\n        /* \"#utility.yul\":5313:5316   */\n      dup5\n        /* \"#utility.yul\":5309:5348   */\n      add\n        /* \"#utility.yul\":5302:5348   */\n      swap2\n      pop\n        /* \"#utility.yul\":5079:5354   */\n      pop\n        /* \"#utility.yul\":4997:5354   */\n      swap3\n      swap2\n      pop\n      pop\n      jump\t// out\n        /* \"#utility.yul\":5440:7288   */\n    tag_124:\n        /* \"#utility.yul\":5555:5558   */\n      0x00\n        /* \"#utility.yul\":5591:5597   */\n      0x0100\n        /* \"#utility.yul\":5586:5589   */\n      dup4\n        /* \"#utility.yul\":5582:5598   */\n      add\n        /* \"#utility.yul\":5685:5689   */\n      0x00\n        /* \"#utility.yul\":5678:5683   */\n      dup4\n        /* \"#utility.yul\":5674:5690   */\n      add\n        /* \"#utility.yul\":5668:5691   */\n      mload\n        /* \"#utility.yul\":5704:5767   */\n      tag_227\n        /* \"#utility.yul\":5761:5765   */\n      0x00\n        /* \"#utility.yul\":5756:5759   */\n      dup7\n        /* \"#utility.yul\":5752:5766   */\n      add\n        /* \"#utility.yul\":5738:5750   */\n      dup3\n        /* \"#utility.yul\":5704:5767   */\n      tag_112\n      jump\t// in\n    tag_227:\n        /* \"#utility.yul\":5608:5777   */\n      pop\n        /* \"#utility.yul\":5861:5865   */\n      0x20\n        /* \"#utility.yul\":5854:5859   */\n      dup4\n        /* \"#utility.yul\":5850:5866   */\n      add\n        /* \"#utility.yul\":5844:5867   */\n      mload\n        /* \"#utility.yul\":5880:5943   */\n      tag_228\n        /* \"#utility.yul\":5937:5941   */\n      0x20\n        /* \"#utility.yul\":5932:5935   */\n      dup7\n        /* \"#utility.yul\":5928:5942   */\n      add\n        /* \"#utility.yul\":5914:5926   */\n      dup3\n        /* \"#utility.yul\":5880:5943   */\n      tag_118\n      jump\t// in\n    tag_228:\n        /* \"#utility.yul\":5787:5953   */\n      pop\n        /* \"#utility.yul\":6035:6039   */\n      0x40\n        /* \"#utility.yul\":6028:6033   */\n      dup4\n        /* \"#utility.yul\":6024:6040   */\n      add\n        /* \"#utility.yul\":6018:6041   */\n      mload\n        /* \"#utility.yul\":6088:6091   */\n      dup5\n        /* \"#utility.yul\":6082:6086   */\n      dup3\n        /* \"#utility.yul\":6078:6092   */\n      sub\n        /* \"#utility.yul\":6071:6075   */\n      0x40\n        /* \"#utility.yul\":6066:6069   */\n      dup7\n        /* \"#utility.yul\":6062:6076   */\n      add\n        /* \"#utility.yul\":6055:6093   */\n      mstore\n        /* \"#utility.yul\":6114:6187   */\n      tag_229\n        /* \"#utility.yul\":6182:6186   */\n      dup3\n        /* \"#utility.yul\":6168:6180   */\n      dup3\n        /* \"#utility.yul\":6114:6187   */\n      tag_123\n      jump\t// in\n    tag_229:\n        /* \"#utility.yul\":6106:6187   */\n      swap2\n      pop\n        /* \"#utility.yul\":5963:6198   */\n      pop\n        /* \"#utility.yul\":6284:6288   */\n      0x60\n        /* \"#utility.yul\":6277:6282   */\n      dup4\n        /* \"#utility.yul\":6273:6289   */\n      add\n        /* \"#utility.yul\":6267:6290   */\n      mload\n        /* \"#utility.yul\":6303:6366   */\n      tag_230\n        /* \"#utility.yul\":6360:6364   */\n      0x60\n        /* \"#utility.yul\":6355:6358   */\n      dup7\n        /* \"#utility.yul\":6351:6365   */\n      add\n        /* \"#utility.yul\":6337:6349   */\n      dup3\n        /* \"#utility.yul\":6303:6366   */\n      tag_112\n      jump\t// in\n    tag_230:\n        /* \"#utility.yul\":6208:6376   */\n      pop\n        /* \"#utility.yul\":6459:6463   */\n      0x80\n        /* \"#utility.yul\":6452:6457   */\n      dup4\n        /* \"#utility.yul\":6448:6464   */\n      add\n        /* \"#utility.yul\":6442:6465   */\n      mload\n        /* \"#utility.yul\":6478:6541   */\n      tag_231\n        /* \"#utility.yul\":6535:6539   */\n      0x80\n        /* \"#utility.yul\":6530:6533   */\n      dup7\n        /* \"#utility.yul\":6526:6540   */\n      add\n        /* \"#utility.yul\":6512:6524   */\n      dup3\n        /* \"#utility.yul\":6478:6541   */\n      tag_112\n      jump\t// in\n    tag_231:\n        /* \"#utility.yul\":6386:6551   */\n      pop\n        /* \"#utility.yul\":6650:6654   */\n      0xa0\n        /* \"#utility.yul\":6643:6648   */\n      dup4\n        /* \"#utility.yul\":6639:6655   */\n      add\n        /* \"#utility.yul\":6633:6656   */\n      mload\n        /* \"#utility.yul\":6703:6706   */\n      dup5\n        /* \"#utility.yul\":6697:6701   */\n      dup3\n        /* \"#utility.yul\":6693:6707   */\n      sub\n        /* \"#utility.yul\":6686:6690   */\n      0xa0\n        /* \"#utility.yul\":6681:6684   */\n      dup7\n        /* \"#utility.yul\":6677:6691   */\n      add\n        /* \"#utility.yul\":6670:6708   */\n      mstore\n        /* \"#utility.yul\":6729:6802   */\n      tag_232\n        /* \"#utility.yul\":6797:6801   */\n      dup3\n        /* \"#utility.yul\":6783:6795   */\n      dup3\n        /* \"#utility.yul\":6729:6802   */\n      tag_123\n      jump\t// in\n    tag_232:\n        /* \"#utility.yul\":6721:6802   */\n      swap2\n      pop\n        /* \"#utility.yul\":6561:6813   */\n      pop\n        /* \"#utility.yul\":6907:6911   */\n      0xc0\n        /* \"#utility.yul\":6900:6905   */\n      dup4\n        /* \"#utility.yul\":6896:6912   */\n      add\n        /* \"#utility.yul\":6890:6913   */\n      mload\n        /* \"#utility.yul\":6960:6963   */\n      dup5\n        /* \"#utility.yul\":6954:6958   */\n      dup3\n        /* \"#utility.yul\":6950:6964   */\n      sub\n        /* \"#utility.yul\":6943:6947   */\n      0xc0\n        /* \"#utility.yul\":6938:6941   */\n      dup7\n        /* \"#utility.yul\":6934:6948   */\n      add\n        /* \"#utility.yul\":6927:6965   */\n      mstore\n        /* \"#utility.yul\":6986:7059   */\n      tag_233\n        /* \"#utility.yul\":7054:7058   */\n      dup3\n        /* \"#utility.yul\":7040:7052   */\n      dup3\n        /* \"#utility.yul\":6986:7059   */\n      tag_123\n      jump\t// in\n    tag_233:\n        /* \"#utility.yul\":6978:7059   */\n      swap2\n      pop\n        /* \"#utility.yul\":6823:7070   */\n      pop\n        /* \"#utility.yul\":7169:7173   */\n      0xe0\n        /* \"#utility.yul\":7162:7167   */\n      dup4\n        /* \"#utility.yul\":7158:7174   */\n      add\n        /* \"#utility.yul\":7152:7175   */\n      mload\n        /* \"#utility.yul\":7188:7251   */\n      tag_234\n        /* \"#utility.yul\":7245:7249   */\n      0xe0\n        /* \"#utility.yul\":7240:7243   */\n      dup7\n        /* \"#utility.yul\":7236:7250   */\n      add\n        /* \"#utility.yul\":7222:7234   */\n      dup3\n        /* \"#utility.yul\":7188:7251   */\n      tag_112\n      jump\t// in\n    tag_234:\n        /* \"#utility.yul\":7080:7261   */\n      pop\n        /* \"#utility.yul\":7278:7282   */\n      dup1\n        /* \"#utility.yul\":7271:7282   */\n      swap2\n      pop\n        /* \"#utility.yul\":5560:7288   */\n      pop\n        /* \"#utility.yul\":5440:7288   */\n      swap3\n      swap2\n      pop\n      pop\n      jump\t// out\n        /* \"#utility.yul\":7294:7659   */\n    tag_24:\n        /* \"#utility.yul\":7433:7437   */\n      0x00\n        /* \"#utility.yul\":7471:7473   */\n      0x20\n        /* \"#utility.yul\":7460:7469   */\n      dup3\n        /* \"#utility.yul\":7456:7474   */\n      add\n        /* \"#utility.yul\":7448:7474   */\n      swap1\n      pop\n        /* \"#utility.yul\":7520:7529   */\n      dup2\n        /* \"#utility.yul\":7514:7518   */\n      dup2\n        /* \"#utility.yul\":7510:7530   */\n      sub\n        /* \"#utility.yul\":7506:7507   */\n      0x00\n        /* \"#utility.yul\":7495:7504   */\n      dup4\n        /* \"#utility.yul\":7491:7508   */\n      add\n        /* \"#utility.yul\":7484:7531   */\n      mstore\n        /* \"#utility.yul\":7548:7652   */\n      tag_236\n        /* \"#utility.yul\":7647:7651   */\n      dup2\n        /* \"#utility.yul\":7638:7644   */\n      dup5\n        /* \"#utility.yul\":7548:7652   */\n      tag_124\n      jump\t// in\n    tag_236:\n        /* \"#utility.yul\":7540:7652   */\n      swap1\n      pop\n        /* \"#utility.yul\":7294:7659   */\n      swap3\n      swap2\n      pop\n      pop\n      jump\t// out\n        /* \"#utility.yul\":7665:7782   */\n    tag_125:\n        /* \"#utility.yul\":7774:7775   */\n      0x00\n        /* \"#utility.yul\":7771:7772   */\n      dup1\n        /* \"#utility.yul\":7764:7776   */\n      revert\n        /* \"#utility.yul\":7788:7905   */\n    tag_126:\n        /* \"#utility.yul\":7897:7898   */\n      0x00\n        /* \"#utility.yul\":7894:7895   */\n      dup1\n        /* \"#utility.yul\":7887:7899   */\n      revert\n        /* \"#utility.yul\":7911:8091   */\n    tag_127:\n        /* \"#utility.yul\":7959:8036   */\n      0x4e487b7100000000000000000000000000000000000000000000000000000000\n        /* \"#utility.yul\":7956:7957   */\n      0x00\n        /* \"#utility.yul\":7949:8037   */\n      mstore\n        /* \"#utility.yul\":8056:8060   */\n      0x41\n        /* \"#utility.yul\":8053:8054   */\n      0x04\n        /* \"#utility.yul\":8046:8061   */\n      mstore\n        /* \"#utility.yul\":8080:8084   */\n      0x24\n        /* \"#utility.yul\":8077:8078   */\n      0x00\n        /* \"#utility.yul\":8070:8085   */\n      revert\n        /* \"#utility.yul\":8097:8378   */\n    tag_128:\n        /* \"#utility.yul\":8180:8207   */\n      tag_241\n        /* \"#utility.yul\":8202:8206   */\n      dup3\n        /* \"#utility.yul\":8180:8207   */\n      tag_122\n      jump\t// in\n    tag_241:\n        /* \"#utility.yul\":8172:8178   */\n      dup2\n        /* \"#utility.yul\":8168:8208   */\n      add\n        /* \"#utility.yul\":8310:8316   */\n      dup2\n        /* \"#utility.yul\":8298:8308   */\n      dup2\n        /* \"#utility.yul\":8295:8317   */\n      lt\n        /* \"#utility.yul\":8274:8292   */\n      0xffffffffffffffff\n        /* \"#utility.yul\":8262:8272   */\n      dup3\n        /* \"#utility.yul\":8259:8293   */\n      gt\n        /* \"#utility.yul\":8256:8318   */\n      or\n        /* \"#utility.yul\":8253:8341   */\n      iszero\n      tag_242\n      jumpi\n        /* \"#utility.yul\":8321:8339   */\n      tag_243\n      tag_127\n      jump\t// in\n    tag_243:\n        /* \"#utility.yul\":8253:8341   */\n    tag_242:\n        /* \"#utility.yul\":8361:8371   */\n      dup1\n        /* \"#utility.yul\":8357:8359   */\n      0x40\n        /* \"#utility.yul\":8350:8372   */\n      mstore\n        /* \"#utility.yul\":8140:8378   */\n      pop\n        /* \"#utility.yul\":8097:8378   */\n      pop\n      pop\n      jump\t// out\n        /* \"#utility.yul\":8384:8513   */\n    tag_129:\n        /* \"#utility.yul\":8418:8424   */\n      0x00\n        /* \"#utility.yul\":8445:8465   */\n      tag_245\n      tag_101\n      jump\t// in\n    tag_245:\n        /* \"#utility.yul\":8435:8465   */\n      swap1\n      pop\n        /* \"#utility.yul\":8474:8507   */\n      tag_246\n        /* \"#utility.yul\":8502:8506   */\n      dup3\n        /* \"#utility.yul\":8494:8500   */\n      dup3\n        /* \"#utility.yul\":8474:8507   */\n      tag_128\n      jump\t// in\n    tag_246:\n        /* \"#utility.yul\":8384:8513   */\n      swap2\n      swap1\n      pop\n      jump\t// out\n        /* \"#utility.yul\":8519:8827   */\n    tag_130:\n        /* \"#utility.yul\":8581:8585   */\n      0x00\n        /* \"#utility.yul\":8671:8689   */\n      0xffffffffffffffff\n        /* \"#utility.yul\":8663:8669   */\n      dup3\n        /* \"#utility.yul\":8660:8690   */\n      gt\n        /* \"#utility.yul\":8657:8713   */\n      iszero\n      tag_248\n      jumpi\n        /* \"#utility.yul\":8693:8711   */\n      tag_249\n      tag_127\n      jump\t// in\n    tag_249:\n        /* \"#utility.yul\":8657:8713   */\n    tag_248:\n        /* \"#utility.yul\":8731:8760   */\n      tag_250\n        /* \"#utility.yul\":8753:8759   */\n      dup3\n        /* \"#utility.yul\":8731:8760   */\n      tag_122\n      jump\t// in\n    tag_250:\n        /* \"#utility.yul\":8723:8760   */\n      swap1\n      pop\n        /* \"#utility.yul\":8815:8819   */\n      0x20\n        /* \"#utility.yul\":8809:8813   */\n      dup2\n        /* \"#utility.yul\":8805:8820   */\n      add\n        /* \"#utility.yul\":8797:8820   */\n      swap1\n      pop\n        /* \"#utility.yul\":8519:8827   */\n      swap2\n      swap1\n      pop\n      jump\t// out\n        /* \"#utility.yul\":8833:8981   */\n    tag_131:\n        /* \"#utility.yul\":8931:8937   */\n      dup3\n        /* \"#utility.yul\":8926:8929   */\n      dup2\n        /* \"#utility.yul\":8921:8924   */\n      dup4\n        /* \"#utility.yul\":8908:8938   */\n      calldatacopy\n        /* \"#utility.yul\":8972:8973   */\n      0x00\n        /* \"#utility.yul\":8963:8969   */\n      dup4\n        /* \"#utility.yul\":8958:8961   */\n      dup4\n        /* \"#utility.yul\":8954:8970   */\n      add\n        /* \"#utility.yul\":8947:8974   */\n      mstore\n        /* \"#utility.yul\":8833:8981   */\n      pop\n      pop\n      pop\n      jump\t// out\n        /* \"#utility.yul\":8987:9412   */\n    tag_132:\n        /* \"#utility.yul\":9065:9070   */\n      0x00\n        /* \"#utility.yul\":9090:9156   */\n      tag_253\n        /* \"#utility.yul\":9106:9155   */\n      tag_254\n        /* \"#utility.yul\":9148:9154   */\n      dup5\n        /* \"#utility.yul\":9106:9155   */\n      tag_130\n      jump\t// in\n    tag_254:\n        /* \"#utility.yul\":9090:9156   */\n      tag_129\n      jump\t// in\n    tag_253:\n        /* \"#utility.yul\":9081:9156   */\n      swap1\n      pop\n        /* \"#utility.yul\":9179:9185   */\n      dup3\n        /* \"#utility.yul\":9172:9177   */\n      dup2\n        /* \"#utility.yul\":9165:9186   */\n      mstore\n        /* \"#utility.yul\":9217:9221   */\n      0x20\n        /* \"#utility.yul\":9210:9215   */\n      dup2\n        /* \"#utility.yul\":9206:9222   */\n      add\n        /* \"#utility.yul\":9255:9258   */\n      dup5\n        /* \"#utility.yul\":9246:9252   */\n      dup5\n        /* \"#utility.yul\":9241:9244   */\n      dup5\n        /* \"#utility.yul\":9237:9253   */\n      add\n        /* \"#utility.yul\":9234:9259   */\n      gt\n        /* \"#utility.yul\":9231:9343   */\n      iszero\n      tag_255\n      jumpi\n        /* \"#utility.yul\":9262:9341   */\n      tag_256\n      tag_126\n      jump\t// in\n    tag_256:\n        /* \"#utility.yul\":9231:9343   */\n    tag_255:\n        /* \"#utility.yul\":9352:9406   */\n      tag_257\n        /* \"#utility.yul\":9399:9405   */\n      dup5\n        /* \"#utility.yul\":9394:9397   */\n      dup3\n        /* \"#utility.yul\":9389:9392   */\n      dup6\n        /* \"#utility.yul\":9352:9406   */\n      tag_131\n      jump\t// in\n    tag_257:\n        /* \"#utility.yul\":9071:9412   */\n      pop\n        /* \"#utility.yul\":8987:9412   */\n      swap4\n      swap3\n      pop\n      pop\n      pop\n      jump\t// out\n        /* \"#utility.yul\":9432:9772   */\n    tag_133:\n        /* \"#utility.yul\":9488:9493   */\n      0x00\n        /* \"#utility.yul\":9537:9540   */\n      dup3\n        /* \"#utility.yul\":9530:9534   */\n      0x1f\n        /* \"#utility.yul\":9522:9528   */\n      dup4\n        /* \"#utility.yul\":9518:9535   */\n      add\n        /* \"#utility.yul\":9514:9541   */\n      slt\n        /* \"#utility.yul\":9504:9626   */\n      tag_259\n      jumpi\n        /* \"#utility.yul\":9545:9624   */\n      tag_260\n      tag_125\n      jump\t// in\n    tag_260:\n        /* \"#utility.yul\":9504:9626   */\n    tag_259:\n        /* \"#utility.yul\":9662:9668   */\n      dup2\n        /* \"#utility.yul\":9649:9669   */\n      calldataload\n        /* \"#utility.yul\":9687:9766   */\n      tag_261\n        /* \"#utility.yul\":9762:9765   */\n      dup5\n        /* \"#utility.yul\":9754:9760   */\n      dup3\n        /* \"#utility.yul\":9747:9751   */\n      0x20\n        /* \"#utility.yul\":9739:9745   */\n      dup7\n        /* \"#utility.yul\":9735:9752   */\n      add\n        /* \"#utility.yul\":9687:9766   */\n      tag_132\n      jump\t// in\n    tag_261:\n        /* \"#utility.yul\":9678:9766   */\n      swap2\n      pop\n        /* \"#utility.yul\":9494:9772   */\n      pop\n        /* \"#utility.yul\":9432:9772   */\n      swap3\n      swap2\n      pop\n      pop\n      jump\t// out\n        /* \"#utility.yul\":9778:11229   */\n    tag_27:\n        /* \"#utility.yul\":9903:9909   */\n      0x00\n        /* \"#utility.yul\":9911:9917   */\n      dup1\n        /* \"#utility.yul\":9919:9925   */\n      0x00\n        /* \"#utility.yul\":9927:9933   */\n      dup1\n        /* \"#utility.yul\":9935:9941   */\n      0x00\n        /* \"#utility.yul\":9984:9987   */\n      0xa0\n        /* \"#utility.yul\":9972:9981   */\n      dup7\n        /* \"#utility.yul\":9963:9970   */\n      dup9\n        /* \"#utility.yul\":9959:9982   */\n      sub\n        /* \"#utility.yul\":9955:9988   */\n      slt\n        /* \"#utility.yul\":9952:10072   */\n      iszero\n      tag_263\n      jumpi\n        /* \"#utility.yul\":9991:10070   */\n      tag_264\n      tag_102\n      jump\t// in\n    tag_264:\n        /* \"#utility.yul\":9952:10072   */\n    tag_263:\n        /* \"#utility.yul\":10139:10140   */\n      0x00\n        /* \"#utility.yul\":10128:10137   */\n      dup7\n        /* \"#utility.yul\":10124:10141   */\n      add\n        /* \"#utility.yul\":10111:10142   */\n      calldataload\n        /* \"#utility.yul\":10169:10187   */\n      0xffffffffffffffff\n        /* \"#utility.yul\":10161:10167   */\n      dup2\n        /* \"#utility.yul\":10158:10188   */\n      gt\n        /* \"#utility.yul\":10155:10272   */\n      iszero\n      tag_265\n      jumpi\n        /* \"#utility.yul\":10191:10270   */\n      tag_266\n      tag_103\n      jump\t// in\n    tag_266:\n        /* \"#utility.yul\":10155:10272   */\n    tag_265:\n        /* \"#utility.yul\":10296:10359   */\n      tag_267\n        /* \"#utility.yul\":10351:10358   */\n      dup9\n        /* \"#utility.yul\":10342:10348   */\n      dup3\n        /* \"#utility.yul\":10331:10340   */\n      dup10\n        /* \"#utility.yul\":10327:10349   */\n      add\n        /* \"#utility.yul\":10296:10359   */\n      tag_133\n      jump\t// in\n    tag_267:\n        /* \"#utility.yul\":10286:10359   */\n      swap6\n      pop\n        /* \"#utility.yul\":10082:10369   */\n      pop\n        /* \"#utility.yul\":10408:10410   */\n      0x20\n        /* \"#utility.yul\":10434:10487   */\n      tag_268\n        /* \"#utility.yul\":10479:10486   */\n      dup9\n        /* \"#utility.yul\":10470:10476   */\n      dup3\n        /* \"#utility.yul\":10459:10468   */\n      dup10\n        /* \"#utility.yul\":10455:10477   */\n      add\n        /* \"#utility.yul\":10434:10487   */\n      tag_117\n      jump\t// in\n    tag_268:\n        /* \"#utility.yul\":10424:10487   */\n      swap5\n      pop\n        /* \"#utility.yul\":10379:10497   */\n      pop\n        /* \"#utility.yul\":10536:10538   */\n      0x40\n        /* \"#utility.yul\":10562:10615   */\n      tag_269\n        /* \"#utility.yul\":10607:10614   */\n      dup9\n        /* \"#utility.yul\":10598:10604   */\n      dup3\n        /* \"#utility.yul\":10587:10596   */\n      dup10\n        /* \"#utility.yul\":10583:10605   */\n      add\n        /* \"#utility.yul\":10562:10615   */\n      tag_117\n      jump\t// in\n    tag_269:\n        /* \"#utility.yul\":10552:10615   */\n      swap4\n      pop\n        /* \"#utility.yul\":10507:10625   */\n      pop\n        /* \"#utility.yul\":10692:10694   */\n      0x60\n        /* \"#utility.yul\":10681:10690   */\n      dup7\n        /* \"#utility.yul\":10677:10695   */\n      add\n        /* \"#utility.yul\":10664:10696   */\n      calldataload\n        /* \"#utility.yul\":10723:10741   */\n      0xffffffffffffffff\n        /* \"#utility.yul\":10715:10721   */\n      dup2\n        /* \"#utility.yul\":10712:10742   */\n      gt\n        /* \"#utility.yul\":10709:10826   */\n      iszero\n      tag_270\n      jumpi\n        /* \"#utility.yul\":10745:10824   */\n      tag_271\n      tag_103\n      jump\t// in\n    tag_271:\n        /* \"#utility.yul\":10709:10826   */\n    tag_270:\n        /* \"#utility.yul\":10850:10913   */\n      tag_272\n        /* \"#utility.yul\":10905:10912   */\n      dup9\n        /* \"#utility.yul\":10896:10902   */\n      dup3\n        /* \"#utility.yul\":10885:10894   */\n      dup10\n        /* \"#utility.yul\":10881:10903   */\n      add\n        /* \"#utility.yul\":10850:10913   */\n      tag_133\n      jump\t// in\n    tag_272:\n        /* \"#utility.yul\":10840:10913   */\n      swap3\n      pop\n        /* \"#utility.yul\":10635:10923   */\n      pop\n        /* \"#utility.yul\":10990:10993   */\n      0x80\n        /* \"#utility.yul\":10979:10988   */\n      dup7\n        /* \"#utility.yul\":10975:10994   */\n      add\n        /* \"#utility.yul\":10962:10995   */\n      calldataload\n        /* \"#utility.yul\":11022:11040   */\n      0xffffffffffffffff\n        /* \"#utility.yul\":11014:11020   */\n      dup2\n        /* \"#utility.yul\":11011:11041   */\n      gt\n        /* \"#utility.yul\":11008:11125   */\n      iszero\n      tag_273\n      jumpi\n        /* \"#utility.yul\":11044:11123   */\n      tag_274\n      tag_103\n      jump\t// in\n    tag_274:\n        /* \"#utility.yul\":11008:11125   */\n    tag_273:\n        /* \"#utility.yul\":11149:11212   */\n      tag_275\n        /* \"#utility.yul\":11204:11211   */\n      dup9\n        /* \"#utility.yul\":11195:11201   */\n      dup3\n        /* \"#utility.yul\":11184:11193   */\n      dup10\n        /* \"#utility.yul\":11180:11202   */\n      add\n        /* \"#utility.yul\":11149:11212   */\n      tag_133\n      jump\t// in\n    tag_275:\n        /* \"#utility.yul\":11139:11212   */\n      swap2\n      pop\n        /* \"#utility.yul\":10933:11222   */\n      pop\n        /* \"#utility.yul\":9778:11229   */\n      swap3\n      swap6\n      pop\n      swap3\n      swap6\n      swap1\n      swap4\n      pop\n      jump\t// out\n        /* \"#utility.yul\":11235:11353   */\n    tag_134:\n        /* \"#utility.yul\":11322:11346   */\n      tag_277\n        /* \"#utility.yul\":11340:11345   */\n      dup2\n        /* \"#utility.yul\":11322:11346   */\n      tag_111\n      jump\t// in\n    tag_277:\n        /* \"#utility.yul\":11317:11320   */\n      dup3\n        /* \"#utility.yul\":11310:11347   */\n      mstore\n        /* \"#utility.yul\":11235:11353   */\n      pop\n      pop\n      jump\t// out\n        /* \"#utility.yul\":11359:11581   */\n    tag_30:\n        /* \"#utility.yul\":11452:11456   */\n      0x00\n        /* \"#utility.yul\":11490:11492   */\n      0x20\n        /* \"#utility.yul\":11479:11488   */\n      dup3\n        /* \"#utility.yul\":11475:11493   */\n      add\n        /* \"#utility.yul\":11467:11493   */\n      swap1\n      pop\n        /* \"#utility.yul\":11503:11574   */\n      tag_279\n        /* \"#utility.yul\":11571:11572   */\n      0x00\n        /* \"#utility.yul\":11560:11569   */\n      dup4\n        /* \"#utility.yul\":11556:11573   */\n      add\n        /* \"#utility.yul\":11547:11553   */\n      dup5\n        /* \"#utility.yul\":11503:11574   */\n      tag_134\n      jump\t// in\n    tag_279:\n        /* \"#utility.yul\":11359:11581   */\n      swap3\n      swap2\n      pop\n      pop\n      jump\t// out\n        /* \"#utility.yul\":11587:11705   */\n    tag_135:\n        /* \"#utility.yul\":11674:11698   */\n      tag_281\n        /* \"#utility.yul\":11692:11697   */\n      dup2\n        /* \"#utility.yul\":11674:11698   */\n      tag_105\n      jump\t// in\n    tag_281:\n        /* \"#utility.yul\":11669:11672   */\n      dup3\n        /* \"#utility.yul\":11662:11699   */\n      mstore\n        /* \"#utility.yul\":11587:11705   */\n      pop\n      pop\n      jump\t// out\n        /* \"#utility.yul\":11711:11880   */\n    tag_136:\n        /* \"#utility.yul\":11795:11806   */\n      0x00\n        /* \"#utility.yul\":11829:11835   */\n      dup3\n        /* \"#utility.yul\":11824:11827   */\n      dup3\n        /* \"#utility.yul\":11817:11836   */\n      mstore\n        /* \"#utility.yul\":11869:11873   */\n      0x20\n        /* \"#utility.yul\":11864:11867   */\n      dup3\n        /* \"#utility.yul\":11860:11874   */\n      add\n        /* \"#utility.yul\":11845:11874   */\n      swap1\n      pop\n        /* \"#utility.yul\":11711:11880   */\n      swap3\n      swap2\n      pop\n      pop\n      jump\t// out\n        /* \"#utility.yul\":11886:12263   */\n    tag_137:\n        /* \"#utility.yul\":11974:11977   */\n      0x00\n        /* \"#utility.yul\":12002:12041   */\n      tag_284\n        /* \"#utility.yul\":12035:12040   */\n      dup3\n        /* \"#utility.yul\":12002:12041   */\n      tag_119\n      jump\t// in\n    tag_284:\n        /* \"#utility.yul\":12057:12128   */\n      tag_285\n        /* \"#utility.yul\":12121:12127   */\n      dup2\n        /* \"#utility.yul\":12116:12119   */\n      dup6\n        /* \"#utility.yul\":12057:12128   */\n      tag_136\n      jump\t// in\n    tag_285:\n        /* \"#utility.yul\":12050:12128   */\n      swap4\n      pop\n        /* \"#utility.yul\":12137:12202   */\n      tag_286\n        /* \"#utility.yul\":12195:12201   */\n      dup2\n        /* \"#utility.yul\":12190:12193   */\n      dup6\n        /* \"#utility.yul\":12183:12187   */\n      0x20\n        /* \"#utility.yul\":12176:12181   */\n      dup7\n        /* \"#utility.yul\":12172:12188   */\n      add\n        /* \"#utility.yul\":12137:12202   */\n      tag_121\n      jump\t// in\n    tag_286:\n        /* \"#utility.yul\":12227:12256   */\n      tag_287\n        /* \"#utility.yul\":12249:12255   */\n      dup2\n        /* \"#utility.yul\":12227:12256   */\n      tag_122\n      jump\t// in\n    tag_287:\n        /* \"#utility.yul\":12222:12225   */\n      dup5\n        /* \"#utility.yul\":12218:12257   */\n      add\n        /* \"#utility.yul\":12211:12257   */\n      swap2\n      pop\n        /* \"#utility.yul\":11978:12263   */\n      pop\n        /* \"#utility.yul\":11886:12263   */\n      swap3\n      swap2\n      pop\n      pop\n      jump\t// out\n        /* \"#utility.yul\":12269:13539   */\n    tag_35:\n        /* \"#utility.yul\":12618:12622   */\n      0x00\n        /* \"#utility.yul\":12656:12659   */\n      0x0100\n        /* \"#utility.yul\":12645:12654   */\n      dup3\n        /* \"#utility.yul\":12641:12660   */\n      add\n        /* \"#utility.yul\":12633:12660   */\n      swap1\n      pop\n        /* \"#utility.yul\":12670:12741   */\n      tag_289\n        /* \"#utility.yul\":12738:12739   */\n      0x00\n        /* \"#utility.yul\":12727:12736   */\n      dup4\n        /* \"#utility.yul\":12723:12740   */\n      add\n        /* \"#utility.yul\":12714:12720   */\n      dup12\n        /* \"#utility.yul\":12670:12741   */\n      tag_134\n      jump\t// in\n    tag_289:\n        /* \"#utility.yul\":12751:12823   */\n      tag_290\n        /* \"#utility.yul\":12819:12821   */\n      0x20\n        /* \"#utility.yul\":12808:12817   */\n      dup4\n        /* \"#utility.yul\":12804:12822   */\n      add\n        /* \"#utility.yul\":12795:12801   */\n      dup11\n        /* \"#utility.yul\":12751:12823   */\n      tag_135\n      jump\t// in\n    tag_290:\n        /* \"#utility.yul\":12870:12879   */\n      dup2\n        /* \"#utility.yul\":12864:12868   */\n      dup2\n        /* \"#utility.yul\":12860:12880   */\n      sub\n        /* \"#utility.yul\":12855:12857   */\n      0x40\n        /* \"#utility.yul\":12844:12853   */\n      dup4\n        /* \"#utility.yul\":12840:12858   */\n      add\n        /* \"#utility.yul\":12833:12881   */\n      mstore\n        /* \"#utility.yul\":12898:12976   */\n      tag_291\n        /* \"#utility.yul\":12971:12975   */\n      dup2\n        /* \"#utility.yul\":12962:12968   */\n      dup10\n        /* \"#utility.yul\":12898:12976   */\n      tag_137\n      jump\t// in\n    tag_291:\n        /* \"#utility.yul\":12890:12976   */\n      swap1\n      pop\n        /* \"#utility.yul\":12986:13058   */\n      tag_292\n        /* \"#utility.yul\":13054:13056   */\n      0x60\n        /* \"#utility.yul\":13043:13052   */\n      dup4\n        /* \"#utility.yul\":13039:13057   */\n      add\n        /* \"#utility.yul\":13030:13036   */\n      dup9\n        /* \"#utility.yul\":12986:13058   */\n      tag_134\n      jump\t// in\n    tag_292:\n        /* \"#utility.yul\":13068:13141   */\n      tag_293\n        /* \"#utility.yul\":13136:13139   */\n      0x80\n        /* \"#utility.yul\":13125:13134   */\n      dup4\n        /* \"#utility.yul\":13121:13140   */\n      add\n        /* \"#utility.yul\":13112:13118   */\n      dup8\n        /* \"#utility.yul\":13068:13141   */\n      tag_134\n      jump\t// in\n    tag_293:\n        /* \"#utility.yul\":13189:13198   */\n      dup2\n        /* \"#utility.yul\":13183:13187   */\n      dup2\n        /* \"#utility.yul\":13179:13199   */\n      sub\n        /* \"#utility.yul\":13173:13176   */\n      0xa0\n        /* \"#utility.yul\":13162:13171   */\n      dup4\n        /* \"#utility.yul\":13158:13177   */\n      add\n        /* \"#utility.yul\":13151:13200   */\n      mstore\n        /* \"#utility.yul\":13217:13295   */\n      tag_294\n        /* \"#utility.yul\":13290:13294   */\n      dup2\n        /* \"#utility.yul\":13281:13287   */\n      dup7\n        /* \"#utility.yul\":13217:13295   */\n      tag_137\n      jump\t// in\n    tag_294:\n        /* \"#utility.yul\":13209:13295   */\n      swap1\n      pop\n        /* \"#utility.yul\":13343:13352   */\n      dup2\n        /* \"#utility.yul\":13337:13341   */\n      dup2\n        /* \"#utility.yul\":13333:13353   */\n      sub\n        /* \"#utility.yul\":13327:13330   */\n      0xc0\n        /* \"#utility.yul\":13316:13325   */\n      dup4\n        /* \"#utility.yul\":13312:13331   */\n      add\n        /* \"#utility.yul\":13305:13354   */\n      mstore\n        /* \"#utility.yul\":13371:13449   */\n      tag_295\n        /* \"#utility.yul\":13444:13448   */\n      dup2\n        /* \"#utility.yul\":13435:13441   */\n      dup6\n        /* \"#utility.yul\":13371:13449   */\n      tag_137\n      jump\t// in\n    tag_295:\n        /* \"#utility.yul\":13363:13449   */\n      swap1\n      pop\n        /* \"#utility.yul\":13459:13532   */\n      tag_296\n        /* \"#utility.yul\":13527:13530   */\n      0xe0\n        /* \"#utility.yul\":13516:13525   */\n      dup4\n        /* \"#utility.yul\":13512:13531   */\n      add\n        /* \"#utility.yul\":13503:13509   */\n      dup5\n        /* \"#utility.yul\":13459:13532   */\n      tag_134\n      jump\t// in\n    tag_296:\n        /* \"#utility.yul\":12269:13539   */\n      swap10\n      swap9\n      pop\n      pop\n      pop\n      pop\n      pop\n      pop\n      pop\n      pop\n      pop\n      jump\t// out\n        /* \"#utility.yul\":13545:14019   */\n    tag_38:\n        /* \"#utility.yul\":13613:13619   */\n      0x00\n        /* \"#utility.yul\":13621:13627   */\n      dup1\n        /* \"#utility.yul\":13670:13672   */\n      0x40\n        /* \"#utility.yul\":13658:13667   */\n      dup4\n        /* \"#utility.yul\":13649:13656   */\n      dup6\n        /* \"#utility.yul\":13645:13668   */\n      sub\n        /* \"#utility.yul\":13641:13673   */\n      slt\n        /* \"#utility.yul\":13638:13757   */\n      iszero\n      tag_298\n      jumpi\n        /* \"#utility.yul\":13676:13755   */\n      tag_299\n      tag_102\n      jump\t// in\n    tag_299:\n        /* \"#utility.yul\":13638:13757   */\n    tag_298:\n        /* \"#utility.yul\":13796:13797   */\n      0x00\n        /* \"#utility.yul\":13821:13874   */\n      tag_300\n        /* \"#utility.yul\":13866:13873   */\n      dup6\n        /* \"#utility.yul\":13857:13863   */\n      dup3\n        /* \"#utility.yul\":13846:13855   */\n      dup7\n        /* \"#utility.yul\":13842:13864   */\n      add\n        /* \"#utility.yul\":13821:13874   */\n      tag_107\n      jump\t// in\n    tag_300:\n        /* \"#utility.yul\":13811:13874   */\n      swap3\n      pop\n        /* \"#utility.yul\":13767:13884   */\n      pop\n        /* \"#utility.yul\":13923:13925   */\n      0x20\n        /* \"#utility.yul\":13949:14002   */\n      tag_301\n        /* \"#utility.yul\":13994:14001   */\n      dup6\n        /* \"#utility.yul\":13985:13991   */\n      dup3\n        /* \"#utility.yul\":13974:13983   */\n      dup7\n        /* \"#utility.yul\":13970:13992   */\n      add\n        /* \"#utility.yul\":13949:14002   */\n      tag_117\n      jump\t// in\n    tag_301:\n        /* \"#utility.yul\":13939:14002   */\n      swap2\n      pop\n        /* \"#utility.yul\":13894:14012   */\n      pop\n        /* \"#utility.yul\":13545:14019   */\n      swap3\n      pop\n      swap3\n      swap1\n      pop\n      jump\t// out\n        /* \"#utility.yul\":14025:14257   */\n    tag_138:\n        /* \"#utility.yul\":14165:14199   */\n      0x4f6e6c79207468652070726f64756374206f776e65722063616e207570646174\n        /* \"#utility.yul\":14161:14162   */\n      0x00\n        /* \"#utility.yul\":14153:14159   */\n      dup3\n        /* \"#utility.yul\":14149:14163   */\n      add\n        /* \"#utility.yul\":14142:14200   */\n      mstore\n        /* \"#utility.yul\":14234:14249   */\n      0x65207468652070726f6475637400000000000000000000000000000000000000\n        /* \"#utility.yul\":14229:14231   */\n      0x20\n        /* \"#utility.yul\":14221:14227   */\n      dup3\n        /* \"#utility.yul\":14217:14232   */\n      add\n        /* \"#utility.yul\":14210:14250   */\n      mstore\n        /* \"#utility.yul\":14025:14257   */\n      pop\n      jump\t// out\n        /* \"#utility.yul\":14263:14629   */\n    tag_139:\n        /* \"#utility.yul\":14405:14408   */\n      0x00\n        /* \"#utility.yul\":14426:14493   */\n      tag_304\n        /* \"#utility.yul\":14490:14492   */\n      0x2d\n        /* \"#utility.yul\":14485:14488   */\n      dup4\n        /* \"#utility.yul\":14426:14493   */\n      tag_136\n      jump\t// in\n    tag_304:\n        /* \"#utility.yul\":14419:14493   */\n      swap2\n      pop\n        /* \"#utility.yul\":14502:14595   */\n      tag_305\n        /* \"#utility.yul\":14591:14594   */\n      dup3\n        /* \"#utility.yul\":14502:14595   */\n      tag_138\n      jump\t// in\n    tag_305:\n        /* \"#utility.yul\":14620:14622   */\n      0x40\n        /* \"#utility.yul\":14615:14618   */\n      dup3\n        /* \"#utility.yul\":14611:14623   */\n      add\n        /* \"#utility.yul\":14604:14623   */\n      swap1\n      pop\n        /* \"#utility.yul\":14263:14629   */\n      swap2\n      swap1\n      pop\n      jump\t// out\n        /* \"#utility.yul\":14635:15054   */\n    tag_47:\n        /* \"#utility.yul\":14801:14805   */\n      0x00\n        /* \"#utility.yul\":14839:14841   */\n      0x20\n        /* \"#utility.yul\":14828:14837   */\n      dup3\n        /* \"#utility.yul\":14824:14842   */\n      add\n        /* \"#utility.yul\":14816:14842   */\n      swap1\n      pop\n        /* \"#utility.yul\":14888:14897   */\n      dup2\n        /* \"#utility.yul\":14882:14886   */\n      dup2\n        /* \"#utility.yul\":14878:14898   */\n      sub\n        /* \"#utility.yul\":14874:14875   */\n      0x00\n        /* \"#utility.yul\":14863:14872   */\n      dup4\n        /* \"#utility.yul\":14859:14876   */\n      add\n        /* \"#utility.yul\":14852:14899   */\n      mstore\n        /* \"#utility.yul\":14916:15047   */\n      tag_307\n        /* \"#utility.yul\":15042:15046   */\n      dup2\n        /* \"#utility.yul\":14916:15047   */\n      tag_139\n      jump\t// in\n    tag_307:\n        /* \"#utility.yul\":14908:15047   */\n      swap1\n      pop\n        /* \"#utility.yul\":14635:15054   */\n      swap2\n      swap1\n      pop\n      jump\t// out\n        /* \"#utility.yul\":15060:15232   */\n    tag_140:\n        /* \"#utility.yul\":15200:15224   */\n      0x50726f6475637420646f6573206e6f7420657869737400000000000000000000\n        /* \"#utility.yul\":15196:15197   */\n      0x00\n        /* \"#utility.yul\":15188:15194   */\n      dup3\n        /* \"#utility.yul\":15184:15198   */\n      add\n        /* \"#utility.yul\":15177:15225   */\n      mstore\n        /* \"#utility.yul\":15060:15232   */\n      pop\n      jump\t// out\n        /* \"#utility.yul\":15238:15604   */\n    tag_141:\n        /* \"#utility.yul\":15380:15383   */\n      0x00\n        /* \"#utility.yul\":15401:15468   */\n      tag_310\n        /* \"#utility.yul\":15465:15467   */\n      0x16\n        /* \"#utility.yul\":15460:15463   */\n      dup4\n        /* \"#utility.yul\":15401:15468   */\n      tag_136\n      jump\t// in\n    tag_310:\n        /* \"#utility.yul\":15394:15468   */\n      swap2\n      pop\n        /* \"#utility.yul\":15477:15570   */\n      tag_311\n        /* \"#utility.yul\":15566:15569   */\n      dup3\n        /* \"#utility.yul\":15477:15570   */\n      tag_140\n      jump\t// in\n    tag_311:\n        /* \"#utility.yul\":15595:15597   */\n      0x20\n        /* \"#utility.yul\":15590:15593   */\n      dup3\n        /* \"#utility.yul\":15586:15598   */\n      add\n        /* \"#utility.yul\":15579:15598   */\n      swap1\n      pop\n        /* \"#utility.yul\":15238:15604   */\n      swap2\n      swap1\n      pop\n      jump\t// out\n        /* \"#utility.yul\":15610:16029   */\n    tag_55:\n        /* \"#utility.yul\":15776:15780   */\n      0x00\n        /* \"#utility.yul\":15814:15816   */\n      0x20\n        /* \"#utility.yul\":15803:15812   */\n      dup3\n        /* \"#utility.yul\":15799:15817   */\n      add\n        /* \"#utility.yul\":15791:15817   */\n      swap1\n      pop\n        /* \"#utility.yul\":15863:15872   */\n      dup2\n        /* \"#utility.yul\":15857:15861   */\n      dup2\n        /* \"#utility.yul\":15853:15873   */\n      sub\n        /* \"#utility.yul\":15849:15850   */\n      0x00\n        /* \"#utility.yul\":15838:15847   */\n      dup4\n        /* \"#utility.yul\":15834:15851   */\n      add\n        /* \"#utility.yul\":15827:15874   */\n      mstore\n        /* \"#utility.yul\":15891:16022   */\n      tag_313\n        /* \"#utility.yul\":16017:16021   */\n      dup2\n        /* \"#utility.yul\":15891:16022   */\n      tag_141\n      jump\t// in\n    tag_313:\n        /* \"#utility.yul\":15883:16022   */\n      swap1\n      pop\n        /* \"#utility.yul\":15610:16029   */\n      swap2\n      swap1\n      pop\n      jump\t// out\n        /* \"#utility.yul\":16035:16215   */\n    tag_142:\n        /* \"#utility.yul\":16083:16160   */\n      0x4e487b7100000000000000000000000000000000000000000000000000000000\n        /* \"#utility.yul\":16080:16081   */\n      0x00\n        /* \"#utility.yul\":16073:16161   */\n      mstore\n        /* \"#utility.yul\":16180:16184   */\n      0x22\n        /* \"#utility.yul\":16177:16178   */\n      0x04\n        /* \"#utility.yul\":16170:16185   */\n      mstore\n        /* \"#utility.yul\":16204:16208   */\n      0x24\n        /* \"#utility.yul\":16201:16202   */\n      0x00\n        /* \"#utility.yul\":16194:16209   */\n      revert\n        /* \"#utility.yul\":16221:16541   */\n    tag_57:\n        /* \"#utility.yul\":16265:16271   */\n      0x00\n        /* \"#utility.yul\":16302:16303   */\n      0x02\n        /* \"#utility.yul\":16296:16300   */\n      dup3\n        /* \"#utility.yul\":16292:16304   */\n      div\n        /* \"#utility.yul\":16282:16304   */\n      swap1\n      pop\n        /* \"#utility.yul\":16349:16350   */\n      0x01\n        /* \"#utility.yul\":16343:16347   */\n      dup3\n        /* \"#utility.yul\":16339:16351   */\n      and\n        /* \"#utility.yul\":16370:16388   */\n      dup1\n        /* \"#utility.yul\":16360:16441   */\n      tag_316\n      jumpi\n        /* \"#utility.yul\":16426:16430   */\n      0x7f\n        /* \"#utility.yul\":16418:16424   */\n      dup3\n        /* \"#utility.yul\":16414:16431   */\n      and\n        /* \"#utility.yul\":16404:16431   */\n      swap2\n      pop\n        /* \"#utility.yul\":16360:16441   */\n    tag_316:\n        /* \"#utility.yul\":16488:16490   */\n      0x20\n        /* \"#utility.yul\":16480:16486   */\n      dup3\n        /* \"#utility.yul\":16477:16491   */\n      lt\n        /* \"#utility.yul\":16457:16475   */\n      dup2\n        /* \"#utility.yul\":16454:16492   */\n      sub\n        /* \"#utility.yul\":16451:16535   */\n      tag_317\n      jumpi\n        /* \"#utility.yul\":16507:16525   */\n      tag_318\n      tag_142\n      jump\t// in\n    tag_318:\n        /* \"#utility.yul\":16451:16535   */\n    tag_317:\n        /* \"#utility.yul\":16272:16541   */\n      pop\n        /* \"#utility.yul\":16221:16541   */\n      swap2\n      swap1\n      pop\n      jump\t// out\n        /* \"#utility.yul\":16547:16727   */\n    tag_143:\n        /* \"#utility.yul\":16595:16672   */\n      0x4e487b7100000000000000000000000000000000000000000000000000000000\n        /* \"#utility.yul\":16592:16593   */\n      0x00\n        /* \"#utility.yul\":16585:16673   */\n      mstore\n        /* \"#utility.yul\":16692:16696   */\n      0x11\n        /* \"#utility.yul\":16689:16690   */\n      0x04\n        /* \"#utility.yul\":16682:16697   */\n      mstore\n        /* \"#utility.yul\":16716:16720   */\n      0x24\n        /* \"#utility.yul\":16713:16714   */\n      0x00\n        /* \"#utility.yul\":16706:16721   */\n      revert\n        /* \"#utility.yul\":16733:16966   */\n    tag_74:\n        /* \"#utility.yul\":16772:16775   */\n      0x00\n        /* \"#utility.yul\":16795:16819   */\n      tag_321\n        /* \"#utility.yul\":16813:16818   */\n      dup3\n        /* \"#utility.yul\":16795:16819   */\n      tag_111\n      jump\t// in\n    tag_321:\n        /* \"#utility.yul\":16786:16819   */\n      swap2\n      pop\n        /* \"#utility.yul\":16841:16907   */\n      0xffffffffffffffffffffffffffffffffffffffffffffffffffffffffffffffff\n        /* \"#utility.yul\":16834:16839   */\n      dup3\n        /* \"#utility.yul\":16831:16908   */\n      sub\n        /* \"#utility.yul\":16828:16931   */\n      tag_322\n      jumpi\n        /* \"#utility.yul\":16911:16929   */\n      tag_323\n      tag_143\n      jump\t// in\n    tag_323:\n        /* \"#utility.yul\":16828:16931   */\n    tag_322:\n        /* \"#utility.yul\":16958:16959   */\n      0x01\n        /* \"#utility.yul\":16951:16956   */\n      dup3\n        /* \"#utility.yul\":16947:16960   */\n      add\n        /* \"#utility.yul\":16940:16960   */\n      swap1\n      pop\n        /* \"#utility.yul\":16733:16966   */\n      swap2\n      swap1\n      pop\n      jump\t// out\n        /* \"#utility.yul\":16972:17051   */\n    tag_144:\n        /* \"#utility.yul\":17011:17018   */\n      0x00\n        /* \"#utility.yul\":17040:17045   */\n      dup2\n        /* \"#utility.yul\":17029:17045   */\n      swap1\n      pop\n        /* \"#utility.yul\":16972:17051   */\n      swap2\n      swap1\n      pop\n      jump\t// out\n        /* \"#utility.yul\":17057:17214   */\n    tag_145:\n        /* \"#utility.yul\":17162:17207   */\n      tag_326\n        /* \"#utility.yul\":17182:17206   */\n      tag_327\n        /* \"#utility.yul\":17200:17205   */\n      dup3\n        /* \"#utility.yul\":17182:17206   */\n      tag_111\n      jump\t// in\n    tag_327:\n        /* \"#utility.yul\":17162:17207   */\n      tag_144\n      jump\t// in\n    tag_326:\n        /* \"#utility.yul\":17157:17160   */\n      dup3\n        /* \"#utility.yul\":17150:17208   */\n      mstore\n        /* \"#utility.yul\":17057:17214   */\n      pop\n      pop\n      jump\t// out\n        /* \"#utility.yul\":17220:17314   */\n    tag_146:\n        /* \"#utility.yul\":17253:17261   */\n      0x00\n        /* \"#utility.yul\":17301:17306   */\n      dup2\n        /* \"#utility.yul\":17297:17299   */\n      0x60\n        /* \"#utility.yul\":17293:17307   */\n      shl\n        /* \"#utility.yul\":17272:17307   */\n      swap1\n      pop\n        /* \"#utility.yul\":17220:17314   */\n      swap2\n      swap1\n      pop\n      jump\t// out\n        /* \"#utility.yul\":17320:17414   */\n    tag_147:\n        /* \"#utility.yul\":17359:17366   */\n      0x00\n        /* \"#utility.yul\":17388:17408   */\n      tag_330\n        /* \"#utility.yul\":17402:17407   */\n      dup3\n        /* \"#utility.yul\":17388:17408   */\n      tag_146\n      jump\t// in\n    tag_330:\n        /* \"#utility.yul\":17377:17408   */\n      swap1\n      pop\n        /* \"#utility.yul\":17320:17414   */\n      swap2\n      swap1\n      pop\n      jump\t// out\n        /* \"#utility.yul\":17420:17520   */\n    tag_148:\n        /* \"#utility.yul\":17459:17466   */\n      0x00\n        /* \"#utility.yul\":17488:17514   */\n      tag_332\n        /* \"#utility.yul\":17508:17513   */\n      dup3\n        /* \"#utility.yul\":17488:17514   */\n      tag_147\n      jump\t// in\n    tag_332:\n        /* \"#utility.yul\":17477:17514   */\n      swap1\n      pop\n        /* \"#utility.yul\":17420:17520   */\n      swap2\n      swap1\n      pop\n      jump\t// out\n        /* \"#utility.yul\":17526:17683   */\n    tag_149:\n        /* \"#utility.yul\":17631:17676   */\n      tag_334\n        /* \"#utility.yul\":17651:17675   */\n      tag_335\n        /* \"#utility.yul\":17669:17674   */\n      dup3\n        /* \"#utility.yul\":17651:17675   */\n      tag_105\n      jump\t// in\n    tag_335:\n        /* \"#utility.yul\":17631:17676   */\n      tag_148\n      jump\t// in\n    tag_334:\n        /* \"#utility.yul\":17626:17629   */\n      dup3\n        /* \"#utility.yul\":17619:17677   */\n      mstore\n        /* \"#utility.yul\":17526:17683   */\n      pop\n      pop\n      jump\t// out\n        /* \"#utility.yul\":17689:18227   */\n    tag_76:\n        /* \"#utility.yul\":17857:17860   */\n      0x00\n        /* \"#utility.yul\":17872:17947   */\n      tag_337\n        /* \"#utility.yul\":17943:17946   */\n      dup3\n        /* \"#utility.yul\":17934:17940   */\n      dup7\n        /* \"#utility.yul\":17872:17947   */\n      tag_145\n      jump\t// in\n    tag_337:\n        /* \"#utility.yul\":17972:17974   */\n      0x20\n        /* \"#utility.yul\":17967:17970   */\n      dup3\n        /* \"#utility.yul\":17963:17975   */\n      add\n        /* \"#utility.yul\":17956:17975   */\n      swap2\n      pop\n        /* \"#utility.yul\":17985:18060   */\n      tag_338\n        /* \"#utility.yul\":18056:18059   */\n      dup3\n        /* \"#utility.yul\":18047:18053   */\n      dup6\n        /* \"#utility.yul\":17985:18060   */\n      tag_149\n      jump\t// in\n    tag_338:\n        /* \"#utility.yul\":18085:18087   */\n      0x14\n        /* \"#utility.yul\":18080:18083   */\n      dup3\n        /* \"#utility.yul\":18076:18088   */\n      add\n        /* \"#utility.yul\":18069:18088   */\n      swap2\n      pop\n        /* \"#utility.yul\":18098:18173   */\n      tag_339\n        /* \"#utility.yul\":18169:18172   */\n      dup3\n        /* \"#utility.yul\":18160:18166   */\n      dup5\n        /* \"#utility.yul\":18098:18173   */\n      tag_145\n      jump\t// in\n    tag_339:\n        /* \"#utility.yul\":18198:18200   */\n      0x20\n        /* \"#utility.yul\":18193:18196   */\n      dup3\n        /* \"#utility.yul\":18189:18201   */\n      add\n        /* \"#utility.yul\":18182:18201   */\n      swap2\n      pop\n        /* \"#utility.yul\":18218:18221   */\n      dup2\n        /* \"#utility.yul\":18211:18221   */\n      swap1\n      pop\n        /* \"#utility.yul\":17689:18227   */\n      swap5\n      swap4\n      pop\n      pop\n      pop\n      pop\n      jump\t// out\n        /* \"#utility.yul\":18233:18374   */\n    tag_150:\n        /* \"#utility.yul\":18282:18286   */\n      0x00\n        /* \"#utility.yul\":18305:18308   */\n      dup2\n        /* \"#utility.yul\":18297:18308   */\n      swap1\n      pop\n        /* \"#utility.yul\":18328:18331   */\n      dup2\n        /* \"#utility.yul\":18325:18326   */\n      0x00\n        /* \"#utility.yul\":18318:18332   */\n      mstore\n        /* \"#utility.yul\":18362:18366   */\n      0x20\n        /* \"#utility.yul\":18359:18360   */\n      0x00\n        /* \"#utility.yul\":18349:18367   */\n      keccak256\n        /* \"#utility.yul\":18341:18367   */\n      swap1\n      pop\n        /* \"#utility.yul\":18233:18374   */\n      swap2\n      swap1\n      pop\n      jump\t// out\n        /* \"#utility.yul\":18380:18473   */\n    tag_151:\n        /* \"#utility.yul\":18417:18423   */\n      0x00\n        /* \"#utility.yul\":18464:18466   */\n      0x20\n        /* \"#utility.yul\":18459:18461   */\n      0x1f\n        /* \"#utility.yul\":18452:18457   */\n      dup4\n        /* \"#utility.yul\":18448:18462   */\n      add\n        /* \"#utility.yul\":18444:18467   */\n      div\n        /* \"#utility.yul\":18434:18467   */\n      swap1\n      pop\n        /* \"#utility.yul\":18380:18473   */\n      swap2\n      swap1\n      pop\n      jump\t// out\n        /* \"#utility.yul\":18479:18586   */\n    tag_152:\n        /* \"#utility.yul\":18523:18531   */\n      0x00\n        /* \"#utility.yul\":18573:18578   */\n      dup3\n        /* \"#utility.yul\":18567:18571   */\n      dup3\n        /* \"#utility.yul\":18563:18579   */\n      shl\n        /* \"#utility.yul\":18542:18579   */\n      swap1\n      pop\n        /* \"#utility.yul\":18479:18586   */\n      swap3\n      swap2\n      pop\n      pop\n      jump\t// out\n        /* \"#utility.yul\":18592:18985   */\n    tag_153:\n        /* \"#utility.yul\":18661:18667   */\n      0x00\n        /* \"#utility.yul\":18711:18712   */\n      0x08\n        /* \"#utility.yul\":18699:18709   */\n      dup4\n        /* \"#utility.yul\":18695:18713   */\n      mul\n        /* \"#utility.yul\":18734:18831   */\n      tag_344\n        /* \"#utility.yul\":18764:18830   */\n      0xffffffffffffffffffffffffffffffffffffffffffffffffffffffffffffffff\n        /* \"#utility.yul\":18753:18762   */\n      dup3\n        /* \"#utility.yul\":18734:18831   */\n      tag_152\n      jump\t// in\n    tag_344:\n        /* \"#utility.yul\":18852:18891   */\n      tag_345\n        /* \"#utility.yul\":18882:18890   */\n      dup7\n        /* \"#utility.yul\":18871:18880   */\n      dup4\n        /* \"#utility.yul\":18852:18891   */\n      tag_152\n      jump\t// in\n    tag_345:\n        /* \"#utility.yul\":18840:18891   */\n      swap6\n      pop\n        /* \"#utility.yul\":18924:18928   */\n      dup1\n        /* \"#utility.yul\":18920:18929   */\n      not\n        /* \"#utility.yul\":18913:18918   */\n      dup5\n        /* \"#utility.yul\":18909:18930   */\n      and\n        /* \"#utility.yul\":18900:18930   */\n      swap4\n      pop\n        /* \"#utility.yul\":18973:18977   */\n      dup1\n        /* \"#utility.yul\":18963:18971   */\n      dup7\n        /* \"#utility.yul\":18959:18978   */\n      and\n        /* \"#utility.yul\":18952:18957   */\n      dup5\n        /* \"#utility.yul\":18949:18979   */\n      or\n        /* \"#utility.yul\":18939:18979   */\n      swap3\n      pop\n        /* \"#utility.yul\":18668:18985   */\n      pop\n      pop\n        /* \"#utility.yul\":18592:18985   */\n      swap4\n      swap3\n      pop\n      pop\n      pop\n      jump\t// out\n        /* \"#utility.yul\":18991:19051   */\n    tag_154:\n        /* \"#utility.yul\":19019:19022   */\n      0x00\n        /* \"#utility.yul\":19040:19045   */\n      dup2\n        /* \"#utility.yul\":19033:19045   */\n      swap1\n      pop\n        /* \"#utility.yul\":18991:19051   */\n      swap2\n      swap1\n      pop\n      jump\t// out\n        /* \"#utility.yul\":19057:19199   */\n    tag_155:\n        /* \"#utility.yul\":19107:19116   */\n      0x00\n        /* \"#utility.yul\":19140:19193   */\n      tag_348\n        /* \"#utility.yul\":19158:19192   */\n      tag_349\n        /* \"#utility.yul\":19167:19191   */\n      tag_350\n        /* \"#utility.yul\":19185:19190   */\n      dup5\n        /* \"#utility.yul\":19167:19191   */\n      tag_111\n      jump\t// in\n    tag_350:\n        /* \"#utility.yul\":19158:19192   */\n      tag_154\n      jump\t// in\n    tag_349:\n        /* \"#utility.yul\":19140:19193   */\n      tag_111\n      jump\t// in\n    tag_348:\n        /* \"#utility.yul\":19127:19193   */\n      swap1\n      pop\n        /* \"#utility.yul\":19057:19199   */\n      swap2\n      swap1\n      pop\n      jump\t// out\n        /* \"#utility.yul\":19205:19280   */\n    tag_156:\n        /* \"#utility.yul\":19248:19251   */\n      0x00\n        /* \"#utility.yul\":19269:19274   */\n      dup2\n        /* \"#utility.yul\":19262:19274   */\n      swap1\n      pop\n        /* \"#utility.yul\":19205:19280   */\n      swap2\n      swap1\n      pop\n      jump\t// out\n        /* \"#utility.yul\":19286:19555   */\n    tag_157:\n        /* \"#utility.yul\":19396:19435   */\n      tag_353\n        /* \"#utility.yul\":19427:19434   */\n      dup4\n        /* \"#utility.yul\":19396:19435   */\n      tag_155\n      jump\t// in\n    tag_353:\n        /* \"#utility.yul\":19457:19548   */\n      tag_354\n        /* \"#utility.yul\":19506:19547   */\n      tag_355\n        /* \"#utility.yul\":19530:19546   */\n      dup3\n        /* \"#utility.yul\":19506:19547   */\n      tag_156\n      jump\t// in\n    tag_355:\n        /* \"#utility.yul\":19498:19504   */\n      dup5\n        /* \"#utility.yul\":19491:19495   */\n      dup5\n        /* \"#utility.yul\":19485:19496   */\n      sload\n        /* \"#utility.yul\":19457:19548   */\n      tag_153\n      jump\t// in\n    tag_354:\n        /* \"#utility.yul\":19451:19455   */\n      dup3\n        /* \"#utility.yul\":19444:19549   */\n      sstore\n        /* \"#utility.yul\":19362:19555   */\n      pop\n        /* \"#utility.yul\":19286:19555   */\n      pop\n      pop\n      pop\n      jump\t// out\n        /* \"#utility.yul\":19561:19634   */\n    tag_158:\n        /* \"#utility.yul\":19606:19609   */\n      0x00\n        /* \"#utility.yul\":19561:19634   */\n      swap1\n      jump\t// out\n        /* \"#utility.yul\":19640:19829   */\n    tag_159:\n        /* \"#utility.yul\":19717:19749   */\n      tag_358\n      tag_158\n      jump\t// in\n    tag_358:\n        /* \"#utility.yul\":19758:19823   */\n      tag_359\n        /* \"#utility.yul\":19816:19822   */\n      dup2\n        /* \"#utility.yul\":19808:19814   */\n      dup5\n        /* \"#utility.yul\":19802:19806   */\n      dup5\n        /* \"#utility.yul\":19758:19823   */\n      tag_157\n      jump\t// in\n    tag_359:\n        /* \"#utility.yul\":19693:19829   */\n      pop\n        /* \"#utility.yul\":19640:19829   */\n      pop\n      pop\n      jump\t// out\n        /* \"#utility.yul\":19835:20021   */\n    tag_160:\n        /* \"#utility.yul\":19895:20015   */\n    tag_361:\n        /* \"#utility.yul\":19912:19915   */\n      dup2\n        /* \"#utility.yul\":19905:19910   */\n      dup2\n        /* \"#utility.yul\":19902:19916   */\n      lt\n        /* \"#utility.yul\":19895:20015   */\n      iszero\n      tag_363\n      jumpi\n        /* \"#utility.yul\":19966:20005   */\n      tag_364\n        /* \"#utility.yul\":20003:20004   */\n      0x00\n        /* \"#utility.yul\":19996:20001   */\n      dup3\n        /* \"#utility.yul\":19966:20005   */\n      tag_159\n      jump\t// in\n    tag_364:\n        /* \"#utility.yul\":19939:19940   */\n      0x01\n        /* \"#utility.yul\":19932:19937   */\n      dup2\n        /* \"#utility.yul\":19928:19941   */\n      add\n        /* \"#utility.yul\":19919:19941   */\n      swap1\n      pop\n        /* \"#utility.yul\":19895:20015   */\n      jump(tag_361)\n    tag_363:\n        /* \"#utility.yul\":19835:20021   */\n      pop\n      pop\n      jump\t// out\n        /* \"#utility.yul\":20027:20570   */\n    tag_161:\n        /* \"#utility.yul\":20128:20130   */\n      0x1f\n        /* \"#utility.yul\":20123:20126   */\n      dup3\n        /* \"#utility.yul\":20120:20131   */\n      gt\n        /* \"#utility.yul\":20117:20563   */\n      iszero\n      tag_366\n      jumpi\n        /* \"#utility.yul\":20162:20200   */\n      tag_367\n        /* \"#utility.yul\":20194:20199   */\n      dup2\n        /* \"#utility.yul\":20162:20200   */\n      tag_150\n      jump\t// in\n    tag_367:\n        /* \"#utility.yul\":20246:20275   */\n      tag_368\n        /* \"#utility.yul\":20264:20274   */\n      dup5\n        /* \"#utility.yul\":20246:20275   */\n      tag_151\n      jump\t// in\n    tag_368:\n        /* \"#utility.yul\":20236:20244   */\n      dup2\n        /* \"#utility.yul\":20232:20276   */\n      add\n        /* \"#utility.yul\":20429:20431   */\n      0x20\n        /* \"#utility.yul\":20417:20427   */\n      dup6\n        /* \"#utility.yul\":20414:20432   */\n      lt\n        /* \"#utility.yul\":20411:20460   */\n      iszero\n      tag_369\n      jumpi\n        /* \"#utility.yul\":20450:20458   */\n      dup2\n        /* \"#utility.yul\":20435:20458   */\n      swap1\n      pop\n        /* \"#utility.yul\":20411:20460   */\n    tag_369:\n        /* \"#utility.yul\":20473:20553   */\n      tag_370\n        /* \"#utility.yul\":20529:20551   */\n      tag_371\n        /* \"#utility.yul\":20547:20550   */\n      dup6\n        /* \"#utility.yul\":20529:20551   */\n      tag_151\n      jump\t// in\n    tag_371:\n        /* \"#utility.yul\":20519:20527   */\n      dup4\n        /* \"#utility.yul\":20515:20552   */\n      add\n        /* \"#utility.yul\":20502:20513   */\n      dup3\n        /* \"#utility.yul\":20473:20553   */\n      tag_160\n      jump\t// in\n    tag_370:\n        /* \"#utility.yul\":20132:20563   */\n      pop\n      pop\n        /* \"#utility.yul\":20117:20563   */\n    tag_366:\n        /* \"#utility.yul\":20027:20570   */\n      pop\n      pop\n      pop\n      jump\t// out\n        /* \"#utility.yul\":20576:20693   */\n    tag_162:\n        /* \"#utility.yul\":20630:20638   */\n      0x00\n        /* \"#utility.yul\":20680:20685   */\n      dup3\n        /* \"#utility.yul\":20674:20678   */\n      dup3\n        /* \"#utility.yul\":20670:20686   */\n      shr\n        /* \"#utility.yul\":20649:20686   */\n      swap1\n      pop\n        /* \"#utility.yul\":20576:20693   */\n      swap3\n      swap2\n      pop\n      pop\n      jump\t// out\n        /* \"#utility.yul\":20699:20868   */\n    tag_163:\n        /* \"#utility.yul\":20743:20749   */\n      0x00\n        /* \"#utility.yul\":20776:20827   */\n      tag_374\n        /* \"#utility.yul\":20824:20825   */\n      0x00\n        /* \"#utility.yul\":20820:20826   */\n      not\n        /* \"#utility.yul\":20812:20817   */\n      dup5\n        /* \"#utility.yul\":20809:20810   */\n      0x08\n        /* \"#utility.yul\":20805:20818   */\n      mul\n        /* \"#utility.yul\":20776:20827   */\n      tag_162\n      jump\t// in\n    tag_374:\n        /* \"#utility.yul\":20772:20828   */\n      not\n        /* \"#utility.yul\":20857:20861   */\n      dup1\n        /* \"#utility.yul\":20851:20855   */\n      dup4\n        /* \"#utility.yul\":20847:20862   */\n      and\n        /* \"#utility.yul\":20837:20862   */\n      swap2\n      pop\n        /* \"#utility.yul\":20750:20868   */\n      pop\n        /* \"#utility.yul\":20699:20868   */\n      swap3\n      swap2\n      pop\n      pop\n      jump\t// out\n        /* \"#utility.yul\":20873:21168   */\n    tag_164:\n        /* \"#utility.yul\":20949:20953   */\n      0x00\n        /* \"#utility.yul\":21095:21124   */\n      tag_376\n        /* \"#utility.yul\":21120:21123   */\n      dup4\n        /* \"#utility.yul\":21114:21118   */\n      dup4\n        /* \"#utility.yul\":21095:21124   */\n      tag_163\n      jump\t// in\n    tag_376:\n        /* \"#utility.yul\":21087:21124   */\n      swap2\n      pop\n        /* \"#utility.yul\":21157:21160   */\n      dup3\n        /* \"#utility.yul\":21154:21155   */\n      0x02\n        /* \"#utility.yul\":21150:21161   */\n      mul\n        /* \"#utility.yul\":21144:21148   */\n      dup3\n        /* \"#utility.yul\":21141:21162   */\n      or\n        /* \"#utility.yul\":21133:21162   */\n      swap1\n      pop\n        /* \"#utility.yul\":20873:21168   */\n      swap3\n      swap2\n      pop\n      pop\n      jump\t// out\n        /* \"#utility.yul\":21173:22568   */\n    tag_78:\n        /* \"#utility.yul\":21290:21327   */\n      tag_378\n        /* \"#utility.yul\":21323:21326   */\n      dup3\n        /* \"#utility.yul\":21290:21327   */\n      tag_119\n      jump\t// in\n    tag_378:\n        /* \"#utility.yul\":21392:21410   */\n      0xffffffffffffffff\n        /* \"#utility.yul\":21384:21390   */\n      dup2\n        /* \"#utility.yul\":21381:21411   */\n      gt\n        /* \"#utility.yul\":21378:21434   */\n      iszero\n      tag_379\n      jumpi\n        /* \"#utility.yul\":21414:21432   */\n      tag_380\n      tag_127\n      jump\t// in\n    tag_380:\n        /* \"#utility.yul\":21378:21434   */\n    tag_379:\n        /* \"#utility.yul\":21458:21496   */\n      tag_381\n        /* \"#utility.yul\":21490:21494   */\n      dup3\n        /* \"#utility.yul\":21484:21495   */\n      sload\n        /* \"#utility.yul\":21458:21496   */\n      tag_57\n      jump\t// in\n    tag_381:\n        /* \"#utility.yul\":21543:21610   */\n      tag_382\n        /* \"#utility.yul\":21603:21609   */\n      dup3\n        /* \"#utility.yul\":21595:21601   */\n      dup3\n        /* \"#utility.yul\":21589:21593   */\n      dup6\n        /* \"#utility.yul\":21543:21610   */\n      tag_161\n      jump\t// in\n    tag_382:\n        /* \"#utility.yul\":21637:21638   */\n      0x00\n        /* \"#utility.yul\":21661:21665   */\n      0x20\n        /* \"#utility.yul\":21648:21665   */\n      swap1\n      pop\n        /* \"#utility.yul\":21693:21695   */\n      0x1f\n        /* \"#utility.yul\":21685:21691   */\n      dup4\n        /* \"#utility.yul\":21682:21696   */\n      gt\n        /* \"#utility.yul\":21710:21711   */\n      0x01\n        /* \"#utility.yul\":21705:22323   */\n      dup2\n      eq\n      tag_384\n      jumpi\n        /* \"#utility.yul\":22367:22368   */\n      0x00\n        /* \"#utility.yul\":22384:22390   */\n      dup5\n        /* \"#utility.yul\":22381:22458   */\n      iszero\n      tag_385\n      jumpi\n        /* \"#utility.yul\":22433:22442   */\n      dup3\n        /* \"#utility.yul\":22428:22431   */\n      dup8\n        /* \"#utility.yul\":22424:22443   */\n      add\n        /* \"#utility.yul\":22418:22444   */\n      mload\n        /* \"#utility.yul\":22409:22444   */\n      swap1\n      pop\n        /* \"#utility.yul\":22381:22458   */\n    tag_385:\n        /* \"#utility.yul\":22484:22551   */\n      tag_386\n        /* \"#utility.yul\":22544:22550   */\n      dup6\n        /* \"#utility.yul\":22537:22542   */\n      dup3\n        /* \"#utility.yul\":22484:22551   */\n      tag_164\n      jump\t// in\n    tag_386:\n        /* \"#utility.yul\":22478:22482   */\n      dup7\n        /* \"#utility.yul\":22471:22552   */\n      sstore\n        /* \"#utility.yul\":22340:22562   */\n      pop\n        /* \"#utility.yul\":21675:22562   */\n      jump(tag_383)\n        /* \"#utility.yul\":21705:22323   */\n    tag_384:\n        /* \"#utility.yul\":21757:21761   */\n      0x1f\n        /* \"#utility.yul\":21753:21762   */\n      not\n        /* \"#utility.yul\":21745:21751   */\n      dup5\n        /* \"#utility.yul\":21741:21763   */\n      and\n        /* \"#utility.yul\":21791:21828   */\n      tag_387\n        /* \"#utility.yul\":21823:21827   */\n      dup7\n        /* \"#utility.yul\":21791:21828   */\n      tag_150\n      jump\t// in\n    tag_387:\n        /* \"#utility.yul\":21850:21851   */\n      0x00\n        /* \"#utility.yul\":21864:22072   */\n    tag_388:\n        /* \"#utility.yul\":21878:21885   */\n      dup3\n        /* \"#utility.yul\":21875:21876   */\n      dup2\n        /* \"#utility.yul\":21872:21886   */\n      lt\n        /* \"#utility.yul\":21864:22072   */\n      iszero\n      tag_390\n      jumpi\n        /* \"#utility.yul\":21957:21966   */\n      dup5\n        /* \"#utility.yul\":21952:21955   */\n      dup10\n        /* \"#utility.yul\":21948:21967   */\n      add\n        /* \"#utility.yul\":21942:21968   */\n      mload\n        /* \"#utility.yul\":21934:21940   */\n      dup3\n        /* \"#utility.yul\":21927:21969   */\n      sstore\n        /* \"#utility.yul\":22008:22009   */\n      0x01\n        /* \"#utility.yul\":22000:22006   */\n      dup3\n        /* \"#utility.yul\":21996:22010   */\n      add\n        /* \"#utility.yul\":21986:22010   */\n      swap2\n      pop\n        /* \"#utility.yul\":22055:22057   */\n      0x20\n        /* \"#utility.yul\":22044:22053   */\n      dup6\n        /* \"#utility.yul\":22040:22058   */\n      add\n        /* \"#utility.yul\":22027:22058   */\n      swap5\n      pop\n        /* \"#utility.yul\":21901:21905   */\n      0x20\n        /* \"#utility.yul\":21898:21899   */\n      dup2\n        /* \"#utility.yul\":21894:21906   */\n      add\n        /* \"#utility.yul\":21889:21906   */\n      swap1\n      pop\n        /* \"#utility.yul\":21864:22072   */\n      jump(tag_388)\n    tag_390:\n        /* \"#utility.yul\":22100:22106   */\n      dup7\n        /* \"#utility.yul\":22091:22098   */\n      dup4\n        /* \"#utility.yul\":22088:22107   */\n      lt\n        /* \"#utility.yul\":22085:22264   */\n      iszero\n      tag_391\n      jumpi\n        /* \"#utility.yul\":22158:22167   */\n      dup5\n        /* \"#utility.yul\":22153:22156   */\n      dup10\n        /* \"#utility.yul\":22149:22168   */\n      add\n        /* \"#utility.yul\":22143:22169   */\n      mload\n        /* \"#utility.yul\":22201:22249   */\n      tag_392\n        /* \"#utility.yul\":22243:22247   */\n      0x1f\n        /* \"#utility.yul\":22235:22241   */\n      dup10\n        /* \"#utility.yul\":22231:22248   */\n      and\n        /* \"#utility.yul\":22220:22229   */\n      dup3\n        /* \"#utility.yul\":22201:22249   */\n      tag_163\n      jump\t// in\n    tag_392:\n        /* \"#utility.yul\":22193:22199   */\n      dup4\n        /* \"#utility.yul\":22186:22250   */\n      sstore\n        /* \"#utility.yul\":22108:22264   */\n      pop\n        /* \"#utility.yul\":22085:22264   */\n    tag_391:\n        /* \"#utility.yul\":22310:22311   */\n      0x01\n        /* \"#utility.yul\":22306:22307   */\n      0x02\n        /* \"#utility.yul\":22298:22304   */\n      dup9\n        /* \"#utility.yul\":22294:22308   */\n      mul\n        /* \"#utility.yul\":22290:22312   */\n      add\n        /* \"#utility.yul\":22284:22288   */\n      dup9\n        /* \"#utility.yul\":22277:22313   */\n      sstore\n        /* \"#utility.yul\":21712:22323   */\n      pop\n      pop\n      pop\n        /* \"#utility.yul\":21675:22562   */\n    tag_383:\n      pop\n        /* \"#utility.yul\":21265:22568   */\n      pop\n      pop\n      pop\n        /* \"#utility.yul\":21173:22568   */\n      pop\n      pop\n      jump\t// out\n        /* \"#utility.yul\":22574:22997   */\n    tag_83:\n        /* \"#utility.yul\":22715:22719   */\n      0x00\n        /* \"#utility.yul\":22753:22755   */\n      0x40\n        /* \"#utility.yul\":22742:22751   */\n      dup3\n        /* \"#utility.yul\":22738:22756   */\n      add\n        /* \"#utility.yul\":22730:22756   */\n      swap1\n      pop\n        /* \"#utility.yul\":22802:22811   */\n      dup2\n        /* \"#utility.yul\":22796:22800   */\n      dup2\n        /* \"#utility.yul\":22792:22812   */\n      sub\n        /* \"#utility.yul\":22788:22789   */\n      0x00\n        /* \"#utility.yul\":22777:22786   */\n      dup4\n        /* \"#utility.yul\":22773:22790   */\n      add\n        /* \"#utility.yul\":22766:22813   */\n      mstore\n        /* \"#utility.yul\":22830:22908   */\n      tag_394\n        /* \"#utility.yul\":22903:22907   */\n      dup2\n        /* \"#utility.yul\":22894:22900   */\n      dup6\n        /* \"#utility.yul\":22830:22908   */\n      tag_137\n      jump\t// in\n    tag_394:\n        /* \"#utility.yul\":22822:22908   */\n      swap1\n      pop\n        /* \"#utility.yul\":22918:22990   */\n      tag_395\n        /* \"#utility.yul\":22986:22988   */\n      0x20\n        /* \"#utility.yul\":22975:22984   */\n      dup4\n        /* \"#utility.yul\":22971:22989   */\n      add\n        /* \"#utility.yul\":22962:22968   */\n      dup5\n        /* \"#utility.yul\":22918:22990   */\n      tag_134\n      jump\t// in\n    tag_395:\n        /* \"#utility.yul\":22574:22997   */\n      swap4\n      swap3\n      pop\n      pop\n      pop\n      jump\t// out\n\n    auxdata: 0xa2646970667358221220ac95dd2d041814d56721eaedd88a79cba4dc8f2fd80b7748b1e0417b7c68281964736f6c634300081a0033\n}\n",
				"bytecode": {
					"linkReferences": {},
					"object": "6080604052348015600e575f80fd5b5061161b8061001c5f395ff3fe608060405234801561000f575f80fd5b5060043610610060575f3560e01c80630a5cf0421461006457806331f45cab146100945780636813b53b146100b0578063788ef6d8146100e05780637acc0b2014610110578063fece877214610147575b5f80fd5b61007e60048036038101906100799190610aa6565b610177565b60405161008b9190610b91565b60405180910390f35b6100ae60048036038101906100a99190610bdb565b61020a565b005b6100ca60048036038101906100c59190610c19565b610300565b6040516100d79190610d7e565b60405180910390f35b6100fa60048036038101906100f59190610eca565b6105ab565b6040516101079190610fa4565b60405180910390f35b61012a60048036038101906101259190610c19565b6107c6565b60405161013e989796959493929190611014565b60405180910390f35b610161600480360381019061015c91906110a5565b6109ba565b60405161016e9190610fa4565b60405180910390f35b606060015f8373ffffffffffffffffffffffffffffffffffffffff1673ffffffffffffffffffffffffffffffffffffffff1681526020019081526020015f208054806020026020016040519081016040528092919081815260200182805480156101fe57602002820191905f5260205f20905b8154815260200190600101908083116101ea575b50505050509050919050565b813373ffffffffffffffffffffffffffffffffffffffff165f808381526020019081526020015f206001015f9054906101000a900473ffffffffffffffffffffffffffffffffffffffff1673ffffffffffffffffffffffffffffffffffffffff16146102ab576040517f08c379a00000000000000000000000000000000000000000000000000000000081526004016102a290611153565b60405180910390fd5b815f808581526020019081526020015f2060030181905550827f1a58b4c176a67828ebe2456bc637af85e69b115be11597e049b0669d13bea999836040516102f39190610fa4565b60405180910390a2505050565b6103086109e5565b5f805f8481526020019081526020015f205f01540361035c576040517f08c379a0000000000000000000000000000000000000000000000000000000008152600401610353906111bb565b60405180910390fd5b5f808381526020019081526020015f20604051806101000160405290815f8201548152602001600182015f9054906101000a900473ffffffffffffffffffffffffffffffffffffffff1673ffffffffffffffffffffffffffffffffffffffff1673ffffffffffffffffffffffffffffffffffffffff1681526020016002820180546103e690611206565b80601f016020809104026020016040519081016040528092919081815260200182805461041290611206565b801561045d5780601f106104345761010080835404028352916020019161045d565b820191905f5260205f20905b81548152906001019060200180831161044057829003601f168201915b50505050508152602001600382015481526020016004820154815260200160058201805461048a90611206565b80601f01602080910402602001604051908101604052809291908181526020018280546104b690611206565b80156105015780601f106104d857610100808354040283529160200191610501565b820191905f5260205f20905b8154815290600101906020018083116104e457829003601f168201915b5050505050815260200160068201805461051a90611206565b80601f016020809104026020016040519081016040528092919081815260200182805461054690611206565b80156105915780601f1061056857610100808354040283529160200191610591565b820191905f5260205f20905b81548152906001019060200180831161057457829003601f168201915b505050505081526020016007820154815250509050919050565b5f80423360025f8154809291906105c190611263565b919050556040516020016105d79392919061130f565b604051602081830303815290604052805190602001205f1c90505f6040518061010001604052808381526020013373ffffffffffffffffffffffffffffffffffffffff168152602001898152602001888152602001878152602001868152602001858152602001428152509050805f808481526020019081526020015f205f820151815f01556020820151816001015f6101000a81548173ffffffffffffffffffffffffffffffffffffffff021916908373ffffffffffffffffffffffffffffffffffffffff16021790555060408201518160020190816106b891906114e8565b50606082015181600301556080820151816004015560a08201518160050190816106e291906114e8565b5060c08201518160060190816106f891906114e8565b5060e0820151816007015590505060015f3373ffffffffffffffffffffffffffffffffffffffff1673ffffffffffffffffffffffffffffffffffffffff1681526020019081526020015f2082908060018154018082558091505060019003905f5260205f20015f90919091909150553373ffffffffffffffffffffffffffffffffffffffff16827f388ad0b48ceb5a4d1897ac418431eaad75ed9e997d4fe2e92eebc9d1262bf37c8a8a6040516107b09291906115b7565b60405180910390a3819250505095945050505050565b5f602052805f5260405f205f91509050805f015490806001015f9054906101000a900473ffffffffffffffffffffffffffffffffffffffff169080600201805461080f90611206565b80601f016020809104026020016040519081016040528092919081815260200182805461083b90611206565b80156108865780601f1061085d57610100808354040283529160200191610886565b820191905f5260205f20905b81548152906001019060200180831161086957829003601f168201915b5050505050908060030154908060040154908060050180546108a790611206565b80601f01602080910402602001604051908101604052809291908181526020018280546108d390611206565b801561091e5780601f106108f55761010080835404028352916020019161091e565b820191905f5260205f20905b81548152906001019060200180831161090157829003601f168201915b50505050509080600601805461093390611206565b80601f016020809104026020016040519081016040528092919081815260200182805461095f90611206565b80156109aa5780601f10610981576101008083540402835291602001916109aa565b820191905f5260205f20905b81548152906001019060200180831161098d57829003601f168201915b5050505050908060070154905088565b6001602052815f5260405f2081815481106109d3575f80fd5b905f5260205f20015f91509150505481565b6040518061010001604052805f81526020015f73ffffffffffffffffffffffffffffffffffffffff168152602001606081526020015f81526020015f815260200160608152602001606081526020015f81525090565b5f604051905090565b5f80fd5b5f80fd5b5f73ffffffffffffffffffffffffffffffffffffffff82169050919050565b5f610a7582610a4c565b9050919050565b610a8581610a6b565b8114610a8f575f80fd5b50565b5f81359050610aa081610a7c565b92915050565b5f60208284031215610abb57610aba610a44565b5b5f610ac884828501610a92565b91505092915050565b5f81519050919050565b5f82825260208201905092915050565b5f819050602082019050919050565b5f819050919050565b610b0c81610afa565b82525050565b5f610b1d8383610b03565b60208301905092915050565b5f602082019050919050565b5f610b3f82610ad1565b610b498185610adb565b9350610b5483610aeb565b805f5b83811015610b84578151610b6b8882610b12565b9750610b7683610b29565b925050600181019050610b57565b5085935050505092915050565b5f6020820190508181035f830152610ba98184610b35565b905092915050565b610bba81610afa565b8114610bc4575f80fd5b50565b5f81359050610bd581610bb1565b92915050565b5f8060408385031215610bf157610bf0610a44565b5b5f610bfe85828601610bc7565b9250506020610c0f85828601610bc7565b9150509250929050565b5f60208284031215610c2e57610c2d610a44565b5b5f610c3b84828501610bc7565b91505092915050565b610c4d81610a6b565b82525050565b5f81519050919050565b5f82825260208201905092915050565b8281835e5f83830152505050565b5f601f19601f8301169050919050565b5f610c9582610c53565b610c9f8185610c5d565b9350610caf818560208601610c6d565b610cb881610c7b565b840191505092915050565b5f61010083015f830151610cd95f860182610b03565b506020830151610cec6020860182610c44565b5060408301518482036040860152610d048282610c8b565b9150506060830151610d196060860182610b03565b506080830151610d2c6080860182610b03565b5060a083015184820360a0860152610d448282610c8b565b91505060c083015184820360c0860152610d5e8282610c8b565b91505060e0830151610d7360e0860182610b03565b508091505092915050565b5f6020820190508181035f830152610d968184610cc3565b905092915050565b5f80fd5b5f80fd5b7f4e487b71000000000000000000000000000000000000000000000000000000005f52604160045260245ffd5b610ddc82610c7b565b810181811067ffffffffffffffff82111715610dfb57610dfa610da6565b5b80604052505050565b5f610e0d610a3b565b9050610e198282610dd3565b919050565b5f67ffffffffffffffff821115610e3857610e37610da6565b5b610e4182610c7b565b9050602081019050919050565b828183375f83830152505050565b5f610e6e610e6984610e1e565b610e04565b905082815260208101848484011115610e8a57610e89610da2565b5b610e95848285610e4e565b509392505050565b5f82601f830112610eb157610eb0610d9e565b5b8135610ec1848260208601610e5c565b91505092915050565b5f805f805f60a08688031215610ee357610ee2610a44565b5b5f86013567ffffffffffffffff811115610f0057610eff610a48565b5b610f0c88828901610e9d565b9550506020610f1d88828901610bc7565b9450506040610f2e88828901610bc7565b935050606086013567ffffffffffffffff811115610f4f57610f4e610a48565b5b610f5b88828901610e9d565b925050608086013567ffffffffffffffff811115610f7c57610f7b610a48565b5b610f8888828901610e9d565b9150509295509295909350565b610f9e81610afa565b82525050565b5f602082019050610fb75f830184610f95565b92915050565b610fc681610a6b565b82525050565b5f82825260208201905092915050565b5f610fe682610c53565b610ff08185610fcc565b9350611000818560208601610c6d565b61100981610c7b565b840191505092915050565b5f610100820190506110285f83018b610f95565b611035602083018a610fbd565b81810360408301526110478189610fdc565b90506110566060830188610f95565b6110636080830187610f95565b81810360a08301526110758186610fdc565b905081810360c08301526110898185610fdc565b905061109860e0830184610f95565b9998505050505050505050565b5f80604083850312156110bb576110ba610a44565b5b5f6110c885828601610a92565b92505060206110d985828601610bc7565b9150509250929050565b7f4f6e6c79207468652070726f64756374206f776e65722063616e2075706461745f8201527f65207468652070726f6475637400000000000000000000000000000000000000602082015250565b5f61113d602d83610fcc565b9150611148826110e3565b604082019050919050565b5f6020820190508181035f83015261116a81611131565b9050919050565b7f50726f6475637420646f6573206e6f74206578697374000000000000000000005f82015250565b5f6111a5601683610fcc565b91506111b082611171565b602082019050919050565b5f6020820190508181035f8301526111d281611199565b9050919050565b7f4e487b71000000000000000000000000000000000000000000000000000000005f52602260045260245ffd5b5f600282049050600182168061121d57607f821691505b6020821081036112305761122f6111d9565b5b50919050565b7f4e487b71000000000000000000000000000000000000000000000000000000005f52601160045260245ffd5b5f61126d82610afa565b91507fffffffffffffffffffffffffffffffffffffffffffffffffffffffffffffffff820361129f5761129e611236565b5b600182019050919050565b5f819050919050565b6112c46112bf82610afa565b6112aa565b82525050565b5f8160601b9050919050565b5f6112e0826112ca565b9050919050565b5f6112f1826112d6565b9050919050565b61130961130482610a6b565b6112e7565b82525050565b5f61131a82866112b3565b60208201915061132a82856112f8565b60148201915061133a82846112b3565b602082019150819050949350505050565b5f819050815f5260205f209050919050565b5f6020601f8301049050919050565b5f82821b905092915050565b5f600883026113a77fffffffffffffffffffffffffffffffffffffffffffffffffffffffffffffffff8261136c565b6113b1868361136c565b95508019841693508086168417925050509392505050565b5f819050919050565b5f6113ec6113e76113e284610afa565b6113c9565b610afa565b9050919050565b5f819050919050565b611405836113d2565b611419611411826113f3565b848454611378565b825550505050565b5f90565b61142d611421565b6114388184846113fc565b505050565b5b8181101561145b576114505f82611425565b60018101905061143e565b5050565b601f8211156114a0576114718161134b565b61147a8461135d565b81016020851015611489578190505b61149d6114958561135d565b83018261143d565b50505b505050565b5f82821c905092915050565b5f6114c05f19846008026114a5565b1980831691505092915050565b5f6114d883836114b1565b9150826002028217905092915050565b6114f182610c53565b67ffffffffffffffff81111561150a57611509610da6565b5b6115148254611206565b61151f82828561145f565b5f60209050601f831160018114611550575f841561153e578287015190505b61154885826114cd565b8655506115af565b601f19841661155e8661134b565b5f5b8281101561158557848901518255600182019150602085019450602081019050611560565b868310156115a2578489015161159e601f8916826114b1565b8355505b6001600288020188555050505b505050505050565b5f6040820190508181035f8301526115cf8185610fdc565b90506115de6020830184610f95565b939250505056fea2646970667358221220ac95dd2d041814d56721eaedd88a79cba4dc8f2fd80b7748b1e0417b7c68281964736f6c634300081a0033",
					"opcodes": "PUSH1 0x80 PUSH1 0x40 MSTORE CALLVALUE DUP1 ISZERO PUSH1 0xE JUMPI PUSH0 DUP1 REVERT JUMPDEST POP PUSH2 0x161B DUP1 PUSH2 0x1C PUSH0 CODECOPY PUSH0 RETURN INVALID PUSH1 0x80 PUSH1 0x40 MSTORE CALLVALUE DUP1 ISZERO PUSH2 0xF JUMPI PUSH0 DUP1 REVERT JUMPDEST POP PUSH1 0x4 CALLDATASIZE LT PUSH2 0x60 JUMPI PUSH0 CALLDATALOAD PUSH1 0xE0 SHR DUP1 PUSH4 0xA5CF042 EQ PUSH2 0x64 JUMPI DUP1 PUSH4 0x31F45CAB EQ PUSH2 0x94 JUMPI DUP1 PUSH4 0x6813B53B EQ PUSH2 0xB0 JUMPI DUP1 PUSH4 0x788EF6D8 EQ PUSH2 0xE0 JUMPI DUP1 PUSH4 0x7ACC0B20 EQ PUSH2 0x110 JUMPI DUP1 PUSH4 0xFECE8772 EQ PUSH2 0x147 JUMPI JUMPDEST PUSH0 DUP1 REVERT JUMPDEST PUSH2 0x7E PUSH1 0x4 DUP1 CALLDATASIZE SUB DUP2 ADD SWAP1 PUSH2 0x79 SWAP2 SWAP1 PUSH2 0xAA6 JUMP JUMPDEST PUSH2 0x177 JUMP JUMPDEST PUSH1 0x40 MLOAD PUSH2 0x8B SWAP2 SWAP1 PUSH2 0xB91 JUMP JUMPDEST PUSH1 0x40 MLOAD DUP1 SWAP2 SUB SWAP1 RETURN JUMPDEST PUSH2 0xAE PUSH1 0x4 DUP1 CALLDATASIZE SUB DUP2 ADD SWAP1 PUSH2 0xA9 SWAP2 SWAP1 PUSH2 0xBDB JUMP JUMPDEST PUSH2 0x20A JUMP JUMPDEST STOP JUMPDEST PUSH2 0xCA PUSH1 0x4 DUP1 CALLDATASIZE SUB DUP2 ADD SWAP1 PUSH2 0xC5 SWAP2 SWAP1 PUSH2 0xC19 JUMP JUMPDEST PUSH2 0x300 JUMP JUMPDEST PUSH1 0x40 MLOAD PUSH2 0xD7 SWAP2 SWAP1 PUSH2 0xD7E JUMP JUMPDEST PUSH1 0x40 MLOAD DUP1 SWAP2 SUB SWAP1 RETURN JUMPDEST PUSH2 0xFA PUSH1 0x4 DUP1 CALLDATASIZE SUB DUP2 ADD SWAP1 PUSH2 0xF5 SWAP2 SWAP1 PUSH2 0xECA JUMP JUMPDEST PUSH2 0x5AB JUMP JUMPDEST PUSH1 0x40 MLOAD PUSH2 0x107 SWAP2 SWAP1 PUSH2 0xFA4 JUMP JUMPDEST PUSH1 0x40 MLOAD DUP1 SWAP2 SUB SWAP1 RETURN JUMPDEST PUSH2 0x12A PUSH1 0x4 DUP1 CALLDATASIZE SUB DUP2 ADD SWAP1 PUSH2 0x125 SWAP2 SWAP1 PUSH2 0xC19 JUMP JUMPDEST PUSH2 0x7C6 JUMP JUMPDEST PUSH1 0x40 MLOAD PUSH2 0x13E SWAP9 SWAP8 SWAP7 SWAP6 SWAP5 SWAP4 SWAP3 SWAP2 SWAP1 PUSH2 0x1014 JUMP JUMPDEST PUSH1 0x40 MLOAD DUP1 SWAP2 SUB SWAP1 RETURN JUMPDEST PUSH2 0x161 PUSH1 0x4 DUP1 CALLDATASIZE SUB DUP2 ADD SWAP1 PUSH2 0x15C SWAP2 SWAP1 PUSH2 0x10A5 JUMP JUMPDEST PUSH2 0x9BA JUMP JUMPDEST PUSH1 0x40 MLOAD PUSH2 0x16E SWAP2 SWAP1 PUSH2 0xFA4 JUMP JUMPDEST PUSH1 0x40 MLOAD DUP1 SWAP2 SUB SWAP1 RETURN JUMPDEST PUSH1 0x60 PUSH1 0x1 PUSH0 DUP4 PUSH20 0xFFFFFFFFFFFFFFFFFFFFFFFFFFFFFFFFFFFFFFFF AND PUSH20 0xFFFFFFFFFFFFFFFFFFFFFFFFFFFFFFFFFFFFFFFF AND DUP2 MSTORE PUSH1 0x20 ADD SWAP1 DUP2 MSTORE PUSH1 0x20 ADD PUSH0 KECCAK256 DUP1 SLOAD DUP1 PUSH1 0x20 MUL PUSH1 0x20 ADD PUSH1 0x40 MLOAD SWAP1 DUP2 ADD PUSH1 0x40 MSTORE DUP1 SWAP3 SWAP2 SWAP1 DUP2 DUP2 MSTORE PUSH1 0x20 ADD DUP3 DUP1 SLOAD DUP1 ISZERO PUSH2 0x1FE JUMPI PUSH1 0x20 MUL DUP3 ADD SWAP2 SWAP1 PUSH0 MSTORE PUSH1 0x20 PUSH0 KECCAK256 SWAP1 JUMPDEST DUP2 SLOAD DUP2 MSTORE PUSH1 0x20 ADD SWAP1 PUSH1 0x1 ADD SWAP1 DUP1 DUP4 GT PUSH2 0x1EA JUMPI JUMPDEST POP POP POP POP POP SWAP1 POP SWAP2 SWAP1 POP JUMP JUMPDEST DUP2 CALLER PUSH20 0xFFFFFFFFFFFFFFFFFFFFFFFFFFFFFFFFFFFFFFFF AND PUSH0 DUP1 DUP4 DUP2 MSTORE PUSH1 0x20 ADD SWAP1 DUP2 MSTORE PUSH1 0x20 ADD PUSH0 KECCAK256 PUSH1 0x1 ADD PUSH0 SWAP1 SLOAD SWAP1 PUSH2 0x100 EXP SWAP1 DIV PUSH20 0xFFFFFFFFFFFFFFFFFFFFFFFFFFFFFFFFFFFFFFFF AND PUSH20 0xFFFFFFFFFFFFFFFFFFFFFFFFFFFFFFFFFFFFFFFF AND EQ PUSH2 0x2AB JUMPI PUSH1 0x40 MLOAD PUSH32 0x8C379A000000000000000000000000000000000000000000000000000000000 DUP2 MSTORE PUSH1 0x4 ADD PUSH2 0x2A2 SWAP1 PUSH2 0x1153 JUMP JUMPDEST PUSH1 0x40 MLOAD DUP1 SWAP2 SUB SWAP1 REVERT JUMPDEST DUP2 PUSH0 DUP1 DUP6 DUP2 MSTORE PUSH1 0x20 ADD SWAP1 DUP2 MSTORE PUSH1 0x20 ADD PUSH0 KECCAK256 PUSH1 0x3 ADD DUP2 SWAP1 SSTORE POP DUP3 PUSH32 0x1A58B4C176A67828EBE2456BC637AF85E69B115BE11597E049B0669D13BEA999 DUP4 PUSH1 0x40 MLOAD PUSH2 0x2F3 SWAP2 SWAP1 PUSH2 0xFA4 JUMP JUMPDEST PUSH1 0x40 MLOAD DUP1 SWAP2 SUB SWAP1 LOG2 POP POP POP JUMP JUMPDEST PUSH2 0x308 PUSH2 0x9E5 JUMP JUMPDEST PUSH0 DUP1 PUSH0 DUP5 DUP2 MSTORE PUSH1 0x20 ADD SWAP1 DUP2 MSTORE PUSH1 0x20 ADD PUSH0 KECCAK256 PUSH0 ADD SLOAD SUB PUSH2 0x35C JUMPI PUSH1 0x40 MLOAD PUSH32 0x8C379A000000000000000000000000000000000000000000000000000000000 DUP2 MSTORE PUSH1 0x4 ADD PUSH2 0x353 SWAP1 PUSH2 0x11BB JUMP JUMPDEST PUSH1 0x40 MLOAD DUP1 SWAP2 SUB SWAP1 REVERT JUMPDEST PUSH0 DUP1 DUP4 DUP2 MSTORE PUSH1 0x20 ADD SWAP1 DUP2 MSTORE PUSH1 0x20 ADD PUSH0 KECCAK256 PUSH1 0x40 MLOAD DUP1 PUSH2 0x100 ADD PUSH1 0x40 MSTORE SWAP1 DUP2 PUSH0 DUP3 ADD SLOAD DUP2 MSTORE PUSH1 0x20 ADD PUSH1 0x1 DUP3 ADD PUSH0 SWAP1 SLOAD SWAP1 PUSH2 0x100 EXP SWAP1 DIV PUSH20 0xFFFFFFFFFFFFFFFFFFFFFFFFFFFFFFFFFFFFFFFF AND PUSH20 0xFFFFFFFFFFFFFFFFFFFFFFFFFFFFFFFFFFFFFFFF AND PUSH20 0xFFFFFFFFFFFFFFFFFFFFFFFFFFFFFFFFFFFFFFFF AND DUP2 MSTORE PUSH1 0x20 ADD PUSH1 0x2 DUP3 ADD DUP1 SLOAD PUSH2 0x3E6 SWAP1 PUSH2 0x1206 JUMP JUMPDEST DUP1 PUSH1 0x1F ADD PUSH1 0x20 DUP1 SWAP2 DIV MUL PUSH1 0x20 ADD PUSH1 0x40 MLOAD SWAP1 DUP2 ADD PUSH1 0x40 MSTORE DUP1 SWAP3 SWAP2 SWAP1 DUP2 DUP2 MSTORE PUSH1 0x20 ADD DUP3 DUP1 SLOAD PUSH2 0x412 SWAP1 PUSH2 0x1206 JUMP JUMPDEST DUP1 ISZERO PUSH2 0x45D JUMPI DUP1 PUSH1 0x1F LT PUSH2 0x434 JUMPI PUSH2 0x100 DUP1 DUP4 SLOAD DIV MUL DUP4 MSTORE SWAP2 PUSH1 0x20 ADD SWAP2 PUSH2 0x45D JUMP JUMPDEST DUP3 ADD SWAP2 SWAP1 PUSH0 MSTORE PUSH1 0x20 PUSH0 KECCAK256 SWAP1 JUMPDEST DUP2 SLOAD DUP2 MSTORE SWAP1 PUSH1 0x1 ADD SWAP1 PUSH1 0x20 ADD DUP1 DUP4 GT PUSH2 0x440 JUMPI DUP3 SWAP1 SUB PUSH1 0x1F AND DUP3 ADD SWAP2 JUMPDEST POP POP POP POP POP DUP2 MSTORE PUSH1 0x20 ADD PUSH1 0x3 DUP3 ADD SLOAD DUP2 MSTORE PUSH1 0x20 ADD PUSH1 0x4 DUP3 ADD SLOAD DUP2 MSTORE PUSH1 0x20 ADD PUSH1 0x5 DUP3 ADD DUP1 SLOAD PUSH2 0x48A SWAP1 PUSH2 0x1206 JUMP JUMPDEST DUP1 PUSH1 0x1F ADD PUSH1 0x20 DUP1 SWAP2 DIV MUL PUSH1 0x20 ADD PUSH1 0x40 MLOAD SWAP1 DUP2 ADD PUSH1 0x40 MSTORE DUP1 SWAP3 SWAP2 SWAP1 DUP2 DUP2 MSTORE PUSH1 0x20 ADD DUP3 DUP1 SLOAD PUSH2 0x4B6 SWAP1 PUSH2 0x1206 JUMP JUMPDEST DUP1 ISZERO PUSH2 0x501 JUMPI DUP1 PUSH1 0x1F LT PUSH2 0x4D8 JUMPI PUSH2 0x100 DUP1 DUP4 SLOAD DIV MUL DUP4 MSTORE SWAP2 PUSH1 0x20 ADD SWAP2 PUSH2 0x501 JUMP JUMPDEST DUP3 ADD SWAP2 SWAP1 PUSH0 MSTORE PUSH1 0x20 PUSH0 KECCAK256 SWAP1 JUMPDEST DUP2 SLOAD DUP2 MSTORE SWAP1 PUSH1 0x1 ADD SWAP1 PUSH1 0x20 ADD DUP1 DUP4 GT PUSH2 0x4E4 JUMPI DUP3 SWAP1 SUB PUSH1 0x1F AND DUP3 ADD SWAP2 JUMPDEST POP POP POP POP POP DUP2 MSTORE PUSH1 0x20 ADD PUSH1 0x6 DUP3 ADD DUP1 SLOAD PUSH2 0x51A SWAP1 PUSH2 0x1206 JUMP JUMPDEST DUP1 PUSH1 0x1F ADD PUSH1 0x20 DUP1 SWAP2 DIV MUL PUSH1 0x20 ADD PUSH1 0x40 MLOAD SWAP1 DUP2 ADD PUSH1 0x40 MSTORE DUP1 SWAP3 SWAP2 SWAP1 DUP2 DUP2 MSTORE PUSH1 0x20 ADD DUP3 DUP1 SLOAD PUSH2 0x546 SWAP1 PUSH2 0x1206 JUMP JUMPDEST DUP1 ISZERO PUSH2 0x591 JUMPI DUP1 PUSH1 0x1F LT PUSH2 0x568 JUMPI PUSH2 0x100 DUP1 DUP4 SLOAD DIV MUL DUP4 MSTORE SWAP2 PUSH1 0x20 ADD SWAP2 PUSH2 0x591 JUMP JUMPDEST DUP3 ADD SWAP2 SWAP1 PUSH0 MSTORE PUSH1 0x20 PUSH0 KECCAK256 SWAP1 JUMPDEST DUP2 SLOAD DUP2 MSTORE SWAP1 PUSH1 0x1 ADD SWAP1 PUSH1 0x20 ADD DUP1 DUP4 GT PUSH2 0x574 JUMPI DUP3 SWAP1 SUB PUSH1 0x1F AND DUP3 ADD SWAP2 JUMPDEST POP POP POP POP POP DUP2 MSTORE PUSH1 0x20 ADD PUSH1 0x7 DUP3 ADD SLOAD DUP2 MSTORE POP POP SWAP1 POP SWAP2 SWAP1 POP JUMP JUMPDEST PUSH0 DUP1 TIMESTAMP CALLER PUSH1 0x2 PUSH0 DUP2 SLOAD DUP1 SWAP3 SWAP2 SWAP1 PUSH2 0x5C1 SWAP1 PUSH2 0x1263 JUMP JUMPDEST SWAP2 SWAP1 POP SSTORE PUSH1 0x40 MLOAD PUSH1 0x20 ADD PUSH2 0x5D7 SWAP4 SWAP3 SWAP2 SWAP1 PUSH2 0x130F JUMP JUMPDEST PUSH1 0x40 MLOAD PUSH1 0x20 DUP2 DUP4 SUB SUB DUP2 MSTORE SWAP1 PUSH1 0x40 MSTORE DUP1 MLOAD SWAP1 PUSH1 0x20 ADD KECCAK256 PUSH0 SHR SWAP1 POP PUSH0 PUSH1 0x40 MLOAD DUP1 PUSH2 0x100 ADD PUSH1 0x40 MSTORE DUP1 DUP4 DUP2 MSTORE PUSH1 0x20 ADD CALLER PUSH20 0xFFFFFFFFFFFFFFFFFFFFFFFFFFFFFFFFFFFFFFFF AND DUP2 MSTORE PUSH1 0x20 ADD DUP10 DUP2 MSTORE PUSH1 0x20 ADD DUP9 DUP2 MSTORE PUSH1 0x20 ADD DUP8 DUP2 MSTORE PUSH1 0x20 ADD DUP7 DUP2 MSTORE PUSH1 0x20 ADD DUP6 DUP2 MSTORE PUSH1 0x20 ADD TIMESTAMP DUP2 MSTORE POP SWAP1 POP DUP1 PUSH0 DUP1 DUP5 DUP2 MSTORE PUSH1 0x20 ADD SWAP1 DUP2 MSTORE PUSH1 0x20 ADD PUSH0 KECCAK256 PUSH0 DUP3 ADD MLOAD DUP2 PUSH0 ADD SSTORE PUSH1 0x20 DUP3 ADD MLOAD DUP2 PUSH1 0x1 ADD PUSH0 PUSH2 0x100 EXP DUP2 SLOAD DUP2 PUSH20 0xFFFFFFFFFFFFFFFFFFFFFFFFFFFFFFFFFFFFFFFF MUL NOT AND SWAP1 DUP4 PUSH20 0xFFFFFFFFFFFFFFFFFFFFFFFFFFFFFFFFFFFFFFFF AND MUL OR SWAP1 SSTORE POP PUSH1 0x40 DUP3 ADD MLOAD DUP2 PUSH1 0x2 ADD SWAP1 DUP2 PUSH2 0x6B8 SWAP2 SWAP1 PUSH2 0x14E8 JUMP JUMPDEST POP PUSH1 0x60 DUP3 ADD MLOAD DUP2 PUSH1 0x3 ADD SSTORE PUSH1 0x80 DUP3 ADD MLOAD DUP2 PUSH1 0x4 ADD SSTORE PUSH1 0xA0 DUP3 ADD MLOAD DUP2 PUSH1 0x5 ADD SWAP1 DUP2 PUSH2 0x6E2 SWAP2 SWAP1 PUSH2 0x14E8 JUMP JUMPDEST POP PUSH1 0xC0 DUP3 ADD MLOAD DUP2 PUSH1 0x6 ADD SWAP1 DUP2 PUSH2 0x6F8 SWAP2 SWAP1 PUSH2 0x14E8 JUMP JUMPDEST POP PUSH1 0xE0 DUP3 ADD MLOAD DUP2 PUSH1 0x7 ADD SSTORE SWAP1 POP POP PUSH1 0x1 PUSH0 CALLER PUSH20 0xFFFFFFFFFFFFFFFFFFFFFFFFFFFFFFFFFFFFFFFF AND PUSH20 0xFFFFFFFFFFFFFFFFFFFFFFFFFFFFFFFFFFFFFFFF AND DUP2 MSTORE PUSH1 0x20 ADD SWAP1 DUP2 MSTORE PUSH1 0x20 ADD PUSH0 KECCAK256 DUP3 SWAP1 DUP1 PUSH1 0x1 DUP2 SLOAD ADD DUP1 DUP3 SSTORE DUP1 SWAP2 POP POP PUSH1 0x1 SWAP1 SUB SWAP1 PUSH0 MSTORE PUSH1 0x20 PUSH0 KECCAK256 ADD PUSH0 SWAP1 SWAP2 SWAP1 SWAP2 SWAP1 SWAP2 POP SSTORE CALLER PUSH20 0xFFFFFFFFFFFFFFFFFFFFFFFFFFFFFFFFFFFFFFFF AND DUP3 PUSH32 0x388AD0B48CEB5A4D1897AC418431EAAD75ED9E997D4FE2E92EEBC9D1262BF37C DUP11 DUP11 PUSH1 0x40 MLOAD PUSH2 0x7B0 SWAP3 SWAP2 SWAP1 PUSH2 0x15B7 JUMP JUMPDEST PUSH1 0x40 MLOAD DUP1 SWAP2 SUB SWAP1 LOG3 DUP2 SWAP3 POP POP POP SWAP6 SWAP5 POP POP POP POP POP JUMP JUMPDEST PUSH0 PUSH1 0x20 MSTORE DUP1 PUSH0 MSTORE PUSH1 0x40 PUSH0 KECCAK256 PUSH0 SWAP2 POP SWAP1 POP DUP1 PUSH0 ADD SLOAD SWAP1 DUP1 PUSH1 0x1 ADD PUSH0 SWAP1 SLOAD SWAP1 PUSH2 0x100 EXP SWAP1 DIV PUSH20 0xFFFFFFFFFFFFFFFFFFFFFFFFFFFFFFFFFFFFFFFF AND SWAP1 DUP1 PUSH1 0x2 ADD DUP1 SLOAD PUSH2 0x80F SWAP1 PUSH2 0x1206 JUMP JUMPDEST DUP1 PUSH1 0x1F ADD PUSH1 0x20 DUP1 SWAP2 DIV MUL PUSH1 0x20 ADD PUSH1 0x40 MLOAD SWAP1 DUP2 ADD PUSH1 0x40 MSTORE DUP1 SWAP3 SWAP2 SWAP1 DUP2 DUP2 MSTORE PUSH1 0x20 ADD DUP3 DUP1 SLOAD PUSH2 0x83B SWAP1 PUSH2 0x1206 JUMP JUMPDEST DUP1 ISZERO PUSH2 0x886 JUMPI DUP1 PUSH1 0x1F LT PUSH2 0x85D JUMPI PUSH2 0x100 DUP1 DUP4 SLOAD DIV MUL DUP4 MSTORE SWAP2 PUSH1 0x20 ADD SWAP2 PUSH2 0x886 JUMP JUMPDEST DUP3 ADD SWAP2 SWAP1 PUSH0 MSTORE PUSH1 0x20 PUSH0 KECCAK256 SWAP1 JUMPDEST DUP2 SLOAD DUP2 MSTORE SWAP1 PUSH1 0x1 ADD SWAP1 PUSH1 0x20 ADD DUP1 DUP4 GT PUSH2 0x869 JUMPI DUP3 SWAP1 SUB PUSH1 0x1F AND DUP3 ADD SWAP2 JUMPDEST POP POP POP POP POP SWAP1 DUP1 PUSH1 0x3 ADD SLOAD SWAP1 DUP1 PUSH1 0x4 ADD SLOAD SWAP1 DUP1 PUSH1 0x5 ADD DUP1 SLOAD PUSH2 0x8A7 SWAP1 PUSH2 0x1206 JUMP JUMPDEST DUP1 PUSH1 0x1F ADD PUSH1 0x20 DUP1 SWAP2 DIV MUL PUSH1 0x20 ADD PUSH1 0x40 MLOAD SWAP1 DUP2 ADD PUSH1 0x40 MSTORE DUP1 SWAP3 SWAP2 SWAP1 DUP2 DUP2 MSTORE PUSH1 0x20 ADD DUP3 DUP1 SLOAD PUSH2 0x8D3 SWAP1 PUSH2 0x1206 JUMP JUMPDEST DUP1 ISZERO PUSH2 0x91E JUMPI DUP1 PUSH1 0x1F LT PUSH2 0x8F5 JUMPI PUSH2 0x100 DUP1 DUP4 SLOAD DIV MUL DUP4 MSTORE SWAP2 PUSH1 0x20 ADD SWAP2 PUSH2 0x91E JUMP JUMPDEST DUP3 ADD SWAP2 SWAP1 PUSH0 MSTORE PUSH1 0x20 PUSH0 KECCAK256 SWAP1 JUMPDEST DUP2 SLOAD DUP2 MSTORE SWAP1 PUSH1 0x1 ADD SWAP1 PUSH1 0x20 ADD DUP1 DUP4 GT PUSH2 0x901 JUMPI DUP3 SWAP1 SUB PUSH1 0x1F AND DUP3 ADD SWAP2 JUMPDEST POP POP POP POP POP SWAP1 DUP1 PUSH1 0x6 ADD DUP1 SLOAD PUSH2 0x933 SWAP1 PUSH2 0x1206 JUMP JUMPDEST DUP1 PUSH1 0x1F ADD PUSH1 0x20 DUP1 SWAP2 DIV MUL PUSH1 0x20 ADD PUSH1 0x40 MLOAD SWAP1 DUP2 ADD PUSH1 0x40 MSTORE DUP1 SWAP3 SWAP2 SWAP1 DUP2 DUP2 MSTORE PUSH1 0x20 ADD DUP3 DUP1 SLOAD PUSH2 0x95F SWAP1 PUSH2 0x1206 JUMP JUMPDEST DUP1 ISZERO PUSH2 0x9AA JUMPI DUP1 PUSH1 0x1F LT PUSH2 0x981 JUMPI PUSH2 0x100 DUP1 DUP4 SLOAD DIV MUL DUP4 MSTORE SWAP2 PUSH1 0x20 ADD SWAP2 PUSH2 0x9AA JUMP JUMPDEST DUP3 ADD SWAP2 SWAP1 PUSH0 MSTORE PUSH1 0x20 PUSH0 KECCAK256 SWAP1 JUMPDEST DUP2 SLOAD DUP2 MSTORE SWAP1 PUSH1 0x1 ADD SWAP1 PUSH1 0x20 ADD DUP1 DUP4 GT PUSH2 0x98D JUMPI DUP3 SWAP1 SUB PUSH1 0x1F AND DUP3 ADD SWAP2 JUMPDEST POP POP POP POP POP SWAP1 DUP1 PUSH1 0x7 ADD SLOAD SWAP1 POP DUP9 JUMP JUMPDEST PUSH1 0x1 PUSH1 0x20 MSTORE DUP2 PUSH0 MSTORE PUSH1 0x40 PUSH0 KECCAK256 DUP2 DUP2 SLOAD DUP2 LT PUSH2 0x9D3 JUMPI PUSH0 DUP1 REVERT JUMPDEST SWAP1 PUSH0 MSTORE PUSH1 0x20 PUSH0 KECCAK256 ADD PUSH0 SWAP2 POP SWAP2 POP POP SLOAD DUP2 JUMP JUMPDEST PUSH1 0x40 MLOAD DUP1 PUSH2 0x100 ADD PUSH1 0x40 MSTORE DUP1 PUSH0 DUP2 MSTORE PUSH1 0x20 ADD PUSH0 PUSH20 0xFFFFFFFFFFFFFFFFFFFFFFFFFFFFFFFFFFFFFFFF AND DUP2 MSTORE PUSH1 0x20 ADD PUSH1 0x60 DUP2 MSTORE PUSH1 0x20 ADD PUSH0 DUP2 MSTORE PUSH1 0x20 ADD PUSH0 DUP2 MSTORE PUSH1 0x20 ADD PUSH1 0x60 DUP2 MSTORE PUSH1 0x20 ADD PUSH1 0x60 DUP2 MSTORE PUSH1 0x20 ADD PUSH0 DUP2 MSTORE POP SWAP1 JUMP JUMPDEST PUSH0 PUSH1 0x40 MLOAD SWAP1 POP SWAP1 JUMP JUMPDEST PUSH0 DUP1 REVERT JUMPDEST PUSH0 DUP1 REVERT JUMPDEST PUSH0 PUSH20 0xFFFFFFFFFFFFFFFFFFFFFFFFFFFFFFFFFFFFFFFF DUP3 AND SWAP1 POP SWAP2 SWAP1 POP JUMP JUMPDEST PUSH0 PUSH2 0xA75 DUP3 PUSH2 0xA4C JUMP JUMPDEST SWAP1 POP SWAP2 SWAP1 POP JUMP JUMPDEST PUSH2 0xA85 DUP2 PUSH2 0xA6B JUMP JUMPDEST DUP2 EQ PUSH2 0xA8F JUMPI PUSH0 DUP1 REVERT JUMPDEST POP JUMP JUMPDEST PUSH0 DUP2 CALLDATALOAD SWAP1 POP PUSH2 0xAA0 DUP2 PUSH2 0xA7C JUMP JUMPDEST SWAP3 SWAP2 POP POP JUMP JUMPDEST PUSH0 PUSH1 0x20 DUP3 DUP5 SUB SLT ISZERO PUSH2 0xABB JUMPI PUSH2 0xABA PUSH2 0xA44 JUMP JUMPDEST JUMPDEST PUSH0 PUSH2 0xAC8 DUP5 DUP3 DUP6 ADD PUSH2 0xA92 JUMP JUMPDEST SWAP2 POP POP SWAP3 SWAP2 POP POP JUMP JUMPDEST PUSH0 DUP2 MLOAD SWAP1 POP SWAP2 SWAP1 POP JUMP JUMPDEST PUSH0 DUP3 DUP3 MSTORE PUSH1 0x20 DUP3 ADD SWAP1 POP SWAP3 SWAP2 POP POP JUMP JUMPDEST PUSH0 DUP2 SWAP1 POP PUSH1 0x20 DUP3 ADD SWAP1 POP SWAP2 SWAP1 POP JUMP JUMPDEST PUSH0 DUP2 SWAP1 POP SWAP2 SWAP1 POP JUMP JUMPDEST PUSH2 0xB0C DUP2 PUSH2 0xAFA JUMP JUMPDEST DUP3 MSTORE POP POP JUMP JUMPDEST PUSH0 PUSH2 0xB1D DUP4 DUP4 PUSH2 0xB03 JUMP JUMPDEST PUSH1 0x20 DUP4 ADD SWAP1 POP SWAP3 SWAP2 POP POP JUMP JUMPDEST PUSH0 PUSH1 0x20 DUP3 ADD SWAP1 POP SWAP2 SWAP1 POP JUMP JUMPDEST PUSH0 PUSH2 0xB3F DUP3 PUSH2 0xAD1 JUMP JUMPDEST PUSH2 0xB49 DUP2 DUP6 PUSH2 0xADB JUMP JUMPDEST SWAP4 POP PUSH2 0xB54 DUP4 PUSH2 0xAEB JUMP JUMPDEST DUP1 PUSH0 JUMPDEST DUP4 DUP2 LT ISZERO PUSH2 0xB84 JUMPI DUP2 MLOAD PUSH2 0xB6B DUP9 DUP3 PUSH2 0xB12 JUMP JUMPDEST SWAP8 POP PUSH2 0xB76 DUP4 PUSH2 0xB29 JUMP JUMPDEST SWAP3 POP POP PUSH1 0x1 DUP2 ADD SWAP1 POP PUSH2 0xB57 JUMP JUMPDEST POP DUP6 SWAP4 POP POP POP POP SWAP3 SWAP2 POP POP JUMP JUMPDEST PUSH0 PUSH1 0x20 DUP3 ADD SWAP1 POP DUP2 DUP2 SUB PUSH0 DUP4 ADD MSTORE PUSH2 0xBA9 DUP2 DUP5 PUSH2 0xB35 JUMP JUMPDEST SWAP1 POP SWAP3 SWAP2 POP POP JUMP JUMPDEST PUSH2 0xBBA DUP2 PUSH2 0xAFA JUMP JUMPDEST DUP2 EQ PUSH2 0xBC4 JUMPI PUSH0 DUP1 REVERT JUMPDEST POP JUMP JUMPDEST PUSH0 DUP2 CALLDATALOAD SWAP1 POP PUSH2 0xBD5 DUP2 PUSH2 0xBB1 JUMP JUMPDEST SWAP3 SWAP2 POP POP JUMP JUMPDEST PUSH0 DUP1 PUSH1 0x40 DUP4 DUP6 SUB SLT ISZERO PUSH2 0xBF1 JUMPI PUSH2 0xBF0 PUSH2 0xA44 JUMP JUMPDEST JUMPDEST PUSH0 PUSH2 0xBFE DUP6 DUP3 DUP7 ADD PUSH2 0xBC7 JUMP JUMPDEST SWAP3 POP POP PUSH1 0x20 PUSH2 0xC0F DUP6 DUP3 DUP7 ADD PUSH2 0xBC7 JUMP JUMPDEST SWAP2 POP POP SWAP3 POP SWAP3 SWAP1 POP JUMP JUMPDEST PUSH0 PUSH1 0x20 DUP3 DUP5 SUB SLT ISZERO PUSH2 0xC2E JUMPI PUSH2 0xC2D PUSH2 0xA44 JUMP JUMPDEST JUMPDEST PUSH0 PUSH2 0xC3B DUP5 DUP3 DUP6 ADD PUSH2 0xBC7 JUMP JUMPDEST SWAP2 POP POP SWAP3 SWAP2 POP POP JUMP JUMPDEST PUSH2 0xC4D DUP2 PUSH2 0xA6B JUMP JUMPDEST DUP3 MSTORE POP POP JUMP JUMPDEST PUSH0 DUP2 MLOAD SWAP1 POP SWAP2 SWAP1 POP JUMP JUMPDEST PUSH0 DUP3 DUP3 MSTORE PUSH1 0x20 DUP3 ADD SWAP1 POP SWAP3 SWAP2 POP POP JUMP JUMPDEST DUP3 DUP2 DUP4 MCOPY PUSH0 DUP4 DUP4 ADD MSTORE POP POP POP JUMP JUMPDEST PUSH0 PUSH1 0x1F NOT PUSH1 0x1F DUP4 ADD AND SWAP1 POP SWAP2 SWAP1 POP JUMP JUMPDEST PUSH0 PUSH2 0xC95 DUP3 PUSH2 0xC53 JUMP JUMPDEST PUSH2 0xC9F DUP2 DUP6 PUSH2 0xC5D JUMP JUMPDEST SWAP4 POP PUSH2 0xCAF DUP2 DUP6 PUSH1 0x20 DUP7 ADD PUSH2 0xC6D JUMP JUMPDEST PUSH2 0xCB8 DUP2 PUSH2 0xC7B JUMP JUMPDEST DUP5 ADD SWAP2 POP POP SWAP3 SWAP2 POP POP JUMP JUMPDEST PUSH0 PUSH2 0x100 DUP4 ADD PUSH0 DUP4 ADD MLOAD PUSH2 0xCD9 PUSH0 DUP7 ADD DUP3 PUSH2 0xB03 JUMP JUMPDEST POP PUSH1 0x20 DUP4 ADD MLOAD PUSH2 0xCEC PUSH1 0x20 DUP7 ADD DUP3 PUSH2 0xC44 JUMP JUMPDEST POP PUSH1 0x40 DUP4 ADD MLOAD DUP5 DUP3 SUB PUSH1 0x40 DUP7 ADD MSTORE PUSH2 0xD04 DUP3 DUP3 PUSH2 0xC8B JUMP JUMPDEST SWAP2 POP POP PUSH1 0x60 DUP4 ADD MLOAD PUSH2 0xD19 PUSH1 0x60 DUP7 ADD DUP3 PUSH2 0xB03 JUMP JUMPDEST POP PUSH1 0x80 DUP4 ADD MLOAD PUSH2 0xD2C PUSH1 0x80 DUP7 ADD DUP3 PUSH2 0xB03 JUMP JUMPDEST POP PUSH1 0xA0 DUP4 ADD MLOAD DUP5 DUP3 SUB PUSH1 0xA0 DUP7 ADD MSTORE PUSH2 0xD44 DUP3 DUP3 PUSH2 0xC8B JUMP JUMPDEST SWAP2 POP POP PUSH1 0xC0 DUP4 ADD MLOAD DUP5 DUP3 SUB PUSH1 0xC0 DUP7 ADD MSTORE PUSH2 0xD5E DUP3 DUP3 PUSH2 0xC8B JUMP JUMPDEST SWAP2 POP POP PUSH1 0xE0 DUP4 ADD MLOAD PUSH2 0xD73 PUSH1 0xE0 DUP7 ADD DUP3 PUSH2 0xB03 JUMP JUMPDEST POP DUP1 SWAP2 POP POP SWAP3 SWAP2 POP POP JUMP JUMPDEST PUSH0 PUSH1 0x20 DUP3 ADD SWAP1 POP DUP2 DUP2 SUB PUSH0 DUP4 ADD MSTORE PUSH2 0xD96 DUP2 DUP5 PUSH2 0xCC3 JUMP JUMPDEST SWAP1 POP SWAP3 SWAP2 POP POP JUMP JUMPDEST PUSH0 DUP1 REVERT JUMPDEST PUSH0 DUP1 REVERT JUMPDEST PUSH32 0x4E487B7100000000000000000000000000000000000000000000000000000000 PUSH0 MSTORE PUSH1 0x41 PUSH1 0x4 MSTORE PUSH1 0x24 PUSH0 REVERT JUMPDEST PUSH2 0xDDC DUP3 PUSH2 0xC7B JUMP JUMPDEST DUP2 ADD DUP2 DUP2 LT PUSH8 0xFFFFFFFFFFFFFFFF DUP3 GT OR ISZERO PUSH2 0xDFB JUMPI PUSH2 0xDFA PUSH2 0xDA6 JUMP JUMPDEST JUMPDEST DUP1 PUSH1 0x40 MSTORE POP POP POP JUMP JUMPDEST PUSH0 PUSH2 0xE0D PUSH2 0xA3B JUMP JUMPDEST SWAP1 POP PUSH2 0xE19 DUP3 DUP3 PUSH2 0xDD3 JUMP JUMPDEST SWAP2 SWAP1 POP JUMP JUMPDEST PUSH0 PUSH8 0xFFFFFFFFFFFFFFFF DUP3 GT ISZERO PUSH2 0xE38 JUMPI PUSH2 0xE37 PUSH2 0xDA6 JUMP JUMPDEST JUMPDEST PUSH2 0xE41 DUP3 PUSH2 0xC7B JUMP JUMPDEST SWAP1 POP PUSH1 0x20 DUP2 ADD SWAP1 POP SWAP2 SWAP1 POP JUMP JUMPDEST DUP3 DUP2 DUP4 CALLDATACOPY PUSH0 DUP4 DUP4 ADD MSTORE POP POP POP JUMP JUMPDEST PUSH0 PUSH2 0xE6E PUSH2 0xE69 DUP5 PUSH2 0xE1E JUMP JUMPDEST PUSH2 0xE04 JUMP JUMPDEST SWAP1 POP DUP3 DUP2 MSTORE PUSH1 0x20 DUP2 ADD DUP5 DUP5 DUP5 ADD GT ISZERO PUSH2 0xE8A JUMPI PUSH2 0xE89 PUSH2 0xDA2 JUMP JUMPDEST JUMPDEST PUSH2 0xE95 DUP5 DUP3 DUP6 PUSH2 0xE4E JUMP JUMPDEST POP SWAP4 SWAP3 POP POP POP JUMP JUMPDEST PUSH0 DUP3 PUSH1 0x1F DUP4 ADD SLT PUSH2 0xEB1 JUMPI PUSH2 0xEB0 PUSH2 0xD9E JUMP JUMPDEST JUMPDEST DUP2 CALLDATALOAD PUSH2 0xEC1 DUP5 DUP3 PUSH1 0x20 DUP7 ADD PUSH2 0xE5C JUMP JUMPDEST SWAP2 POP POP SWAP3 SWAP2 POP POP JUMP JUMPDEST PUSH0 DUP1 PUSH0 DUP1 PUSH0 PUSH1 0xA0 DUP7 DUP9 SUB SLT ISZERO PUSH2 0xEE3 JUMPI PUSH2 0xEE2 PUSH2 0xA44 JUMP JUMPDEST JUMPDEST PUSH0 DUP7 ADD CALLDATALOAD PUSH8 0xFFFFFFFFFFFFFFFF DUP2 GT ISZERO PUSH2 0xF00 JUMPI PUSH2 0xEFF PUSH2 0xA48 JUMP JUMPDEST JUMPDEST PUSH2 0xF0C DUP9 DUP3 DUP10 ADD PUSH2 0xE9D JUMP JUMPDEST SWAP6 POP POP PUSH1 0x20 PUSH2 0xF1D DUP9 DUP3 DUP10 ADD PUSH2 0xBC7 JUMP JUMPDEST SWAP5 POP POP PUSH1 0x40 PUSH2 0xF2E DUP9 DUP3 DUP10 ADD PUSH2 0xBC7 JUMP JUMPDEST SWAP4 POP POP PUSH1 0x60 DUP7 ADD CALLDATALOAD PUSH8 0xFFFFFFFFFFFFFFFF DUP2 GT ISZERO PUSH2 0xF4F JUMPI PUSH2 0xF4E PUSH2 0xA48 JUMP JUMPDEST JUMPDEST PUSH2 0xF5B DUP9 DUP3 DUP10 ADD PUSH2 0xE9D JUMP JUMPDEST SWAP3 POP POP PUSH1 0x80 DUP7 ADD CALLDATALOAD PUSH8 0xFFFFFFFFFFFFFFFF DUP2 GT ISZERO PUSH2 0xF7C JUMPI PUSH2 0xF7B PUSH2 0xA48 JUMP JUMPDEST JUMPDEST PUSH2 0xF88 DUP9 DUP3 DUP10 ADD PUSH2 0xE9D JUMP JUMPDEST SWAP2 POP POP SWAP3 SWAP6 POP SWAP3 SWAP6 SWAP1 SWAP4 POP JUMP JUMPDEST PUSH2 0xF9E DUP2 PUSH2 0xAFA JUMP JUMPDEST DUP3 MSTORE POP POP JUMP JUMPDEST PUSH0 PUSH1 0x20 DUP3 ADD SWAP1 POP PUSH2 0xFB7 PUSH0 DUP4 ADD DUP5 PUSH2 0xF95 JUMP JUMPDEST SWAP3 SWAP2 POP POP JUMP JUMPDEST PUSH2 0xFC6 DUP2 PUSH2 0xA6B JUMP JUMPDEST DUP3 MSTORE POP POP JUMP JUMPDEST PUSH0 DUP3 DUP3 MSTORE PUSH1 0x20 DUP3 ADD SWAP1 POP SWAP3 SWAP2 POP POP JUMP JUMPDEST PUSH0 PUSH2 0xFE6 DUP3 PUSH2 0xC53 JUMP JUMPDEST PUSH2 0xFF0 DUP2 DUP6 PUSH2 0xFCC JUMP JUMPDEST SWAP4 POP PUSH2 0x1000 DUP2 DUP6 PUSH1 0x20 DUP7 ADD PUSH2 0xC6D JUMP JUMPDEST PUSH2 0x1009 DUP2 PUSH2 0xC7B JUMP JUMPDEST DUP5 ADD SWAP2 POP POP SWAP3 SWAP2 POP POP JUMP JUMPDEST PUSH0 PUSH2 0x100 DUP3 ADD SWAP1 POP PUSH2 0x1028 PUSH0 DUP4 ADD DUP12 PUSH2 0xF95 JUMP JUMPDEST PUSH2 0x1035 PUSH1 0x20 DUP4 ADD DUP11 PUSH2 0xFBD JUMP JUMPDEST DUP2 DUP2 SUB PUSH1 0x40 DUP4 ADD MSTORE PUSH2 0x1047 DUP2 DUP10 PUSH2 0xFDC JUMP JUMPDEST SWAP1 POP PUSH2 0x1056 PUSH1 0x60 DUP4 ADD DUP9 PUSH2 0xF95 JUMP JUMPDEST PUSH2 0x1063 PUSH1 0x80 DUP4 ADD DUP8 PUSH2 0xF95 JUMP JUMPDEST DUP2 DUP2 SUB PUSH1 0xA0 DUP4 ADD MSTORE PUSH2 0x1075 DUP2 DUP7 PUSH2 0xFDC JUMP JUMPDEST SWAP1 POP DUP2 DUP2 SUB PUSH1 0xC0 DUP4 ADD MSTORE PUSH2 0x1089 DUP2 DUP6 PUSH2 0xFDC JUMP JUMPDEST SWAP1 POP PUSH2 0x1098 PUSH1 0xE0 DUP4 ADD DUP5 PUSH2 0xF95 JUMP JUMPDEST SWAP10 SWAP9 POP POP POP POP POP POP POP POP POP JUMP JUMPDEST PUSH0 DUP1 PUSH1 0x40 DUP4 DUP6 SUB SLT ISZERO PUSH2 0x10BB JUMPI PUSH2 0x10BA PUSH2 0xA44 JUMP JUMPDEST JUMPDEST PUSH0 PUSH2 0x10C8 DUP6 DUP3 DUP7 ADD PUSH2 0xA92 JUMP JUMPDEST SWAP3 POP POP PUSH1 0x20 PUSH2 0x10D9 DUP6 DUP3 DUP7 ADD PUSH2 0xBC7 JUMP JUMPDEST SWAP2 POP POP SWAP3 POP SWAP3 SWAP1 POP JUMP JUMPDEST PUSH32 0x4F6E6C79207468652070726F64756374206F776E65722063616E207570646174 PUSH0 DUP3 ADD MSTORE PUSH32 0x65207468652070726F6475637400000000000000000000000000000000000000 PUSH1 0x20 DUP3 ADD MSTORE POP JUMP JUMPDEST PUSH0 PUSH2 0x113D PUSH1 0x2D DUP4 PUSH2 0xFCC JUMP JUMPDEST SWAP2 POP PUSH2 0x1148 DUP3 PUSH2 0x10E3 JUMP JUMPDEST PUSH1 0x40 DUP3 ADD SWAP1 POP SWAP2 SWAP1 POP JUMP JUMPDEST PUSH0 PUSH1 0x20 DUP3 ADD SWAP1 POP DUP2 DUP2 SUB PUSH0 DUP4 ADD MSTORE PUSH2 0x116A DUP2 PUSH2 0x1131 JUMP JUMPDEST SWAP1 POP SWAP2 SWAP1 POP JUMP JUMPDEST PUSH32 0x50726F6475637420646F6573206E6F7420657869737400000000000000000000 PUSH0 DUP3 ADD MSTORE POP JUMP JUMPDEST PUSH0 PUSH2 0x11A5 PUSH1 0x16 DUP4 PUSH2 0xFCC JUMP JUMPDEST SWAP2 POP PUSH2 0x11B0 DUP3 PUSH2 0x1171 JUMP JUMPDEST PUSH1 0x20 DUP3 ADD SWAP1 POP SWAP2 SWAP1 POP JUMP JUMPDEST PUSH0 PUSH1 0x20 DUP3 ADD SWAP1 POP DUP2 DUP2 SUB PUSH0 DUP4 ADD MSTORE PUSH2 0x11D2 DUP2 PUSH2 0x1199 JUMP JUMPDEST SWAP1 POP SWAP2 SWAP1 POP JUMP JUMPDEST PUSH32 0x4E487B7100000000000000000000000000000000000000000000000000000000 PUSH0 MSTORE PUSH1 0x22 PUSH1 0x4 MSTORE PUSH1 0x24 PUSH0 REVERT JUMPDEST PUSH0 PUSH1 0x2 DUP3 DIV SWAP1 POP PUSH1 0x1 DUP3 AND DUP1 PUSH2 0x121D JUMPI PUSH1 0x7F DUP3 AND SWAP2 POP JUMPDEST PUSH1 0x20 DUP3 LT DUP2 SUB PUSH2 0x1230 JUMPI PUSH2 0x122F PUSH2 0x11D9 JUMP JUMPDEST JUMPDEST POP SWAP2 SWAP1 POP JUMP JUMPDEST PUSH32 0x4E487B7100000000000000000000000000000000000000000000000000000000 PUSH0 MSTORE PUSH1 0x11 PUSH1 0x4 MSTORE PUSH1 0x24 PUSH0 REVERT JUMPDEST PUSH0 PUSH2 0x126D DUP3 PUSH2 0xAFA JUMP JUMPDEST SWAP2 POP PUSH32 0xFFFFFFFFFFFFFFFFFFFFFFFFFFFFFFFFFFFFFFFFFFFFFFFFFFFFFFFFFFFFFFFF DUP3 SUB PUSH2 0x129F JUMPI PUSH2 0x129E PUSH2 0x1236 JUMP JUMPDEST JUMPDEST PUSH1 0x1 DUP3 ADD SWAP1 POP SWAP2 SWAP1 POP JUMP JUMPDEST PUSH0 DUP2 SWAP1 POP SWAP2 SWAP1 POP JUMP JUMPDEST PUSH2 0x12C4 PUSH2 0x12BF DUP3 PUSH2 0xAFA JUMP JUMPDEST PUSH2 0x12AA JUMP JUMPDEST DUP3 MSTORE POP POP JUMP JUMPDEST PUSH0 DUP2 PUSH1 0x60 SHL SWAP1 POP SWAP2 SWAP1 POP JUMP JUMPDEST PUSH0 PUSH2 0x12E0 DUP3 PUSH2 0x12CA JUMP JUMPDEST SWAP1 POP SWAP2 SWAP1 POP JUMP JUMPDEST PUSH0 PUSH2 0x12F1 DUP3 PUSH2 0x12D6 JUMP JUMPDEST SWAP1 POP SWAP2 SWAP1 POP JUMP JUMPDEST PUSH2 0x1309 PUSH2 0x1304 DUP3 PUSH2 0xA6B JUMP JUMPDEST PUSH2 0x12E7 JUMP JUMPDEST DUP3 MSTORE POP POP JUMP JUMPDEST PUSH0 PUSH2 0x131A DUP3 DUP7 PUSH2 0x12B3 JUMP JUMPDEST PUSH1 0x20 DUP3 ADD SWAP2 POP PUSH2 0x132A DUP3 DUP6 PUSH2 0x12F8 JUMP JUMPDEST PUSH1 0x14 DUP3 ADD SWAP2 POP PUSH2 0x133A DUP3 DUP5 PUSH2 0x12B3 JUMP JUMPDEST PUSH1 0x20 DUP3 ADD SWAP2 POP DUP2 SWAP1 POP SWAP5 SWAP4 POP POP POP POP JUMP JUMPDEST PUSH0 DUP2 SWAP1 POP DUP2 PUSH0 MSTORE PUSH1 0x20 PUSH0 KECCAK256 SWAP1 POP SWAP2 SWAP1 POP JUMP JUMPDEST PUSH0 PUSH1 0x20 PUSH1 0x1F DUP4 ADD DIV SWAP1 POP SWAP2 SWAP1 POP JUMP JUMPDEST PUSH0 DUP3 DUP3 SHL SWAP1 POP SWAP3 SWAP2 POP POP JUMP JUMPDEST PUSH0 PUSH1 0x8 DUP4 MUL PUSH2 0x13A7 PUSH32 0xFFFFFFFFFFFFFFFFFFFFFFFFFFFFFFFFFFFFFFFFFFFFFFFFFFFFFFFFFFFFFFFF DUP3 PUSH2 0x136C JUMP JUMPDEST PUSH2 0x13B1 DUP7 DUP4 PUSH2 0x136C JUMP JUMPDEST SWAP6 POP DUP1 NOT DUP5 AND SWAP4 POP DUP1 DUP7 AND DUP5 OR SWAP3 POP POP POP SWAP4 SWAP3 POP POP POP JUMP JUMPDEST PUSH0 DUP2 SWAP1 POP SWAP2 SWAP1 POP JUMP JUMPDEST PUSH0 PUSH2 0x13EC PUSH2 0x13E7 PUSH2 0x13E2 DUP5 PUSH2 0xAFA JUMP JUMPDEST PUSH2 0x13C9 JUMP JUMPDEST PUSH2 0xAFA JUMP JUMPDEST SWAP1 POP SWAP2 SWAP1 POP JUMP JUMPDEST PUSH0 DUP2 SWAP1 POP SWAP2 SWAP1 POP JUMP JUMPDEST PUSH2 0x1405 DUP4 PUSH2 0x13D2 JUMP JUMPDEST PUSH2 0x1419 PUSH2 0x1411 DUP3 PUSH2 0x13F3 JUMP JUMPDEST DUP5 DUP5 SLOAD PUSH2 0x1378 JUMP JUMPDEST DUP3 SSTORE POP POP POP POP JUMP JUMPDEST PUSH0 SWAP1 JUMP JUMPDEST PUSH2 0x142D PUSH2 0x1421 JUMP JUMPDEST PUSH2 0x1438 DUP2 DUP5 DUP5 PUSH2 0x13FC JUMP JUMPDEST POP POP POP JUMP JUMPDEST JUMPDEST DUP2 DUP2 LT ISZERO PUSH2 0x145B JUMPI PUSH2 0x1450 PUSH0 DUP3 PUSH2 0x1425 JUMP JUMPDEST PUSH1 0x1 DUP2 ADD SWAP1 POP PUSH2 0x143E JUMP JUMPDEST POP POP JUMP JUMPDEST PUSH1 0x1F DUP3 GT ISZERO PUSH2 0x14A0 JUMPI PUSH2 0x1471 DUP2 PUSH2 0x134B JUMP JUMPDEST PUSH2 0x147A DUP5 PUSH2 0x135D JUMP JUMPDEST DUP2 ADD PUSH1 0x20 DUP6 LT ISZERO PUSH2 0x1489 JUMPI DUP2 SWAP1 POP JUMPDEST PUSH2 0x149D PUSH2 0x1495 DUP6 PUSH2 0x135D JUMP JUMPDEST DUP4 ADD DUP3 PUSH2 0x143D JUMP JUMPDEST POP POP JUMPDEST POP POP POP JUMP JUMPDEST PUSH0 DUP3 DUP3 SHR SWAP1 POP SWAP3 SWAP2 POP POP JUMP JUMPDEST PUSH0 PUSH2 0x14C0 PUSH0 NOT DUP5 PUSH1 0x8 MUL PUSH2 0x14A5 JUMP JUMPDEST NOT DUP1 DUP4 AND SWAP2 POP POP SWAP3 SWAP2 POP POP JUMP JUMPDEST PUSH0 PUSH2 0x14D8 DUP4 DUP4 PUSH2 0x14B1 JUMP JUMPDEST SWAP2 POP DUP3 PUSH1 0x2 MUL DUP3 OR SWAP1 POP SWAP3 SWAP2 POP POP JUMP JUMPDEST PUSH2 0x14F1 DUP3 PUSH2 0xC53 JUMP JUMPDEST PUSH8 0xFFFFFFFFFFFFFFFF DUP2 GT ISZERO PUSH2 0x150A JUMPI PUSH2 0x1509 PUSH2 0xDA6 JUMP JUMPDEST JUMPDEST PUSH2 0x1514 DUP3 SLOAD PUSH2 0x1206 JUMP JUMPDEST PUSH2 0x151F DUP3 DUP3 DUP6 PUSH2 0x145F JUMP JUMPDEST PUSH0 PUSH1 0x20 SWAP1 POP PUSH1 0x1F DUP4 GT PUSH1 0x1 DUP2 EQ PUSH2 0x1550 JUMPI PUSH0 DUP5 ISZERO PUSH2 0x153E JUMPI DUP3 DUP8 ADD MLOAD SWAP1 POP JUMPDEST PUSH2 0x1548 DUP6 DUP3 PUSH2 0x14CD JUMP JUMPDEST DUP7 SSTORE POP PUSH2 0x15AF JUMP JUMPDEST PUSH1 0x1F NOT DUP5 AND PUSH2 0x155E DUP7 PUSH2 0x134B JUMP JUMPDEST PUSH0 JUMPDEST DUP3 DUP2 LT ISZERO PUSH2 0x1585 JUMPI DUP5 DUP10 ADD MLOAD DUP3 SSTORE PUSH1 0x1 DUP3 ADD SWAP2 POP PUSH1 0x20 DUP6 ADD SWAP5 POP PUSH1 0x20 DUP2 ADD SWAP1 POP PUSH2 0x1560 JUMP JUMPDEST DUP7 DUP4 LT ISZERO PUSH2 0x15A2 JUMPI DUP5 DUP10 ADD MLOAD PUSH2 0x159E PUSH1 0x1F DUP10 AND DUP3 PUSH2 0x14B1 JUMP JUMPDEST DUP4 SSTORE POP JUMPDEST PUSH1 0x1 PUSH1 0x2 DUP9 MUL ADD DUP9 SSTORE POP POP POP JUMPDEST POP POP POP POP POP POP JUMP JUMPDEST PUSH0 PUSH1 0x40 DUP3 ADD SWAP1 POP DUP2 DUP2 SUB PUSH0 DUP4 ADD MSTORE PUSH2 0x15CF DUP2 DUP6 PUSH2 0xFDC JUMP JUMPDEST SWAP1 POP PUSH2 0x15DE PUSH1 0x20 DUP4 ADD DUP5 PUSH2 0xF95 JUMP JUMPDEST SWAP4 SWAP3 POP POP POP JUMP INVALID LOG2 PUSH5 0x6970667358 0x22 SLT KECCAK256 0xAC SWAP6 0xDD 0x2D DIV XOR EQ 0xD5 PUSH8 0x21EAEDD88A79CBA4 0xDC DUP16 0x2F 0xD8 SIGNEXTEND PUSH24 0x48B1E0417B7C68281964736F6C634300081A003300000000 "
				},
				"gasEstimates": {
					"creation": {
						"codeDepositCost": "1131800",
						"executionCost": "1172",
						"totalCost": "1132972"
					},
					"external": {
						"farmerProducts(address,uint256)": "infinite",
						"getFarmerProducts(address)": "infinite",
						"getProductDetails(uint256)": "infinite",
						"products(uint256)": "infinite",
						"registerProduct(string,uint256,uint256,string,string)": "infinite",
						"updateProduct(uint256,uint256)": "infinite"
					}
				},
				"methodIdentifiers": {
					"farmerProducts(address,uint256)": "fece8772",
					"getFarmerProducts(address)": "0a5cf042",
					"getProductDetails(uint256)": "6813b53b",
					"products(uint256)": "7acc0b20",
					"registerProduct(string,uint256,uint256,string,string)": "788ef6d8",
					"updateProduct(uint256,uint256)": "31f45cab"
				}
			},
			"storageLayout": {
				"storage": [
					{
						"astId": 23,
						"contract": "contracts/ProductRegistration.sol:ProductRegistration",
						"label": "products",
						"offset": 0,
						"slot": "0",
						"type": "t_mapping(t_uint256,t_struct(Product)18_storage)"
					},
					{
						"astId": 28,
						"contract": "contracts/ProductRegistration.sol:ProductRegistration",
						"label": "farmerProducts",
						"offset": 0,
						"slot": "1",
						"type": "t_mapping(t_address,t_array(t_uint256)dyn_storage)"
					},
					{
						"astId": 30,
						"contract": "contracts/ProductRegistration.sol:ProductRegistration",
						"label": "productIdCounter",
						"offset": 0,
						"slot": "2",
						"type": "t_uint256"
					}
				],
				"types": {
					"t_address": {
						"encoding": "inplace",
						"label": "address",
						"numberOfBytes": "20"
					},
					"t_array(t_uint256)dyn_storage": {
						"base": "t_uint256",
						"encoding": "dynamic_array",
						"label": "uint256[]",
						"numberOfBytes": "32"
					},
					"t_mapping(t_address,t_array(t_uint256)dyn_storage)": {
						"encoding": "mapping",
						"key": "t_address",
						"label": "mapping(address => uint256[])",
						"numberOfBytes": "32",
						"value": "t_array(t_uint256)dyn_storage"
					},
					"t_mapping(t_uint256,t_struct(Product)18_storage)": {
						"encoding": "mapping",
						"key": "t_uint256",
						"label": "mapping(uint256 => struct ProductRegistration.Product)",
						"numberOfBytes": "32",
						"value": "t_struct(Product)18_storage"
					},
					"t_string_storage": {
						"encoding": "bytes",
						"label": "string",
						"numberOfBytes": "32"
					},
					"t_struct(Product)18_storage": {
						"encoding": "inplace",
						"label": "struct ProductRegistration.Product",
						"members": [
							{
								"astId": 3,
								"contract": "contracts/ProductRegistration.sol:ProductRegistration",
								"label": "productId",
								"offset": 0,
								"slot": "0",
								"type": "t_uint256"
							},
							{
								"astId": 5,
								"contract": "contracts/ProductRegistration.sol:ProductRegistration",
								"label": "farmer",
								"offset": 0,
								"slot": "1",
								"type": "t_address"
							},
							{
								"astId": 7,
								"contract": "contracts/ProductRegistration.sol:ProductRegistration",
								"label": "name",
								"offset": 0,
								"slot": "2",
								"type": "t_string_storage"
							},
							{
								"astId": 9,
								"contract": "contracts/ProductRegistration.sol:ProductRegistration",
								"label": "quantity",
								"offset": 0,
								"slot": "3",
								"type": "t_uint256"
							},
							{
								"astId": 11,
								"contract": "contracts/ProductRegistration.sol:ProductRegistration",
								"label": "price",
								"offset": 0,
								"slot": "4",
								"type": "t_uint256"
							},
							{
								"astId": 13,
								"contract": "contracts/ProductRegistration.sol:ProductRegistration",
								"label": "qualityCertifications",
								"offset": 0,
								"slot": "5",
								"type": "t_string_storage"
							},
							{
								"astId": 15,
								"contract": "contracts/ProductRegistration.sol:ProductRegistration",
								"label": "batchInformation",
								"offset": 0,
								"slot": "6",
								"type": "t_string_storage"
							},
							{
								"astId": 17,
								"contract": "contracts/ProductRegistration.sol:ProductRegistration",
								"label": "registrationTimestamp",
								"offset": 0,
								"slot": "7",
								"type": "t_uint256"
							}
						],
						"numberOfBytes": "256"
					},
					"t_uint256": {
						"encoding": "inplace",
						"label": "uint256",
						"numberOfBytes": "32"
					}
				}
			},
			"userdoc": {
				"kind": "user",
				"methods": {},
				"version": 1
			}
		}
	}
}