{
	"data": {
		"bytecode": {
			"linkReferences": {},
			"object": "6080604052348015600e575f80fd5b503360045f6101000a81548173ffffffffffffffffffffffffffffffffffffffff021916908373ffffffffffffffffffffffffffffffffffffffff160217905550611aee8061005c5f395ff3fe60806040526004361061009b575f3560e01c806397b45b301161006357806397b45b3014610179578063a85c38ef146101b5578063aa16608c146101f9578063aab3196d14610235578063aecb8c571461025d578063ec7dd7bb146102995761009b565b806344cad5311461009f5780634d68282f146100db57806354b3b01814610103578063830b7d701461012d578063876ca09f1461015d575b5f80fd5b3480156100aa575f80fd5b506100c560048036038101906100c0919061108d565b6102d5565b6040516100d291906110da565b60405180910390f35b3480156100e6575f80fd5b5061010160048036038101906100fc91906110f3565b610300565b005b34801561010e575f80fd5b506101176104ef565b604051610124919061112d565b60405180910390f35b61014760048036038101906101429190611146565b610514565b60405161015491906110da565b60405180910390f35b610177600480360381019061017291906110f3565b61085f565b005b348015610184575f80fd5b5061019f600480360381019061019a919061108d565b610a6e565b6040516101ac91906110da565b60405180910390f35b3480156101c0575f80fd5b506101db60048036038101906101d691906110f3565b610a99565b6040516101f09998979695949392919061121d565b60405180910390f35b348015610204575f80fd5b5061021f600480360381019061021a91906112a8565b610b2c565b60405161022c919061138a565b60405180910390f35b348015610240575f80fd5b5061025b600480360381019061025691906113cd565b610bbf565b005b348015610268575f80fd5b50610283600480360381019061027e91906112a8565b610d4a565b604051610290919061138a565b60405180910390f35b3480156102a4575f80fd5b506102bf60048036038101906102ba91906110f3565b610ddd565b6040516102cc91906114de565b60405180910390f35b6002602052815f5260405f2081815481106102ee575f80fd5b905f5260205f20015f91509150505481565b5f805f8381526020019081526020015f20905060036004811115610327576103266111aa565b5b816006015f9054906101000a900460ff16600481111561034a576103496111aa565b5b1461038a576040517f08c379a000000000000000000000000000000000000000000000000000000000815260040161038190611578565b60405180910390fd5b3373ffffffffffffffffffffffffffffffffffffffff16816001015f9054906101000a900473ffffffffffffffffffffffffffffffffffffffff1673ffffffffffffffffffffffffffffffffffffffff161461041b576040517f08c379a0000000000000000000000000000000000000000000000000000000008152600401610412906115e0565b60405180910390fd5b5f816002015f9054906101000a900473ffffffffffffffffffffffffffffffffffffffff1673ffffffffffffffffffffffffffffffffffffffff1682600501546040516104679061162b565b5f6040518083038185875af1925050503d805f81146104a1576040519150601f19603f3d011682016040523d82523d5f602084013e6104a6565b606091505b50509050806104ea576040517f08c379a00000000000000000000000000000000000000000000000000000000081526004016104e190611689565b60405180910390fd5b505050565b60045f9054906101000a900473ffffffffffffffffffffffffffffffffffffffff1681565b5f81341015610558576040517f08c379a000000000000000000000000000000000000000000000000000000000815260040161054f906116f1565b60405180910390fd5b5f423360035f81548092919061056d9061173c565b91905055604051602001610583939291906117e8565b604051602081830303815290604052805190602001205f1c90505f6040518061012001604052808381526020013373ffffffffffffffffffffffffffffffffffffffff1681526020018673ffffffffffffffffffffffffffffffffffffffff1681526020018881526020018781526020018581526020015f600481111561060d5761060c6111aa565b5b8152602001428152602001428152509050805f808481526020019081526020015f205f820151815f01556020820151816001015f6101000a81548173ffffffffffffffffffffffffffffffffffffffff021916908373ffffffffffffffffffffffffffffffffffffffff1602179055506040820151816002015f6101000a81548173ffffffffffffffffffffffffffffffffffffffff021916908373ffffffffffffffffffffffffffffffffffffffff160217905550606082015181600301556080820151816004015560a0820151816005015560c0820151816006015f6101000a81548160ff0219169083600481111561070b5761070a6111aa565b5b021790555060e08201518160070155610100820151816008015590505060015f3373ffffffffffffffffffffffffffffffffffffffff1673ffffffffffffffffffffffffffffffffffffffff1681526020019081526020015f2082908060018154018082558091505060019003905f5260205f20015f909190919091505560025f8673ffffffffffffffffffffffffffffffffffffffff1673ffffffffffffffffffffffffffffffffffffffff1681526020019081526020015f2082908060018154018082558091505060019003905f5260205f20015f90919091909150558473ffffffffffffffffffffffffffffffffffffffff163373ffffffffffffffffffffffffffffffffffffffff16837f5f88d55333195757ca319aa0ac617520059267f8245f2067982a6caaf6916b818a8a60405161084a929190611824565b60405180910390a48192505050949350505050565b5f805f8381526020019081526020015f2090503373ffffffffffffffffffffffffffffffffffffffff16816001015f9054906101000a900473ffffffffffffffffffffffffffffffffffffffff1673ffffffffffffffffffffffffffffffffffffffff1614610903576040517f08c379a00000000000000000000000000000000000000000000000000000000081526004016108fa906118bb565b60405180910390fd5b5f6004811115610916576109156111aa565b5b816006015f9054906101000a900460ff166004811115610939576109386111aa565b5b14610979576040517f08c379a000000000000000000000000000000000000000000000000000000000815260040161097090611923565b60405180910390fd5b80600501543410156109c0576040517f08c379a00000000000000000000000000000000000000000000000000000000081526004016109b7906116f1565b60405180910390fd5b6001816006015f6101000a81548160ff021916908360048111156109e7576109e66111aa565b5b0217905550428160080181905550817f7c32ca00142334d942c919d338fa31921d5108c316aebd0347bcda69ee8167c98260050154604051610a2991906110da565b60405180910390a2817fd9a86b644eb5f5b43cc8a700849852481080361c7a4b00ba646d1b46c5585f956001604051610a629190611941565b60405180910390a25050565b6001602052815f5260405f208181548110610a87575f80fd5b905f5260205f20015f91509150505481565b5f602052805f5260405f205f91509050805f015490806001015f9054906101000a900473ffffffffffffffffffffffffffffffffffffffff1690806002015f9054906101000a900473ffffffffffffffffffffffffffffffffffffffff1690806003015490806004015490806005015490806006015f9054906101000a900460ff16908060070154908060080154905089565b606060015f8373ffffffffffffffffffffffffffffffffffffffff1673ffffffffffffffffffffffffffffffffffffffff1681526020019081526020015f20805480602002602001604051908101604052809291908181526020018280548015610bb357602002820191905f5260205f20905b815481526020019060010190808311610b9f575b50505050509050919050565b5f805f8481526020019081526020015f2090503373ffffffffffffffffffffffffffffffffffffffff16816002015f9054906101000a900473ffffffffffffffffffffffffffffffffffffffff1673ffffffffffffffffffffffffffffffffffffffff1614610c63576040517f08c379a0000000000000000000000000000000000000000000000000000000008152600401610c5a906119ca565b60405180910390fd5b806006015f9054906101000a900460ff166004811115610c8657610c856111aa565b5b826004811115610c9957610c986111aa565b5b11610cd9576040517f08c379a0000000000000000000000000000000000000000000000000000000008152600401610cd090611a32565b60405180910390fd5b81816006015f6101000a81548160ff02191690836004811115610cff57610cfe6111aa565b5b0217905550428160080181905550827fd9a86b644eb5f5b43cc8a700849852481080361c7a4b00ba646d1b46c5585f9583604051610d3d9190611941565b60405180910390a2505050565b606060025f8373ffffffffffffffffffffffffffffffffffffffff1673ffffffffffffffffffffffffffffffffffffffff1681526020019081526020015f20805480602002602001604051908101604052809291908181526020018280548015610dd157602002820191905f5260205f20905b815481526020019060010190808311610dbd575b50505050509050919050565b610de5610f7b565b5f805f8481526020019081526020015f205f015403610e39576040517f08c379a0000000000000000000000000000000000000000000000000000000008152600401610e3090611a9a565b60405180910390fd5b5f808381526020019081526020015f20604051806101200160405290815f8201548152602001600182015f9054906101000a900473ffffffffffffffffffffffffffffffffffffffff1673ffffffffffffffffffffffffffffffffffffffff1673ffffffffffffffffffffffffffffffffffffffff168152602001600282015f9054906101000a900473ffffffffffffffffffffffffffffffffffffffff1673ffffffffffffffffffffffffffffffffffffffff1673ffffffffffffffffffffffffffffffffffffffff168152602001600382015481526020016004820154815260200160058201548152602001600682015f9054906101000a900460ff166004811115610f4a57610f496111aa565b5b6004811115610f5c57610f5b6111aa565b5b8152602001600782015481526020016008820154815250509050919050565b6040518061012001604052805f81526020015f73ffffffffffffffffffffffffffffffffffffffff1681526020015f73ffffffffffffffffffffffffffffffffffffffff1681526020015f81526020015f81526020015f81526020015f6004811115610fea57610fe96111aa565b5b81526020015f81526020015f81525090565b5f80fd5b5f73ffffffffffffffffffffffffffffffffffffffff82169050919050565b5f61102982611000565b9050919050565b6110398161101f565b8114611043575f80fd5b50565b5f8135905061105481611030565b92915050565b5f819050919050565b61106c8161105a565b8114611076575f80fd5b50565b5f8135905061108781611063565b92915050565b5f80604083850312156110a3576110a2610ffc565b5b5f6110b085828601611046565b92505060206110c185828601611079565b9150509250929050565b6110d48161105a565b82525050565b5f6020820190506110ed5f8301846110cb565b92915050565b5f6020828403121561110857611107610ffc565b5b5f61111584828501611079565b91505092915050565b6111278161101f565b82525050565b5f6020820190506111405f83018461111e565b92915050565b5f805f806080858703121561115e5761115d610ffc565b5b5f61116b87828801611079565b945050602061117c87828801611079565b935050604061118d87828801611046565b925050606061119e87828801611079565b91505092959194509250565b7f4e487b71000000000000000000000000000000000000000000000000000000005f52602160045260245ffd5b600581106111e8576111e76111aa565b5b50565b5f8190506111f8826111d7565b919050565b5f611207826111eb565b9050919050565b611217816111fd565b82525050565b5f610120820190506112315f83018c6110cb565b61123e602083018b61111e565b61124b604083018a61111e565b61125860608301896110cb565b61126560808301886110cb565b61127260a08301876110cb565b61127f60c083018661120e565b61128c60e08301856110cb565b61129a6101008301846110cb565b9a9950505050505050505050565b5f602082840312156112bd576112bc610ffc565b5b5f6112ca84828501611046565b91505092915050565b5f81519050919050565b5f82825260208201905092915050565b5f819050602082019050919050565b6113058161105a565b82525050565b5f61131683836112fc565b60208301905092915050565b5f602082019050919050565b5f611338826112d3565b61134281856112dd565b935061134d836112ed565b805f5b8381101561137d578151611364888261130b565b975061136f83611322565b925050600181019050611350565b5085935050505092915050565b5f6020820190508181035f8301526113a2818461132e565b905092915050565b600581106113b6575f80fd5b50565b5f813590506113c7816113aa565b92915050565b5f80604083850312156113e3576113e2610ffc565b5b5f6113f085828601611079565b9250506020611401858286016113b9565b9150509250929050565b6114148161101f565b82525050565b611423816111fd565b82525050565b61012082015f82015161143e5f8501826112fc565b506020820151611451602085018261140b565b506040820151611464604085018261140b565b50606082015161147760608501826112fc565b50608082015161148a60808501826112fc565b5060a082015161149d60a08501826112fc565b5060c08201516114b060c085018261141a565b5060e08201516114c360e08501826112fc565b506101008201516114d86101008501826112fc565b50505050565b5f610120820190506114f25f830184611429565b92915050565b5f82825260208201905092915050565b7f4f72646572206d7573742062652064656c69766572656420746f2072656c65615f8201527f73652066756e6473000000000000000000000000000000000000000000000000602082015250565b5f6115626028836114f8565b915061156d82611508565b604082019050919050565b5f6020820190508181035f83015261158f81611556565b9050919050565b7f4f6e6c7920636f6e73756d65722063616e2072656c656173652066756e6473005f82015250565b5f6115ca601f836114f8565b91506115d582611596565b602082019050919050565b5f6020820190508181035f8301526115f7816115be565b9050919050565b5f81905092915050565b50565b5f6116165f836115fe565b915061162182611608565b5f82019050919050565b5f6116358261160b565b9150819050919050565b7f46756e64207472616e73666572206661696c65640000000000000000000000005f82015250565b5f6116736014836114f8565b915061167e8261163f565b602082019050919050565b5f6020820190508181035f8301526116a081611667565b9050919050565b7f496e73756666696369656e74207061796d656e740000000000000000000000005f82015250565b5f6116db6014836114f8565b91506116e6826116a7565b602082019050919050565b5f6020820190508181035f830152611708816116cf565b9050919050565b7f4e487b71000000000000000000000000000000000000000000000000000000005f52601160045260245ffd5b5f6117468261105a565b91507fffffffffffffffffffffffffffffffffffffffffffffffffffffffffffffffff82036117785761177761170f565b5b600182019050919050565b5f819050919050565b61179d6117988261105a565b611783565b82525050565b5f8160601b9050919050565b5f6117b9826117a3565b9050919050565b5f6117ca826117af565b9050919050565b6117e26117dd8261101f565b6117c0565b82525050565b5f6117f3828661178c565b60208201915061180382856117d1565b601482019150611813828461178c565b602082019150819050949350505050565b5f6040820190506118375f8301856110cb565b61184460208301846110cb565b9392505050565b7f4f6e6c7920636f6e73756d65722063616e20636f6e6669726d207061796d656e5f8201527f7400000000000000000000000000000000000000000000000000000000000000602082015250565b5f6118a56021836114f8565b91506118b08261184b565b604082019050919050565b5f6020820190508181035f8301526118d281611899565b9050919050565b7f496e76616c6964206f72646572207374617475730000000000000000000000005f82015250565b5f61190d6014836114f8565b9150611918826118d9565b602082019050919050565b5f6020820190508181035f83015261193a81611901565b9050919050565b5f6020820190506119545f83018461120e565b92915050565b7f4f6e6c79206661726d65722063616e20757064617465206f72646572207374615f8201527f7475730000000000000000000000000000000000000000000000000000000000602082015250565b5f6119b46023836114f8565b91506119bf8261195a565b604082019050919050565b5f6020820190508181035f8301526119e1816119a8565b9050919050565b7f43616e6e6f742072657665727420746f2070726576696f7573207374617475735f82015250565b5f611a1c6020836114f8565b9150611a27826119e8565b602082019050919050565b5f6020820190508181035f830152611a4981611a10565b9050919050565b7f4f7264657220646f6573206e6f742065786973740000000000000000000000005f82015250565b5f611a846014836114f8565b9150611a8f82611a50565b602082019050919050565b5f6020820190508181035f830152611ab181611a78565b905091905056fea264697066735822122088ca7957cd9a31cdc3c8c3bdc65c8995c485e87f31f8a3260098d0b74629cbfb64736f6c634300081a0033",
			"opcodes": "PUSH1 0x80 PUSH1 0x40 MSTORE CALLVALUE DUP1 ISZERO PUSH1 0xE JUMPI PUSH0 DUP1 REVERT JUMPDEST POP CALLER PUSH1 0x4 PUSH0 PUSH2 0x100 EXP DUP2 SLOAD DUP2 PUSH20 0xFFFFFFFFFFFFFFFFFFFFFFFFFFFFFFFFFFFFFFFF MUL NOT AND SWAP1 DUP4 PUSH20 0xFFFFFFFFFFFFFFFFFFFFFFFFFFFFFFFFFFFFFFFF AND MUL OR SWAP1 SSTORE POP PUSH2 0x1AEE DUP1 PUSH2 0x5C PUSH0 CODECOPY PUSH0 RETURN INVALID PUSH1 0x80 PUSH1 0x40 MSTORE PUSH1 0x4 CALLDATASIZE LT PUSH2 0x9B JUMPI PUSH0 CALLDATALOAD PUSH1 0xE0 SHR DUP1 PUSH4 0x97B45B30 GT PUSH2 0x63 JUMPI DUP1 PUSH4 0x97B45B30 EQ PUSH2 0x179 JUMPI DUP1 PUSH4 0xA85C38EF EQ PUSH2 0x1B5 JUMPI DUP1 PUSH4 0xAA16608C EQ PUSH2 0x1F9 JUMPI DUP1 PUSH4 0xAAB3196D EQ PUSH2 0x235 JUMPI DUP1 PUSH4 0xAECB8C57 EQ PUSH2 0x25D JUMPI DUP1 PUSH4 0xEC7DD7BB EQ PUSH2 0x299 JUMPI PUSH2 0x9B JUMP JUMPDEST DUP1 PUSH4 0x44CAD531 EQ PUSH2 0x9F JUMPI DUP1 PUSH4 0x4D68282F EQ PUSH2 0xDB JUMPI DUP1 PUSH4 0x54B3B018 EQ PUSH2 0x103 JUMPI DUP1 PUSH4 0x830B7D70 EQ PUSH2 0x12D JUMPI DUP1 PUSH4 0x876CA09F EQ PUSH2 0x15D JUMPI JUMPDEST PUSH0 DUP1 REVERT JUMPDEST CALLVALUE DUP1 ISZERO PUSH2 0xAA JUMPI PUSH0 DUP1 REVERT JUMPDEST POP PUSH2 0xC5 PUSH1 0x4 DUP1 CALLDATASIZE SUB DUP2 ADD SWAP1 PUSH2 0xC0 SWAP2 SWAP1 PUSH2 0x108D JUMP JUMPDEST PUSH2 0x2D5 JUMP JUMPDEST PUSH1 0x40 MLOAD PUSH2 0xD2 SWAP2 SWAP1 PUSH2 0x10DA JUMP JUMPDEST PUSH1 0x40 MLOAD DUP1 SWAP2 SUB SWAP1 RETURN JUMPDEST CALLVALUE DUP1 ISZERO PUSH2 0xE6 JUMPI PUSH0 DUP1 REVERT JUMPDEST POP PUSH2 0x101 PUSH1 0x4 DUP1 CALLDATASIZE SUB DUP2 ADD SWAP1 PUSH2 0xFC SWAP2 SWAP1 PUSH2 0x10F3 JUMP JUMPDEST PUSH2 0x300 JUMP JUMPDEST STOP JUMPDEST CALLVALUE DUP1 ISZERO PUSH2 0x10E JUMPI PUSH0 DUP1 REVERT JUMPDEST POP PUSH2 0x117 PUSH2 0x4EF JUMP JUMPDEST PUSH1 0x40 MLOAD PUSH2 0x124 SWAP2 SWAP1 PUSH2 0x112D JUMP JUMPDEST PUSH1 0x40 MLOAD DUP1 SWAP2 SUB SWAP1 RETURN JUMPDEST PUSH2 0x147 PUSH1 0x4 DUP1 CALLDATASIZE SUB DUP2 ADD SWAP1 PUSH2 0x142 SWAP2 SWAP1 PUSH2 0x1146 JUMP JUMPDEST PUSH2 0x514 JUMP JUMPDEST PUSH1 0x40 MLOAD PUSH2 0x154 SWAP2 SWAP1 PUSH2 0x10DA JUMP JUMPDEST PUSH1 0x40 MLOAD DUP1 SWAP2 SUB SWAP1 RETURN JUMPDEST PUSH2 0x177 PUSH1 0x4 DUP1 CALLDATASIZE SUB DUP2 ADD SWAP1 PUSH2 0x172 SWAP2 SWAP1 PUSH2 0x10F3 JUMP JUMPDEST PUSH2 0x85F JUMP JUMPDEST STOP JUMPDEST CALLVALUE DUP1 ISZERO PUSH2 0x184 JUMPI PUSH0 DUP1 REVERT JUMPDEST POP PUSH2 0x19F PUSH1 0x4 DUP1 CALLDATASIZE SUB DUP2 ADD SWAP1 PUSH2 0x19A SWAP2 SWAP1 PUSH2 0x108D JUMP JUMPDEST PUSH2 0xA6E JUMP JUMPDEST PUSH1 0x40 MLOAD PUSH2 0x1AC SWAP2 SWAP1 PUSH2 0x10DA JUMP JUMPDEST PUSH1 0x40 MLOAD DUP1 SWAP2 SUB SWAP1 RETURN JUMPDEST CALLVALUE DUP1 ISZERO PUSH2 0x1C0 JUMPI PUSH0 DUP1 REVERT JUMPDEST POP PUSH2 0x1DB PUSH1 0x4 DUP1 CALLDATASIZE SUB DUP2 ADD SWAP1 PUSH2 0x1D6 SWAP2 SWAP1 PUSH2 0x10F3 JUMP JUMPDEST PUSH2 0xA99 JUMP JUMPDEST PUSH1 0x40 MLOAD PUSH2 0x1F0 SWAP10 SWAP9 SWAP8 SWAP7 SWAP6 SWAP5 SWAP4 SWAP3 SWAP2 SWAP1 PUSH2 0x121D JUMP JUMPDEST PUSH1 0x40 MLOAD DUP1 SWAP2 SUB SWAP1 RETURN JUMPDEST CALLVALUE DUP1 ISZERO PUSH2 0x204 JUMPI PUSH0 DUP1 REVERT JUMPDEST POP PUSH2 0x21F PUSH1 0x4 DUP1 CALLDATASIZE SUB DUP2 ADD SWAP1 PUSH2 0x21A SWAP2 SWAP1 PUSH2 0x12A8 JUMP JUMPDEST PUSH2 0xB2C JUMP JUMPDEST PUSH1 0x40 MLOAD PUSH2 0x22C SWAP2 SWAP1 PUSH2 0x138A JUMP JUMPDEST PUSH1 0x40 MLOAD DUP1 SWAP2 SUB SWAP1 RETURN JUMPDEST CALLVALUE DUP1 ISZERO PUSH2 0x240 JUMPI PUSH0 DUP1 REVERT JUMPDEST POP PUSH2 0x25B PUSH1 0x4 DUP1 CALLDATASIZE SUB DUP2 ADD SWAP1 PUSH2 0x256 SWAP2 SWAP1 PUSH2 0x13CD JUMP JUMPDEST PUSH2 0xBBF JUMP JUMPDEST STOP JUMPDEST CALLVALUE DUP1 ISZERO PUSH2 0x268 JUMPI PUSH0 DUP1 REVERT JUMPDEST POP PUSH2 0x283 PUSH1 0x4 DUP1 CALLDATASIZE SUB DUP2 ADD SWAP1 PUSH2 0x27E SWAP2 SWAP1 PUSH2 0x12A8 JUMP JUMPDEST PUSH2 0xD4A JUMP JUMPDEST PUSH1 0x40 MLOAD PUSH2 0x290 SWAP2 SWAP1 PUSH2 0x138A JUMP JUMPDEST PUSH1 0x40 MLOAD DUP1 SWAP2 SUB SWAP1 RETURN JUMPDEST CALLVALUE DUP1 ISZERO PUSH2 0x2A4 JUMPI PUSH0 DUP1 REVERT JUMPDEST POP PUSH2 0x2BF PUSH1 0x4 DUP1 CALLDATASIZE SUB DUP2 ADD SWAP1 PUSH2 0x2BA SWAP2 SWAP1 PUSH2 0x10F3 JUMP JUMPDEST PUSH2 0xDDD JUMP JUMPDEST PUSH1 0x40 MLOAD PUSH2 0x2CC SWAP2 SWAP1 PUSH2 0x14DE JUMP JUMPDEST PUSH1 0x40 MLOAD DUP1 SWAP2 SUB SWAP1 RETURN JUMPDEST PUSH1 0x2 PUSH1 0x20 MSTORE DUP2 PUSH0 MSTORE PUSH1 0x40 PUSH0 KECCAK256 DUP2 DUP2 SLOAD DUP2 LT PUSH2 0x2EE JUMPI PUSH0 DUP1 REVERT JUMPDEST SWAP1 PUSH0 MSTORE PUSH1 0x20 PUSH0 KECCAK256 ADD PUSH0 SWAP2 POP SWAP2 POP POP SLOAD DUP2 JUMP JUMPDEST PUSH0 DUP1 PUSH0 DUP4 DUP2 MSTORE PUSH1 0x20 ADD SWAP1 DUP2 MSTORE PUSH1 0x20 ADD PUSH0 KECCAK256 SWAP1 POP PUSH1 0x3 PUSH1 0x4 DUP2 GT ISZERO PUSH2 0x327 JUMPI PUSH2 0x326 PUSH2 0x11AA JUMP JUMPDEST JUMPDEST DUP2 PUSH1 0x6 ADD PUSH0 SWAP1 SLOAD SWAP1 PUSH2 0x100 EXP SWAP1 DIV PUSH1 0xFF AND PUSH1 0x4 DUP2 GT ISZERO PUSH2 0x34A JUMPI PUSH2 0x349 PUSH2 0x11AA JUMP JUMPDEST JUMPDEST EQ PUSH2 0x38A JUMPI PUSH1 0x40 MLOAD PUSH32 0x8C379A000000000000000000000000000000000000000000000000000000000 DUP2 MSTORE PUSH1 0x4 ADD PUSH2 0x381 SWAP1 PUSH2 0x1578 JUMP JUMPDEST PUSH1 0x40 MLOAD DUP1 SWAP2 SUB SWAP1 REVERT JUMPDEST CALLER PUSH20 0xFFFFFFFFFFFFFFFFFFFFFFFFFFFFFFFFFFFFFFFF AND DUP2 PUSH1 0x1 ADD PUSH0 SWAP1 SLOAD SWAP1 PUSH2 0x100 EXP SWAP1 DIV PUSH20 0xFFFFFFFFFFFFFFFFFFFFFFFFFFFFFFFFFFFFFFFF AND PUSH20 0xFFFFFFFFFFFFFFFFFFFFFFFFFFFFFFFFFFFFFFFF AND EQ PUSH2 0x41B JUMPI PUSH1 0x40 MLOAD PUSH32 0x8C379A000000000000000000000000000000000000000000000000000000000 DUP2 MSTORE PUSH1 0x4 ADD PUSH2 0x412 SWAP1 PUSH2 0x15E0 JUMP JUMPDEST PUSH1 0x40 MLOAD DUP1 SWAP2 SUB SWAP1 REVERT JUMPDEST PUSH0 DUP2 PUSH1 0x2 ADD PUSH0 SWAP1 SLOAD SWAP1 PUSH2 0x100 EXP SWAP1 DIV PUSH20 0xFFFFFFFFFFFFFFFFFFFFFFFFFFFFFFFFFFFFFFFF AND PUSH20 0xFFFFFFFFFFFFFFFFFFFFFFFFFFFFFFFFFFFFFFFF AND DUP3 PUSH1 0x5 ADD SLOAD PUSH1 0x40 MLOAD PUSH2 0x467 SWAP1 PUSH2 0x162B JUMP JUMPDEST PUSH0 PUSH1 0x40 MLOAD DUP1 DUP4 SUB DUP2 DUP6 DUP8 GAS CALL SWAP3 POP POP POP RETURNDATASIZE DUP1 PUSH0 DUP2 EQ PUSH2 0x4A1 JUMPI PUSH1 0x40 MLOAD SWAP2 POP PUSH1 0x1F NOT PUSH1 0x3F RETURNDATASIZE ADD AND DUP3 ADD PUSH1 0x40 MSTORE RETURNDATASIZE DUP3 MSTORE RETURNDATASIZE PUSH0 PUSH1 0x20 DUP5 ADD RETURNDATACOPY PUSH2 0x4A6 JUMP JUMPDEST PUSH1 0x60 SWAP2 POP JUMPDEST POP POP SWAP1 POP DUP1 PUSH2 0x4EA JUMPI PUSH1 0x40 MLOAD PUSH32 0x8C379A000000000000000000000000000000000000000000000000000000000 DUP2 MSTORE PUSH1 0x4 ADD PUSH2 0x4E1 SWAP1 PUSH2 0x1689 JUMP JUMPDEST PUSH1 0x40 MLOAD DUP1 SWAP2 SUB SWAP1 REVERT JUMPDEST POP POP POP JUMP JUMPDEST PUSH1 0x4 PUSH0 SWAP1 SLOAD SWAP1 PUSH2 0x100 EXP SWAP1 DIV PUSH20 0xFFFFFFFFFFFFFFFFFFFFFFFFFFFFFFFFFFFFFFFF AND DUP2 JUMP JUMPDEST PUSH0 DUP2 CALLVALUE LT ISZERO PUSH2 0x558 JUMPI PUSH1 0x40 MLOAD PUSH32 0x8C379A000000000000000000000000000000000000000000000000000000000 DUP2 MSTORE PUSH1 0x4 ADD PUSH2 0x54F SWAP1 PUSH2 0x16F1 JUMP JUMPDEST PUSH1 0x40 MLOAD DUP1 SWAP2 SUB SWAP1 REVERT JUMPDEST PUSH0 TIMESTAMP CALLER PUSH1 0x3 PUSH0 DUP2 SLOAD DUP1 SWAP3 SWAP2 SWAP1 PUSH2 0x56D SWAP1 PUSH2 0x173C JUMP JUMPDEST SWAP2 SWAP1 POP SSTORE PUSH1 0x40 MLOAD PUSH1 0x20 ADD PUSH2 0x583 SWAP4 SWAP3 SWAP2 SWAP1 PUSH2 0x17E8 JUMP JUMPDEST PUSH1 0x40 MLOAD PUSH1 0x20 DUP2 DUP4 SUB SUB DUP2 MSTORE SWAP1 PUSH1 0x40 MSTORE DUP1 MLOAD SWAP1 PUSH1 0x20 ADD KECCAK256 PUSH0 SHR SWAP1 POP PUSH0 PUSH1 0x40 MLOAD DUP1 PUSH2 0x120 ADD PUSH1 0x40 MSTORE DUP1 DUP4 DUP2 MSTORE PUSH1 0x20 ADD CALLER PUSH20 0xFFFFFFFFFFFFFFFFFFFFFFFFFFFFFFFFFFFFFFFF AND DUP2 MSTORE PUSH1 0x20 ADD DUP7 PUSH20 0xFFFFFFFFFFFFFFFFFFFFFFFFFFFFFFFFFFFFFFFF AND DUP2 MSTORE PUSH1 0x20 ADD DUP9 DUP2 MSTORE PUSH1 0x20 ADD DUP8 DUP2 MSTORE PUSH1 0x20 ADD DUP6 DUP2 MSTORE PUSH1 0x20 ADD PUSH0 PUSH1 0x4 DUP2 GT ISZERO PUSH2 0x60D JUMPI PUSH2 0x60C PUSH2 0x11AA JUMP JUMPDEST JUMPDEST DUP2 MSTORE PUSH1 0x20 ADD TIMESTAMP DUP2 MSTORE PUSH1 0x20 ADD TIMESTAMP DUP2 MSTORE POP SWAP1 POP DUP1 PUSH0 DUP1 DUP5 DUP2 MSTORE PUSH1 0x20 ADD SWAP1 DUP2 MSTORE PUSH1 0x20 ADD PUSH0 KECCAK256 PUSH0 DUP3 ADD MLOAD DUP2 PUSH0 ADD SSTORE PUSH1 0x20 DUP3 ADD MLOAD DUP2 PUSH1 0x1 ADD PUSH0 PUSH2 0x100 EXP DUP2 SLOAD DUP2 PUSH20 0xFFFFFFFFFFFFFFFFFFFFFFFFFFFFFFFFFFFFFFFF MUL NOT AND SWAP1 DUP4 PUSH20 0xFFFFFFFFFFFFFFFFFFFFFFFFFFFFFFFFFFFFFFFF AND MUL OR SWAP1 SSTORE POP PUSH1 0x40 DUP3 ADD MLOAD DUP2 PUSH1 0x2 ADD PUSH0 PUSH2 0x100 EXP DUP2 SLOAD DUP2 PUSH20 0xFFFFFFFFFFFFFFFFFFFFFFFFFFFFFFFFFFFFFFFF MUL NOT AND SWAP1 DUP4 PUSH20 0xFFFFFFFFFFFFFFFFFFFFFFFFFFFFFFFFFFFFFFFF AND MUL OR SWAP1 SSTORE POP PUSH1 0x60 DUP3 ADD MLOAD DUP2 PUSH1 0x3 ADD SSTORE PUSH1 0x80 DUP3 ADD MLOAD DUP2 PUSH1 0x4 ADD SSTORE PUSH1 0xA0 DUP3 ADD MLOAD DUP2 PUSH1 0x5 ADD SSTORE PUSH1 0xC0 DUP3 ADD MLOAD DUP2 PUSH1 0x6 ADD PUSH0 PUSH2 0x100 EXP DUP2 SLOAD DUP2 PUSH1 0xFF MUL NOT AND SWAP1 DUP4 PUSH1 0x4 DUP2 GT ISZERO PUSH2 0x70B JUMPI PUSH2 0x70A PUSH2 0x11AA JUMP JUMPDEST JUMPDEST MUL OR SWAP1 SSTORE POP PUSH1 0xE0 DUP3 ADD MLOAD DUP2 PUSH1 0x7 ADD SSTORE PUSH2 0x100 DUP3 ADD MLOAD DUP2 PUSH1 0x8 ADD SSTORE SWAP1 POP POP PUSH1 0x1 PUSH0 CALLER PUSH20 0xFFFFFFFFFFFFFFFFFFFFFFFFFFFFFFFFFFFFFFFF AND PUSH20 0xFFFFFFFFFFFFFFFFFFFFFFFFFFFFFFFFFFFFFFFF AND DUP2 MSTORE PUSH1 0x20 ADD SWAP1 DUP2 MSTORE PUSH1 0x20 ADD PUSH0 KECCAK256 DUP3 SWAP1 DUP1 PUSH1 0x1 DUP2 SLOAD ADD DUP1 DUP3 SSTORE DUP1 SWAP2 POP POP PUSH1 0x1 SWAP1 SUB SWAP1 PUSH0 MSTORE PUSH1 0x20 PUSH0 KECCAK256 ADD PUSH0 SWAP1 SWAP2 SWAP1 SWAP2 SWAP1 SWAP2 POP SSTORE PUSH1 0x2 PUSH0 DUP7 PUSH20 0xFFFFFFFFFFFFFFFFFFFFFFFFFFFFFFFFFFFFFFFF AND PUSH20 0xFFFFFFFFFFFFFFFFFFFFFFFFFFFFFFFFFFFFFFFF AND DUP2 MSTORE PUSH1 0x20 ADD SWAP1 DUP2 MSTORE PUSH1 0x20 ADD PUSH0 KECCAK256 DUP3 SWAP1 DUP1 PUSH1 0x1 DUP2 SLOAD ADD DUP1 DUP3 SSTORE DUP1 SWAP2 POP POP PUSH1 0x1 SWAP1 SUB SWAP1 PUSH0 MSTORE PUSH1 0x20 PUSH0 KECCAK256 ADD PUSH0 SWAP1 SWAP2 SWAP1 SWAP2 SWAP1 SWAP2 POP SSTORE DUP5 PUSH20 0xFFFFFFFFFFFFFFFFFFFFFFFFFFFFFFFFFFFFFFFF AND CALLER PUSH20 0xFFFFFFFFFFFFFFFFFFFFFFFFFFFFFFFFFFFFFFFF AND DUP4 PUSH32 0x5F88D55333195757CA319AA0AC617520059267F8245F2067982A6CAAF6916B81 DUP11 DUP11 PUSH1 0x40 MLOAD PUSH2 0x84A SWAP3 SWAP2 SWAP1 PUSH2 0x1824 JUMP JUMPDEST PUSH1 0x40 MLOAD DUP1 SWAP2 SUB SWAP1 LOG4 DUP2 SWAP3 POP POP POP SWAP5 SWAP4 POP POP POP POP JUMP JUMPDEST PUSH0 DUP1 PUSH0 DUP4 DUP2 MSTORE PUSH1 0x20 ADD SWAP1 DUP2 MSTORE PUSH1 0x20 ADD PUSH0 KECCAK256 SWAP1 POP CALLER PUSH20 0xFFFFFFFFFFFFFFFFFFFFFFFFFFFFFFFFFFFFFFFF AND DUP2 PUSH1 0x1 ADD PUSH0 SWAP1 SLOAD SWAP1 PUSH2 0x100 EXP SWAP1 DIV PUSH20 0xFFFFFFFFFFFFFFFFFFFFFFFFFFFFFFFFFFFFFFFF AND PUSH20 0xFFFFFFFFFFFFFFFFFFFFFFFFFFFFFFFFFFFFFFFF AND EQ PUSH2 0x903 JUMPI PUSH1 0x40 MLOAD PUSH32 0x8C379A000000000000000000000000000000000000000000000000000000000 DUP2 MSTORE PUSH1 0x4 ADD PUSH2 0x8FA SWAP1 PUSH2 0x18BB JUMP JUMPDEST PUSH1 0x40 MLOAD DUP1 SWAP2 SUB SWAP1 REVERT JUMPDEST PUSH0 PUSH1 0x4 DUP2 GT ISZERO PUSH2 0x916 JUMPI PUSH2 0x915 PUSH2 0x11AA JUMP JUMPDEST JUMPDEST DUP2 PUSH1 0x6 ADD PUSH0 SWAP1 SLOAD SWAP1 PUSH2 0x100 EXP SWAP1 DIV PUSH1 0xFF AND PUSH1 0x4 DUP2 GT ISZERO PUSH2 0x939 JUMPI PUSH2 0x938 PUSH2 0x11AA JUMP JUMPDEST JUMPDEST EQ PUSH2 0x979 JUMPI PUSH1 0x40 MLOAD PUSH32 0x8C379A000000000000000000000000000000000000000000000000000000000 DUP2 MSTORE PUSH1 0x4 ADD PUSH2 0x970 SWAP1 PUSH2 0x1923 JUMP JUMPDEST PUSH1 0x40 MLOAD DUP1 SWAP2 SUB SWAP1 REVERT JUMPDEST DUP1 PUSH1 0x5 ADD SLOAD CALLVALUE LT ISZERO PUSH2 0x9C0 JUMPI PUSH1 0x40 MLOAD PUSH32 0x8C379A000000000000000000000000000000000000000000000000000000000 DUP2 MSTORE PUSH1 0x4 ADD PUSH2 0x9B7 SWAP1 PUSH2 0x16F1 JUMP JUMPDEST PUSH1 0x40 MLOAD DUP1 SWAP2 SUB SWAP1 REVERT JUMPDEST PUSH1 0x1 DUP2 PUSH1 0x6 ADD PUSH0 PUSH2 0x100 EXP DUP2 SLOAD DUP2 PUSH1 0xFF MUL NOT AND SWAP1 DUP4 PUSH1 0x4 DUP2 GT ISZERO PUSH2 0x9E7 JUMPI PUSH2 0x9E6 PUSH2 0x11AA JUMP JUMPDEST JUMPDEST MUL OR SWAP1 SSTORE POP TIMESTAMP DUP2 PUSH1 0x8 ADD DUP2 SWAP1 SSTORE POP DUP2 PUSH32 0x7C32CA00142334D942C919D338FA31921D5108C316AEBD0347BCDA69EE8167C9 DUP3 PUSH1 0x5 ADD SLOAD PUSH1 0x40 MLOAD PUSH2 0xA29 SWAP2 SWAP1 PUSH2 0x10DA JUMP JUMPDEST PUSH1 0x40 MLOAD DUP1 SWAP2 SUB SWAP1 LOG2 DUP2 PUSH32 0xD9A86B644EB5F5B43CC8A700849852481080361C7A4B00BA646D1B46C5585F95 PUSH1 0x1 PUSH1 0x40 MLOAD PUSH2 0xA62 SWAP2 SWAP1 PUSH2 0x1941 JUMP JUMPDEST PUSH1 0x40 MLOAD DUP1 SWAP2 SUB SWAP1 LOG2 POP POP JUMP JUMPDEST PUSH1 0x1 PUSH1 0x20 MSTORE DUP2 PUSH0 MSTORE PUSH1 0x40 PUSH0 KECCAK256 DUP2 DUP2 SLOAD DUP2 LT PUSH2 0xA87 JUMPI PUSH0 DUP1 REVERT JUMPDEST SWAP1 PUSH0 MSTORE PUSH1 0x20 PUSH0 KECCAK256 ADD PUSH0 SWAP2 POP SWAP2 POP POP SLOAD DUP2 JUMP JUMPDEST PUSH0 PUSH1 0x20 MSTORE DUP1 PUSH0 MSTORE PUSH1 0x40 PUSH0 KECCAK256 PUSH0 SWAP2 POP SWAP1 POP DUP1 PUSH0 ADD SLOAD SWAP1 DUP1 PUSH1 0x1 ADD PUSH0 SWAP1 SLOAD SWAP1 PUSH2 0x100 EXP SWAP1 DIV PUSH20 0xFFFFFFFFFFFFFFFFFFFFFFFFFFFFFFFFFFFFFFFF AND SWAP1 DUP1 PUSH1 0x2 ADD PUSH0 SWAP1 SLOAD SWAP1 PUSH2 0x100 EXP SWAP1 DIV PUSH20 0xFFFFFFFFFFFFFFFFFFFFFFFFFFFFFFFFFFFFFFFF AND SWAP1 DUP1 PUSH1 0x3 ADD SLOAD SWAP1 DUP1 PUSH1 0x4 ADD SLOAD SWAP1 DUP1 PUSH1 0x5 ADD SLOAD SWAP1 DUP1 PUSH1 0x6 ADD PUSH0 SWAP1 SLOAD SWAP1 PUSH2 0x100 EXP SWAP1 DIV PUSH1 0xFF AND SWAP1 DUP1 PUSH1 0x7 ADD SLOAD SWAP1 DUP1 PUSH1 0x8 ADD SLOAD SWAP1 POP DUP10 JUMP JUMPDEST PUSH1 0x60 PUSH1 0x1 PUSH0 DUP4 PUSH20 0xFFFFFFFFFFFFFFFFFFFFFFFFFFFFFFFFFFFFFFFF AND PUSH20 0xFFFFFFFFFFFFFFFFFFFFFFFFFFFFFFFFFFFFFFFF AND DUP2 MSTORE PUSH1 0x20 ADD SWAP1 DUP2 MSTORE PUSH1 0x20 ADD PUSH0 KECCAK256 DUP1 SLOAD DUP1 PUSH1 0x20 MUL PUSH1 0x20 ADD PUSH1 0x40 MLOAD SWAP1 DUP2 ADD PUSH1 0x40 MSTORE DUP1 SWAP3 SWAP2 SWAP1 DUP2 DUP2 MSTORE PUSH1 0x20 ADD DUP3 DUP1 SLOAD DUP1 ISZERO PUSH2 0xBB3 JUMPI PUSH1 0x20 MUL DUP3 ADD SWAP2 SWAP1 PUSH0 MSTORE PUSH1 0x20 PUSH0 KECCAK256 SWAP1 JUMPDEST DUP2 SLOAD DUP2 MSTORE PUSH1 0x20 ADD SWAP1 PUSH1 0x1 ADD SWAP1 DUP1 DUP4 GT PUSH2 0xB9F JUMPI JUMPDEST POP POP POP POP POP SWAP1 POP SWAP2 SWAP1 POP JUMP JUMPDEST PUSH0 DUP1 PUSH0 DUP5 DUP2 MSTORE PUSH1 0x20 ADD SWAP1 DUP2 MSTORE PUSH1 0x20 ADD PUSH0 KECCAK256 SWAP1 POP CALLER PUSH20 0xFFFFFFFFFFFFFFFFFFFFFFFFFFFFFFFFFFFFFFFF AND DUP2 PUSH1 0x2 ADD PUSH0 SWAP1 SLOAD SWAP1 PUSH2 0x100 EXP SWAP1 DIV PUSH20 0xFFFFFFFFFFFFFFFFFFFFFFFFFFFFFFFFFFFFFFFF AND PUSH20 0xFFFFFFFFFFFFFFFFFFFFFFFFFFFFFFFFFFFFFFFF AND EQ PUSH2 0xC63 JUMPI PUSH1 0x40 MLOAD PUSH32 0x8C379A000000000000000000000000000000000000000000000000000000000 DUP2 MSTORE PUSH1 0x4 ADD PUSH2 0xC5A SWAP1 PUSH2 0x19CA JUMP JUMPDEST PUSH1 0x40 MLOAD DUP1 SWAP2 SUB SWAP1 REVERT JUMPDEST DUP1 PUSH1 0x6 ADD PUSH0 SWAP1 SLOAD SWAP1 PUSH2 0x100 EXP SWAP1 DIV PUSH1 0xFF AND PUSH1 0x4 DUP2 GT ISZERO PUSH2 0xC86 JUMPI PUSH2 0xC85 PUSH2 0x11AA JUMP JUMPDEST JUMPDEST DUP3 PUSH1 0x4 DUP2 GT ISZERO PUSH2 0xC99 JUMPI PUSH2 0xC98 PUSH2 0x11AA JUMP JUMPDEST JUMPDEST GT PUSH2 0xCD9 JUMPI PUSH1 0x40 MLOAD PUSH32 0x8C379A000000000000000000000000000000000000000000000000000000000 DUP2 MSTORE PUSH1 0x4 ADD PUSH2 0xCD0 SWAP1 PUSH2 0x1A32 JUMP JUMPDEST PUSH1 0x40 MLOAD DUP1 SWAP2 SUB SWAP1 REVERT JUMPDEST DUP2 DUP2 PUSH1 0x6 ADD PUSH0 PUSH2 0x100 EXP DUP2 SLOAD DUP2 PUSH1 0xFF MUL NOT AND SWAP1 DUP4 PUSH1 0x4 DUP2 GT ISZERO PUSH2 0xCFF JUMPI PUSH2 0xCFE PUSH2 0x11AA JUMP JUMPDEST JUMPDEST MUL OR SWAP1 SSTORE POP TIMESTAMP DUP2 PUSH1 0x8 ADD DUP2 SWAP1 SSTORE POP DUP3 PUSH32 0xD9A86B644EB5F5B43CC8A700849852481080361C7A4B00BA646D1B46C5585F95 DUP4 PUSH1 0x40 MLOAD PUSH2 0xD3D SWAP2 SWAP1 PUSH2 0x1941 JUMP JUMPDEST PUSH1 0x40 MLOAD DUP1 SWAP2 SUB SWAP1 LOG2 POP POP POP JUMP JUMPDEST PUSH1 0x60 PUSH1 0x2 PUSH0 DUP4 PUSH20 0xFFFFFFFFFFFFFFFFFFFFFFFFFFFFFFFFFFFFFFFF AND PUSH20 0xFFFFFFFFFFFFFFFFFFFFFFFFFFFFFFFFFFFFFFFF AND DUP2 MSTORE PUSH1 0x20 ADD SWAP1 DUP2 MSTORE PUSH1 0x20 ADD PUSH0 KECCAK256 DUP1 SLOAD DUP1 PUSH1 0x20 MUL PUSH1 0x20 ADD PUSH1 0x40 MLOAD SWAP1 DUP2 ADD PUSH1 0x40 MSTORE DUP1 SWAP3 SWAP2 SWAP1 DUP2 DUP2 MSTORE PUSH1 0x20 ADD DUP3 DUP1 SLOAD DUP1 ISZERO PUSH2 0xDD1 JUMPI PUSH1 0x20 MUL DUP3 ADD SWAP2 SWAP1 PUSH0 MSTORE PUSH1 0x20 PUSH0 KECCAK256 SWAP1 JUMPDEST DUP2 SLOAD DUP2 MSTORE PUSH1 0x20 ADD SWAP1 PUSH1 0x1 ADD SWAP1 DUP1 DUP4 GT PUSH2 0xDBD JUMPI JUMPDEST POP POP POP POP POP SWAP1 POP SWAP2 SWAP1 POP JUMP JUMPDEST PUSH2 0xDE5 PUSH2 0xF7B JUMP JUMPDEST PUSH0 DUP1 PUSH0 DUP5 DUP2 MSTORE PUSH1 0x20 ADD SWAP1 DUP2 MSTORE PUSH1 0x20 ADD PUSH0 KECCAK256 PUSH0 ADD SLOAD SUB PUSH2 0xE39 JUMPI PUSH1 0x40 MLOAD PUSH32 0x8C379A000000000000000000000000000000000000000000000000000000000 DUP2 MSTORE PUSH1 0x4 ADD PUSH2 0xE30 SWAP1 PUSH2 0x1A9A JUMP JUMPDEST PUSH1 0x40 MLOAD DUP1 SWAP2 SUB SWAP1 REVERT JUMPDEST PUSH0 DUP1 DUP4 DUP2 MSTORE PUSH1 0x20 ADD SWAP1 DUP2 MSTORE PUSH1 0x20 ADD PUSH0 KECCAK256 PUSH1 0x40 MLOAD DUP1 PUSH2 0x120 ADD PUSH1 0x40 MSTORE SWAP1 DUP2 PUSH0 DUP3 ADD SLOAD DUP2 MSTORE PUSH1 0x20 ADD PUSH1 0x1 DUP3 ADD PUSH0 SWAP1 SLOAD SWAP1 PUSH2 0x100 EXP SWAP1 DIV PUSH20 0xFFFFFFFFFFFFFFFFFFFFFFFFFFFFFFFFFFFFFFFF AND PUSH20 0xFFFFFFFFFFFFFFFFFFFFFFFFFFFFFFFFFFFFFFFF AND PUSH20 0xFFFFFFFFFFFFFFFFFFFFFFFFFFFFFFFFFFFFFFFF AND DUP2 MSTORE PUSH1 0x20 ADD PUSH1 0x2 DUP3 ADD PUSH0 SWAP1 SLOAD SWAP1 PUSH2 0x100 EXP SWAP1 DIV PUSH20 0xFFFFFFFFFFFFFFFFFFFFFFFFFFFFFFFFFFFFFFFF AND PUSH20 0xFFFFFFFFFFFFFFFFFFFFFFFFFFFFFFFFFFFFFFFF AND PUSH20 0xFFFFFFFFFFFFFFFFFFFFFFFFFFFFFFFFFFFFFFFF AND DUP2 MSTORE PUSH1 0x20 ADD PUSH1 0x3 DUP3 ADD SLOAD DUP2 MSTORE PUSH1 0x20 ADD PUSH1 0x4 DUP3 ADD SLOAD DUP2 MSTORE PUSH1 0x20 ADD PUSH1 0x5 DUP3 ADD SLOAD DUP2 MSTORE PUSH1 0x20 ADD PUSH1 0x6 DUP3 ADD PUSH0 SWAP1 SLOAD SWAP1 PUSH2 0x100 EXP SWAP1 DIV PUSH1 0xFF AND PUSH1 0x4 DUP2 GT ISZERO PUSH2 0xF4A JUMPI PUSH2 0xF49 PUSH2 0x11AA JUMP JUMPDEST JUMPDEST PUSH1 0x4 DUP2 GT ISZERO PUSH2 0xF5C JUMPI PUSH2 0xF5B PUSH2 0x11AA JUMP JUMPDEST JUMPDEST DUP2 MSTORE PUSH1 0x20 ADD PUSH1 0x7 DUP3 ADD SLOAD DUP2 MSTORE PUSH1 0x20 ADD PUSH1 0x8 DUP3 ADD SLOAD DUP2 MSTORE POP POP SWAP1 POP SWAP2 SWAP1 POP JUMP JUMPDEST PUSH1 0x40 MLOAD DUP1 PUSH2 0x120 ADD PUSH1 0x40 MSTORE DUP1 PUSH0 DUP2 MSTORE PUSH1 0x20 ADD PUSH0 PUSH20 0xFFFFFFFFFFFFFFFFFFFFFFFFFFFFFFFFFFFFFFFF AND DUP2 MSTORE PUSH1 0x20 ADD PUSH0 PUSH20 0xFFFFFFFFFFFFFFFFFFFFFFFFFFFFFFFFFFFFFFFF AND DUP2 MSTORE PUSH1 0x20 ADD PUSH0 DUP2 MSTORE PUSH1 0x20 ADD PUSH0 DUP2 MSTORE PUSH1 0x20 ADD PUSH0 DUP2 MSTORE PUSH1 0x20 ADD PUSH0 PUSH1 0x4 DUP2 GT ISZERO PUSH2 0xFEA JUMPI PUSH2 0xFE9 PUSH2 0x11AA JUMP JUMPDEST JUMPDEST DUP2 MSTORE PUSH1 0x20 ADD PUSH0 DUP2 MSTORE PUSH1 0x20 ADD PUSH0 DUP2 MSTORE POP SWAP1 JUMP JUMPDEST PUSH0 DUP1 REVERT JUMPDEST PUSH0 PUSH20 0xFFFFFFFFFFFFFFFFFFFFFFFFFFFFFFFFFFFFFFFF DUP3 AND SWAP1 POP SWAP2 SWAP1 POP JUMP JUMPDEST PUSH0 PUSH2 0x1029 DUP3 PUSH2 0x1000 JUMP JUMPDEST SWAP1 POP SWAP2 SWAP1 POP JUMP JUMPDEST PUSH2 0x1039 DUP2 PUSH2 0x101F JUMP JUMPDEST DUP2 EQ PUSH2 0x1043 JUMPI PUSH0 DUP1 REVERT JUMPDEST POP JUMP JUMPDEST PUSH0 DUP2 CALLDATALOAD SWAP1 POP PUSH2 0x1054 DUP2 PUSH2 0x1030 JUMP JUMPDEST SWAP3 SWAP2 POP POP JUMP JUMPDEST PUSH0 DUP2 SWAP1 POP SWAP2 SWAP1 POP JUMP JUMPDEST PUSH2 0x106C DUP2 PUSH2 0x105A JUMP JUMPDEST DUP2 EQ PUSH2 0x1076 JUMPI PUSH0 DUP1 REVERT JUMPDEST POP JUMP JUMPDEST PUSH0 DUP2 CALLDATALOAD SWAP1 POP PUSH2 0x1087 DUP2 PUSH2 0x1063 JUMP JUMPDEST SWAP3 SWAP2 POP POP JUMP JUMPDEST PUSH0 DUP1 PUSH1 0x40 DUP4 DUP6 SUB SLT ISZERO PUSH2 0x10A3 JUMPI PUSH2 0x10A2 PUSH2 0xFFC JUMP JUMPDEST JUMPDEST PUSH0 PUSH2 0x10B0 DUP6 DUP3 DUP7 ADD PUSH2 0x1046 JUMP JUMPDEST SWAP3 POP POP PUSH1 0x20 PUSH2 0x10C1 DUP6 DUP3 DUP7 ADD PUSH2 0x1079 JUMP JUMPDEST SWAP2 POP POP SWAP3 POP SWAP3 SWAP1 POP JUMP JUMPDEST PUSH2 0x10D4 DUP2 PUSH2 0x105A JUMP JUMPDEST DUP3 MSTORE POP POP JUMP JUMPDEST PUSH0 PUSH1 0x20 DUP3 ADD SWAP1 POP PUSH2 0x10ED PUSH0 DUP4 ADD DUP5 PUSH2 0x10CB JUMP JUMPDEST SWAP3 SWAP2 POP POP JUMP JUMPDEST PUSH0 PUSH1 0x20 DUP3 DUP5 SUB SLT ISZERO PUSH2 0x1108 JUMPI PUSH2 0x1107 PUSH2 0xFFC JUMP JUMPDEST JUMPDEST PUSH0 PUSH2 0x1115 DUP5 DUP3 DUP6 ADD PUSH2 0x1079 JUMP JUMPDEST SWAP2 POP POP SWAP3 SWAP2 POP POP JUMP JUMPDEST PUSH2 0x1127 DUP2 PUSH2 0x101F JUMP JUMPDEST DUP3 MSTORE POP POP JUMP JUMPDEST PUSH0 PUSH1 0x20 DUP3 ADD SWAP1 POP PUSH2 0x1140 PUSH0 DUP4 ADD DUP5 PUSH2 0x111E JUMP JUMPDEST SWAP3 SWAP2 POP POP JUMP JUMPDEST PUSH0 DUP1 PUSH0 DUP1 PUSH1 0x80 DUP6 DUP8 SUB SLT ISZERO PUSH2 0x115E JUMPI PUSH2 0x115D PUSH2 0xFFC JUMP JUMPDEST JUMPDEST PUSH0 PUSH2 0x116B DUP8 DUP3 DUP9 ADD PUSH2 0x1079 JUMP JUMPDEST SWAP5 POP POP PUSH1 0x20 PUSH2 0x117C DUP8 DUP3 DUP9 ADD PUSH2 0x1079 JUMP JUMPDEST SWAP4 POP POP PUSH1 0x40 PUSH2 0x118D DUP8 DUP3 DUP9 ADD PUSH2 0x1046 JUMP JUMPDEST SWAP3 POP POP PUSH1 0x60 PUSH2 0x119E DUP8 DUP3 DUP9 ADD PUSH2 0x1079 JUMP JUMPDEST SWAP2 POP POP SWAP3 SWAP6 SWAP2 SWAP5 POP SWAP3 POP JUMP JUMPDEST PUSH32 0x4E487B7100000000000000000000000000000000000000000000000000000000 PUSH0 MSTORE PUSH1 0x21 PUSH1 0x4 MSTORE PUSH1 0x24 PUSH0 REVERT JUMPDEST PUSH1 0x5 DUP2 LT PUSH2 0x11E8 JUMPI PUSH2 0x11E7 PUSH2 0x11AA JUMP JUMPDEST JUMPDEST POP JUMP JUMPDEST PUSH0 DUP2 SWAP1 POP PUSH2 0x11F8 DUP3 PUSH2 0x11D7 JUMP JUMPDEST SWAP2 SWAP1 POP JUMP JUMPDEST PUSH0 PUSH2 0x1207 DUP3 PUSH2 0x11EB JUMP JUMPDEST SWAP1 POP SWAP2 SWAP1 POP JUMP JUMPDEST PUSH2 0x1217 DUP2 PUSH2 0x11FD JUMP JUMPDEST DUP3 MSTORE POP POP JUMP JUMPDEST PUSH0 PUSH2 0x120 DUP3 ADD SWAP1 POP PUSH2 0x1231 PUSH0 DUP4 ADD DUP13 PUSH2 0x10CB JUMP JUMPDEST PUSH2 0x123E PUSH1 0x20 DUP4 ADD DUP12 PUSH2 0x111E JUMP JUMPDEST PUSH2 0x124B PUSH1 0x40 DUP4 ADD DUP11 PUSH2 0x111E JUMP JUMPDEST PUSH2 0x1258 PUSH1 0x60 DUP4 ADD DUP10 PUSH2 0x10CB JUMP JUMPDEST PUSH2 0x1265 PUSH1 0x80 DUP4 ADD DUP9 PUSH2 0x10CB JUMP JUMPDEST PUSH2 0x1272 PUSH1 0xA0 DUP4 ADD DUP8 PUSH2 0x10CB JUMP JUMPDEST PUSH2 0x127F PUSH1 0xC0 DUP4 ADD DUP7 PUSH2 0x120E JUMP JUMPDEST PUSH2 0x128C PUSH1 0xE0 DUP4 ADD DUP6 PUSH2 0x10CB JUMP JUMPDEST PUSH2 0x129A PUSH2 0x100 DUP4 ADD DUP5 PUSH2 0x10CB JUMP JUMPDEST SWAP11 SWAP10 POP POP POP POP POP POP POP POP POP POP JUMP JUMPDEST PUSH0 PUSH1 0x20 DUP3 DUP5 SUB SLT ISZERO PUSH2 0x12BD JUMPI PUSH2 0x12BC PUSH2 0xFFC JUMP JUMPDEST JUMPDEST PUSH0 PUSH2 0x12CA DUP5 DUP3 DUP6 ADD PUSH2 0x1046 JUMP JUMPDEST SWAP2 POP POP SWAP3 SWAP2 POP POP JUMP JUMPDEST PUSH0 DUP2 MLOAD SWAP1 POP SWAP2 SWAP1 POP JUMP JUMPDEST PUSH0 DUP3 DUP3 MSTORE PUSH1 0x20 DUP3 ADD SWAP1 POP SWAP3 SWAP2 POP POP JUMP JUMPDEST PUSH0 DUP2 SWAP1 POP PUSH1 0x20 DUP3 ADD SWAP1 POP SWAP2 SWAP1 POP JUMP JUMPDEST PUSH2 0x1305 DUP2 PUSH2 0x105A JUMP JUMPDEST DUP3 MSTORE POP POP JUMP JUMPDEST PUSH0 PUSH2 0x1316 DUP4 DUP4 PUSH2 0x12FC JUMP JUMPDEST PUSH1 0x20 DUP4 ADD SWAP1 POP SWAP3 SWAP2 POP POP JUMP JUMPDEST PUSH0 PUSH1 0x20 DUP3 ADD SWAP1 POP SWAP2 SWAP1 POP JUMP JUMPDEST PUSH0 PUSH2 0x1338 DUP3 PUSH2 0x12D3 JUMP JUMPDEST PUSH2 0x1342 DUP2 DUP6 PUSH2 0x12DD JUMP JUMPDEST SWAP4 POP PUSH2 0x134D DUP4 PUSH2 0x12ED JUMP JUMPDEST DUP1 PUSH0 JUMPDEST DUP4 DUP2 LT ISZERO PUSH2 0x137D JUMPI DUP2 MLOAD PUSH2 0x1364 DUP9 DUP3 PUSH2 0x130B JUMP JUMPDEST SWAP8 POP PUSH2 0x136F DUP4 PUSH2 0x1322 JUMP JUMPDEST SWAP3 POP POP PUSH1 0x1 DUP2 ADD SWAP1 POP PUSH2 0x1350 JUMP JUMPDEST POP DUP6 SWAP4 POP POP POP POP SWAP3 SWAP2 POP POP JUMP JUMPDEST PUSH0 PUSH1 0x20 DUP3 ADD SWAP1 POP DUP2 DUP2 SUB PUSH0 DUP4 ADD MSTORE PUSH2 0x13A2 DUP2 DUP5 PUSH2 0x132E JUMP JUMPDEST SWAP1 POP SWAP3 SWAP2 POP POP JUMP JUMPDEST PUSH1 0x5 DUP2 LT PUSH2 0x13B6 JUMPI PUSH0 DUP1 REVERT JUMPDEST POP JUMP JUMPDEST PUSH0 DUP2 CALLDATALOAD SWAP1 POP PUSH2 0x13C7 DUP2 PUSH2 0x13AA JUMP JUMPDEST SWAP3 SWAP2 POP POP JUMP JUMPDEST PUSH0 DUP1 PUSH1 0x40 DUP4 DUP6 SUB SLT ISZERO PUSH2 0x13E3 JUMPI PUSH2 0x13E2 PUSH2 0xFFC JUMP JUMPDEST JUMPDEST PUSH0 PUSH2 0x13F0 DUP6 DUP3 DUP7 ADD PUSH2 0x1079 JUMP JUMPDEST SWAP3 POP POP PUSH1 0x20 PUSH2 0x1401 DUP6 DUP3 DUP7 ADD PUSH2 0x13B9 JUMP JUMPDEST SWAP2 POP POP SWAP3 POP SWAP3 SWAP1 POP JUMP JUMPDEST PUSH2 0x1414 DUP2 PUSH2 0x101F JUMP JUMPDEST DUP3 MSTORE POP POP JUMP JUMPDEST PUSH2 0x1423 DUP2 PUSH2 0x11FD JUMP JUMPDEST DUP3 MSTORE POP POP JUMP JUMPDEST PUSH2 0x120 DUP3 ADD PUSH0 DUP3 ADD MLOAD PUSH2 0x143E PUSH0 DUP6 ADD DUP3 PUSH2 0x12FC JUMP JUMPDEST POP PUSH1 0x20 DUP3 ADD MLOAD PUSH2 0x1451 PUSH1 0x20 DUP6 ADD DUP3 PUSH2 0x140B JUMP JUMPDEST POP PUSH1 0x40 DUP3 ADD MLOAD PUSH2 0x1464 PUSH1 0x40 DUP6 ADD DUP3 PUSH2 0x140B JUMP JUMPDEST POP PUSH1 0x60 DUP3 ADD MLOAD PUSH2 0x1477 PUSH1 0x60 DUP6 ADD DUP3 PUSH2 0x12FC JUMP JUMPDEST POP PUSH1 0x80 DUP3 ADD MLOAD PUSH2 0x148A PUSH1 0x80 DUP6 ADD DUP3 PUSH2 0x12FC JUMP JUMPDEST POP PUSH1 0xA0 DUP3 ADD MLOAD PUSH2 0x149D PUSH1 0xA0 DUP6 ADD DUP3 PUSH2 0x12FC JUMP JUMPDEST POP PUSH1 0xC0 DUP3 ADD MLOAD PUSH2 0x14B0 PUSH1 0xC0 DUP6 ADD DUP3 PUSH2 0x141A JUMP JUMPDEST POP PUSH1 0xE0 DUP3 ADD MLOAD PUSH2 0x14C3 PUSH1 0xE0 DUP6 ADD DUP3 PUSH2 0x12FC JUMP JUMPDEST POP PUSH2 0x100 DUP3 ADD MLOAD PUSH2 0x14D8 PUSH2 0x100 DUP6 ADD DUP3 PUSH2 0x12FC JUMP JUMPDEST POP POP POP POP JUMP JUMPDEST PUSH0 PUSH2 0x120 DUP3 ADD SWAP1 POP PUSH2 0x14F2 PUSH0 DUP4 ADD DUP5 PUSH2 0x1429 JUMP JUMPDEST SWAP3 SWAP2 POP POP JUMP JUMPDEST PUSH0 DUP3 DUP3 MSTORE PUSH1 0x20 DUP3 ADD SWAP1 POP SWAP3 SWAP2 POP POP JUMP JUMPDEST PUSH32 0x4F72646572206D7573742062652064656C69766572656420746F2072656C6561 PUSH0 DUP3 ADD MSTORE PUSH32 0x73652066756E6473000000000000000000000000000000000000000000000000 PUSH1 0x20 DUP3 ADD MSTORE POP JUMP JUMPDEST PUSH0 PUSH2 0x1562 PUSH1 0x28 DUP4 PUSH2 0x14F8 JUMP JUMPDEST SWAP2 POP PUSH2 0x156D DUP3 PUSH2 0x1508 JUMP JUMPDEST PUSH1 0x40 DUP3 ADD SWAP1 POP SWAP2 SWAP1 POP JUMP JUMPDEST PUSH0 PUSH1 0x20 DUP3 ADD SWAP1 POP DUP2 DUP2 SUB PUSH0 DUP4 ADD MSTORE PUSH2 0x158F DUP2 PUSH2 0x1556 JUMP JUMPDEST SWAP1 POP SWAP2 SWAP1 POP JUMP JUMPDEST PUSH32 0x4F6E6C7920636F6E73756D65722063616E2072656C656173652066756E647300 PUSH0 DUP3 ADD MSTORE POP JUMP JUMPDEST PUSH0 PUSH2 0x15CA PUSH1 0x1F DUP4 PUSH2 0x14F8 JUMP JUMPDEST SWAP2 POP PUSH2 0x15D5 DUP3 PUSH2 0x1596 JUMP JUMPDEST PUSH1 0x20 DUP3 ADD SWAP1 POP SWAP2 SWAP1 POP JUMP JUMPDEST PUSH0 PUSH1 0x20 DUP3 ADD SWAP1 POP DUP2 DUP2 SUB PUSH0 DUP4 ADD MSTORE PUSH2 0x15F7 DUP2 PUSH2 0x15BE JUMP JUMPDEST SWAP1 POP SWAP2 SWAP1 POP JUMP JUMPDEST PUSH0 DUP2 SWAP1 POP SWAP3 SWAP2 POP POP JUMP JUMPDEST POP JUMP JUMPDEST PUSH0 PUSH2 0x1616 PUSH0 DUP4 PUSH2 0x15FE JUMP JUMPDEST SWAP2 POP PUSH2 0x1621 DUP3 PUSH2 0x1608 JUMP JUMPDEST PUSH0 DUP3 ADD SWAP1 POP SWAP2 SWAP1 POP JUMP JUMPDEST PUSH0 PUSH2 0x1635 DUP3 PUSH2 0x160B JUMP JUMPDEST SWAP2 POP DUP2 SWAP1 POP SWAP2 SWAP1 POP JUMP JUMPDEST PUSH32 0x46756E64207472616E73666572206661696C6564000000000000000000000000 PUSH0 DUP3 ADD MSTORE POP JUMP JUMPDEST PUSH0 PUSH2 0x1673 PUSH1 0x14 DUP4 PUSH2 0x14F8 JUMP JUMPDEST SWAP2 POP PUSH2 0x167E DUP3 PUSH2 0x163F JUMP JUMPDEST PUSH1 0x20 DUP3 ADD SWAP1 POP SWAP2 SWAP1 POP JUMP JUMPDEST PUSH0 PUSH1 0x20 DUP3 ADD SWAP1 POP DUP2 DUP2 SUB PUSH0 DUP4 ADD MSTORE PUSH2 0x16A0 DUP2 PUSH2 0x1667 JUMP JUMPDEST SWAP1 POP SWAP2 SWAP1 POP JUMP JUMPDEST PUSH32 0x496E73756666696369656E74207061796D656E74000000000000000000000000 PUSH0 DUP3 ADD MSTORE POP JUMP JUMPDEST PUSH0 PUSH2 0x16DB PUSH1 0x14 DUP4 PUSH2 0x14F8 JUMP JUMPDEST SWAP2 POP PUSH2 0x16E6 DUP3 PUSH2 0x16A7 JUMP JUMPDEST PUSH1 0x20 DUP3 ADD SWAP1 POP SWAP2 SWAP1 POP JUMP JUMPDEST PUSH0 PUSH1 0x20 DUP3 ADD SWAP1 POP DUP2 DUP2 SUB PUSH0 DUP4 ADD MSTORE PUSH2 0x1708 DUP2 PUSH2 0x16CF JUMP JUMPDEST SWAP1 POP SWAP2 SWAP1 POP JUMP JUMPDEST PUSH32 0x4E487B7100000000000000000000000000000000000000000000000000000000 PUSH0 MSTORE PUSH1 0x11 PUSH1 0x4 MSTORE PUSH1 0x24 PUSH0 REVERT JUMPDEST PUSH0 PUSH2 0x1746 DUP3 PUSH2 0x105A JUMP JUMPDEST SWAP2 POP PUSH32 0xFFFFFFFFFFFFFFFFFFFFFFFFFFFFFFFFFFFFFFFFFFFFFFFFFFFFFFFFFFFFFFFF DUP3 SUB PUSH2 0x1778 JUMPI PUSH2 0x1777 PUSH2 0x170F JUMP JUMPDEST JUMPDEST PUSH1 0x1 DUP3 ADD SWAP1 POP SWAP2 SWAP1 POP JUMP JUMPDEST PUSH0 DUP2 SWAP1 POP SWAP2 SWAP1 POP JUMP JUMPDEST PUSH2 0x179D PUSH2 0x1798 DUP3 PUSH2 0x105A JUMP JUMPDEST PUSH2 0x1783 JUMP JUMPDEST DUP3 MSTORE POP POP JUMP JUMPDEST PUSH0 DUP2 PUSH1 0x60 SHL SWAP1 POP SWAP2 SWAP1 POP JUMP JUMPDEST PUSH0 PUSH2 0x17B9 DUP3 PUSH2 0x17A3 JUMP JUMPDEST SWAP1 POP SWAP2 SWAP1 POP JUMP JUMPDEST PUSH0 PUSH2 0x17CA DUP3 PUSH2 0x17AF JUMP JUMPDEST SWAP1 POP SWAP2 SWAP1 POP JUMP JUMPDEST PUSH2 0x17E2 PUSH2 0x17DD DUP3 PUSH2 0x101F JUMP JUMPDEST PUSH2 0x17C0 JUMP JUMPDEST DUP3 MSTORE POP POP JUMP JUMPDEST PUSH0 PUSH2 0x17F3 DUP3 DUP7 PUSH2 0x178C JUMP JUMPDEST PUSH1 0x20 DUP3 ADD SWAP2 POP PUSH2 0x1803 DUP3 DUP6 PUSH2 0x17D1 JUMP JUMPDEST PUSH1 0x14 DUP3 ADD SWAP2 POP PUSH2 0x1813 DUP3 DUP5 PUSH2 0x178C JUMP JUMPDEST PUSH1 0x20 DUP3 ADD SWAP2 POP DUP2 SWAP1 POP SWAP5 SWAP4 POP POP POP POP JUMP JUMPDEST PUSH0 PUSH1 0x40 DUP3 ADD SWAP1 POP PUSH2 0x1837 PUSH0 DUP4 ADD DUP6 PUSH2 0x10CB JUMP JUMPDEST PUSH2 0x1844 PUSH1 0x20 DUP4 ADD DUP5 PUSH2 0x10CB JUMP JUMPDEST SWAP4 SWAP3 POP POP POP JUMP JUMPDEST PUSH32 0x4F6E6C7920636F6E73756D65722063616E20636F6E6669726D207061796D656E PUSH0 DUP3 ADD MSTORE PUSH32 0x7400000000000000000000000000000000000000000000000000000000000000 PUSH1 0x20 DUP3 ADD MSTORE POP JUMP JUMPDEST PUSH0 PUSH2 0x18A5 PUSH1 0x21 DUP4 PUSH2 0x14F8 JUMP JUMPDEST SWAP2 POP PUSH2 0x18B0 DUP3 PUSH2 0x184B JUMP JUMPDEST PUSH1 0x40 DUP3 ADD SWAP1 POP SWAP2 SWAP1 POP JUMP JUMPDEST PUSH0 PUSH1 0x20 DUP3 ADD SWAP1 POP DUP2 DUP2 SUB PUSH0 DUP4 ADD MSTORE PUSH2 0x18D2 DUP2 PUSH2 0x1899 JUMP JUMPDEST SWAP1 POP SWAP2 SWAP1 POP JUMP JUMPDEST PUSH32 0x496E76616C6964206F7264657220737461747573000000000000000000000000 PUSH0 DUP3 ADD MSTORE POP JUMP JUMPDEST PUSH0 PUSH2 0x190D PUSH1 0x14 DUP4 PUSH2 0x14F8 JUMP JUMPDEST SWAP2 POP PUSH2 0x1918 DUP3 PUSH2 0x18D9 JUMP JUMPDEST PUSH1 0x20 DUP3 ADD SWAP1 POP SWAP2 SWAP1 POP JUMP JUMPDEST PUSH0 PUSH1 0x20 DUP3 ADD SWAP1 POP DUP2 DUP2 SUB PUSH0 DUP4 ADD MSTORE PUSH2 0x193A DUP2 PUSH2 0x1901 JUMP JUMPDEST SWAP1 POP SWAP2 SWAP1 POP JUMP JUMPDEST PUSH0 PUSH1 0x20 DUP3 ADD SWAP1 POP PUSH2 0x1954 PUSH0 DUP4 ADD DUP5 PUSH2 0x120E JUMP JUMPDEST SWAP3 SWAP2 POP POP JUMP JUMPDEST PUSH32 0x4F6E6C79206661726D65722063616E20757064617465206F7264657220737461 PUSH0 DUP3 ADD MSTORE PUSH32 0x7475730000000000000000000000000000000000000000000000000000000000 PUSH1 0x20 DUP3 ADD MSTORE POP JUMP JUMPDEST PUSH0 PUSH2 0x19B4 PUSH1 0x23 DUP4 PUSH2 0x14F8 JUMP JUMPDEST SWAP2 POP PUSH2 0x19BF DUP3 PUSH2 0x195A JUMP JUMPDEST PUSH1 0x40 DUP3 ADD SWAP1 POP SWAP2 SWAP1 POP JUMP JUMPDEST PUSH0 PUSH1 0x20 DUP3 ADD SWAP1 POP DUP2 DUP2 SUB PUSH0 DUP4 ADD MSTORE PUSH2 0x19E1 DUP2 PUSH2 0x19A8 JUMP JUMPDEST SWAP1 POP SWAP2 SWAP1 POP JUMP JUMPDEST PUSH32 0x43616E6E6F742072657665727420746F2070726576696F757320737461747573 PUSH0 DUP3 ADD MSTORE POP JUMP JUMPDEST PUSH0 PUSH2 0x1A1C PUSH1 0x20 DUP4 PUSH2 0x14F8 JUMP JUMPDEST SWAP2 POP PUSH2 0x1A27 DUP3 PUSH2 0x19E8 JUMP JUMPDEST PUSH1 0x20 DUP3 ADD SWAP1 POP SWAP2 SWAP1 POP JUMP JUMPDEST PUSH0 PUSH1 0x20 DUP3 ADD SWAP1 POP DUP2 DUP2 SUB PUSH0 DUP4 ADD MSTORE PUSH2 0x1A49 DUP2 PUSH2 0x1A10 JUMP JUMPDEST SWAP1 POP SWAP2 SWAP1 POP JUMP JUMPDEST PUSH32 0x4F7264657220646F6573206E6F74206578697374000000000000000000000000 PUSH0 DUP3 ADD MSTORE POP JUMP JUMPDEST PUSH0 PUSH2 0x1A84 PUSH1 0x14 DUP4 PUSH2 0x14F8 JUMP JUMPDEST SWAP2 POP PUSH2 0x1A8F DUP3 PUSH2 0x1A50 JUMP JUMPDEST PUSH1 0x20 DUP3 ADD SWAP1 POP SWAP2 SWAP1 POP JUMP JUMPDEST PUSH0 PUSH1 0x20 DUP3 ADD SWAP1 POP DUP2 DUP2 SUB PUSH0 DUP4 ADD MSTORE PUSH2 0x1AB1 DUP2 PUSH2 0x1A78 JUMP JUMPDEST SWAP1 POP SWAP2 SWAP1 POP JUMP INVALID LOG2 PUSH5 0x6970667358 0x22 SLT KECCAK256 DUP9 0xCA PUSH26 0x57CD9A31CDC3C8C3BDC65C8995C485E87F31F8A3260098D0B746 0x29 0xCB 0xFB PUSH5 0x736F6C6343 STOP ADDMOD BYTE STOP CALLER "
		},
		"gasEstimates": {
			"creation": {
				"codeDepositCost": "1378800",
				"executionCost": "25701",
				"totalCost": "1404501"
			},
			"external": {
				"confirmPayment(uint256)": "infinite",
				"consumerOrders(address,uint256)": "infinite",
				"createOrder(uint256,uint256,address,uint256)": "infinite",
				"escrowAccount()": "2553",
				"farmerOrders(address,uint256)": "infinite",
				"getConsumerOrders(address)": "infinite",
				"getFarmerOrders(address)": "infinite",
				"getOrderDetails(uint256)": "infinite",
				"orders(uint256)": "infinite",
				"releaseFunds(uint256)": "infinite",
				"updateOrderStatus(uint256,uint8)": "53146"
			}
		},
		"methodIdentifiers": {
			"confirmPayment(uint256)": "876ca09f",
			"consumerOrders(address,uint256)": "97b45b30",
			"createOrder(uint256,uint256,address,uint256)": "830b7d70",
			"escrowAccount()": "54b3b018",
			"farmerOrders(address,uint256)": "44cad531",
			"getConsumerOrders(address)": "aa16608c",
			"getFarmerOrders(address)": "aecb8c57",
			"getOrderDetails(uint256)": "ec7dd7bb",
			"orders(uint256)": "a85c38ef",
			"releaseFunds(uint256)": "4d68282f",
			"updateOrderStatus(uint256,uint8)": "aab3196d"
		}
	},
	"abi": [
		{
			"inputs": [],
			"stateMutability": "nonpayable",
			"type": "constructor"
		},
		{
			"anonymous": false,
			"inputs": [
				{
					"indexed": true,
					"internalType": "uint256",
					"name": "orderId",
					"type": "uint256"
				},
				{
					"indexed": true,
					"internalType": "address",
					"name": "consumer",
					"type": "address"
				},
				{
					"indexed": true,
					"internalType": "address",
					"name": "farmer",
					"type": "address"
				},
				{
					"indexed": false,
					"internalType": "uint256",
					"name": "productId",
					"type": "uint256"
				},
				{
					"indexed": false,
					"internalType": "uint256",
					"name": "quantity",
					"type": "uint256"
				}
			],
			"name": "OrderCreated",
			"type": "event"
		},
		{
			"anonymous": false,
			"inputs": [
				{
					"indexed": true,
					"internalType": "uint256",
					"name": "orderId",
					"type": "uint256"
				},
				{
					"indexed": false,
					"internalType": "uint256",
					"name": "amount",
					"type": "uint256"
				}
			],
			"name": "OrderPaid",
			"type": "event"
		},
		{
			"anonymous": false,
			"inputs": [
				{
					"indexed": true,
					"internalType": "uint256",
					"name": "orderId",
					"type": "uint256"
				},
				{
					"indexed": false,
					"internalType": "enum OrderManagement.OrderStatus",
					"name": "newStatus",
					"type": "uint8"
				}
			],
			"name": "OrderStatusUpdated",
			"type": "event"
		},
		{
			"inputs": [
				{
					"internalType": "uint256",
					"name": "_orderId",
					"type": "uint256"
				}
			],
			"name": "confirmPayment",
			"outputs": [],
			"stateMutability": "payable",
			"type": "function"
		},
		{
			"inputs": [
				{
					"internalType": "address",
					"name": "",
					"type": "address"
				},
				{
					"internalType": "uint256",
					"name": "",
					"type": "uint256"
				}
			],
			"name": "consumerOrders",
			"outputs": [
				{
					"internalType": "uint256",
					"name": "",
					"type": "uint256"
				}
			],
			"stateMutability": "view",
			"type": "function"
		},
		{
			"inputs": [
				{
					"internalType": "uint256",
					"name": "_productId",
					"type": "uint256"
				},
				{
					"internalType": "uint256",
					"name": "_quantity",
					"type": "uint256"
				},
				{
					"internalType": "address",
					"name": "_farmer",
					"type": "address"
				},
				{
					"internalType": "uint256",
					"name": "_totalPrice",
					"type": "uint256"
				}
			],
			"name": "createOrder",
			"outputs": [
				{
					"internalType": "uint256",
					"name": "",
					"type": "uint256"
				}
			],
			"stateMutability": "payable",
			"type": "function"
		},
		{
			"inputs": [],
			"name": "escrowAccount",
			"outputs": [
				{
					"internalType": "address",
					"name": "",
					"type": "address"
				}
			],
			"stateMutability": "view",
			"type": "function"
		},
		{
			"inputs": [
				{
					"internalType": "address",
					"name": "",
					"type": "address"
				},
				{
					"internalType": "uint256",
					"name": "",
					"type": "uint256"
				}
			],
			"name": "farmerOrders",
			"outputs": [
				{
					"internalType": "uint256",
					"name": "",
					"type": "uint256"
				}
			],
			"stateMutability": "view",
			"type": "function"
		},
		{
			"inputs": [
				{
					"internalType": "address",
					"name": "_consumer",
					"type": "address"
				}
			],
			"name": "getConsumerOrders",
			"outputs": [
				{
					"internalType": "uint256[]",
					"name": "",
					"type": "uint256[]"
				}
			],
			"stateMutability": "view",
			"type": "function"
		},
		{
			"inputs": [
				{
					"internalType": "address",
					"name": "_farmer",
					"type": "address"
				}
			],
			"name": "getFarmerOrders",
			"outputs": [
				{
					"internalType": "uint256[]",
					"name": "",
					"type": "uint256[]"
				}
			],
			"stateMutability": "view",
			"type": "function"
		},
		{
			"inputs": [
				{
					"internalType": "uint256",
					"name": "_orderId",
					"type": "uint256"
				}
			],
			"name": "getOrderDetails",
			"outputs": [
				{
					"components": [
						{
							"internalType": "uint256",
							"name": "orderId",
							"type": "uint256"
						},
						{
							"internalType": "address",
							"name": "consumer",
							"type": "address"
						},
						{
							"internalType": "address",
							"name": "farmer",
							"type": "address"
						},
						{
							"internalType": "uint256",
							"name": "productId",
							"type": "uint256"
						},
						{
							"internalType": "uint256",
							"name": "quantity",
							"type": "uint256"
						},
						{
							"internalType": "uint256",
							"name": "totalPrice",
							"type": "uint256"
						},
						{
							"internalType": "enum OrderManagement.OrderStatus",
							"name": "status",
							"type": "uint8"
						},
						{
							"internalType": "uint256",
							"name": "createdAt",
							"type": "uint256"
						},
						{
							"internalType": "uint256",
							"name": "updatedAt",
							"type": "uint256"
						}
					],
					"internalType": "struct OrderManagement.Order",
					"name": "",
					"type": "tuple"
				}
			],
			"stateMutability": "view",
			"type": "function"
		},
		{
			"inputs": [
				{
					"internalType": "uint256",
					"name": "",
					"type": "uint256"
				}
			],
			"name": "orders",
			"outputs": [
				{
					"internalType": "uint256",
					"name": "orderId",
					"type": "uint256"
				},
				{
					"internalType": "address",
					"name": "consumer",
					"type": "address"
				},
				{
					"internalType": "address",
					"name": "farmer",
					"type": "address"
				},
				{
					"internalType": "uint256",
					"name": "productId",
					"type": "uint256"
				},
				{
					"internalType": "uint256",
					"name": "quantity",
					"type": "uint256"
				},
				{
					"internalType": "uint256",
					"name": "totalPrice",
					"type": "uint256"
				},
				{
					"internalType": "enum OrderManagement.OrderStatus",
					"name": "status",
					"type": "uint8"
				},
				{
					"internalType": "uint256",
					"name": "createdAt",
					"type": "uint256"
				},
				{
					"internalType": "uint256",
					"name": "updatedAt",
					"type": "uint256"
				}
			],
			"stateMutability": "view",
			"type": "function"
		},
		{
			"inputs": [
				{
					"internalType": "uint256",
					"name": "_orderId",
					"type": "uint256"
				}
			],
			"name": "releaseFunds",
			"outputs": [],
			"stateMutability": "nonpayable",
			"type": "function"
		},
		{
			"inputs": [
				{
					"internalType": "uint256",
					"name": "_orderId",
					"type": "uint256"
				},
				{
					"internalType": "enum OrderManagement.OrderStatus",
					"name": "_newStatus",
					"type": "uint8"
				}
			],
			"name": "updateOrderStatus",
			"outputs": [],
			"stateMutability": "nonpayable",
			"type": "function"
		}
	]
}